:020000040800F2
:10000000680A00209D0100087B190008F716000807
:1000100079190008CD020008D9220008000000006C
:100020000000000000000000000000007F19000830
:10003000CF020008000000007D19000881190008A7
:10004000B7010008B7010008B7010008B7010008B0
:10005000B7010008B7010008B7010008B7010008A0
:10006000B7010008B7010008B7010008B701000890
:10007000B7010008B7010008B7010008B701000880
:10008000B7010008B7010008B7010008B701000870
:10009000B7010008B7010008B7010008B701000860
:1000A000B7010008B7010008B7010008B701000850
:1000B000B7010008B7010008B7010008B701000840
:1000C000B7010008B7010008B7010008B701000830
:1000D000B70100085D1F000869200008E92000083A
:1000E000B7010008B7010008B7010008B701000810
:1000F000B7010008B7010008B7010008B701000800
:10010000B7010008B7010008B7010008B7010008EF
:100110007D1C0008B7010008B7010008B7010008FE
:10012000B7010008B7010008B7010008B7010008CF
:10013000B7010008B7010008B7010008B7010008BF
:10014000B7010008B7010008B7010008B7010008AF
:10015000B7010008B7010008B7010008C92100086D
:10016000B7010008B7010008B7010008B70100088F
:10017000B7010008B7010008B7010008000000003F
:10018000B7010008B7010008DFF80CD000F08CF8C8
:100190000048004789250008680A00200648804773
:1001A00006480047FEE7FEE7FEE7FEE7FEE7FEE75C
:1001B000FEE7FEE7FEE7FEE7191A000889010008DE
:1001C0002DE9F05F0546002092469B46884606468C
:1001D000814640241BE0284641464746224600F01F
:1001E00053F853465A46C01A914110D31146184647
:1001F000224600F03AF82D1A67EB01084F462246D6
:100200000120002100F031F817EB00094E41201EBB
:10021000A4F10104DFDC484631462A464346BDE8E6
:10022000F09F40EA01039B0703D009E008C9121FB1
:1002300008C0042AFAD203E011F8013B00F8013BA0
:10024000521EF9D27047D2B201E000F8012B491ECC
:10025000FBD270470022F6E710B513460A46044663
:100260001946FFF7F0FF204610BD202A04DB203A94
:1002700000FA02F1002070479140C2F1200320FAF9
:1002800003F3194390407047202A04DB203A21FAF7
:1002900002F00021704721FA02F3D040C2F120029F
:1002A0009140084319467047064C074D06E0E06848
:1002B00040F0010394E8070098471034AC42F6D3AD
:1002C000FFF766FFFC2600081C270008FEE77047C2
:1002D00072B6FEE72DE9F0410446876D00F06AF939
:1002E000064694F835000025022806D08020606577
:1002F00084F834500120BDE8F0812068016821F0C5
:10030000160101602068416921F080014161206C83
:1003100008B9A06C20B12068016821F008010160D3
:100320002068016821F0010101600CE000F042F951
:10033000801B052807D920206065032084F835003C
:1003400084F83450D7E720680068C007EED194F8ED
:100350005C103F208840B860012084F8350084F8A4
:1003600034500020C7E790F83510022903D08021CF
:10037000416501207047052180F83510006801684B
:1003800021F00101016000207047000070B50446B3
:1003900000F010F90546601C02D0044800780444BF
:1003A00000F008F9401BA042FAD370BD0000002005
:1003B0002DE9F84FDFF8BCA10022012503264FF0FC
:1003C0000F090AF1040BAAF1040E00BF0B6805FA2D
:1003D00002F42340A34270D10F7907F00307012FE5
:1003E00001D0022F16D187684FEA420806FA08FCAE
:1003F00027EA0C07D1F80CC00CFA08FC4CEA070CF1
:10040000C0F808C04768A7430C79C4F300149440AF
:100410003C4344600C79E443A4070AD0C4684FEA23
:10042000420C06FA0CF7BC438F6807FA0CF7274317
:10043000C7600C7904F00304022C12D1D40800EB3D
:10044000840CDCF820405707FF0E09FA07F824EA6D
:100450000804D1F8108008FA07F848EA0408CCF834
:10046000208004684FEA420C06FA0CF7BC430F796F
:1004700007F0030707FA0CF7274307604C6814F4EA
:10048000403F70D03C4C276847F480472760246881
:1004900022F0030704F480440094384C07EB040C6A
:1004A000DCF8084897074FEA177809FA08F7BC43C1
:1004B000334FB84202D1002724E054E0314FB84214
:1004C00001D101271EE0304FB84201D1022719E0C7
:1004D0002E4FB84201D1032714E02D4FB84201D16D
:1004E00004270FE02B4FB84201D105270AE02A4F1D
:1004F000B84201D1062705E0284FB84201D10727AD
:1005000000E0082707FA08F72743CCF80878DAF85C
:1005100000405746D1F804C09C435FEACC2C00D57C
:100520001C433C60DBF800405F46D1F804C09C43AC
:100530005FEA8C2C00D51C433C60DEF80040774617
:10054000D1F804C09C435FEA8C3C00D51C433C605E
:10055000084F083F3C68D1F804C09C435FEACC3C9C
:1005600000D51C433C60521C102AFFF42FAFBDE89D
:10057000F88F0000083C0140443802400030014040
:10058000000002400004024000080240000C02404B
:10059000001002400014024000180240001C0240FB
:1005A0000069084000D0012070470AB1816170479E
:1005B0000904FBE701488068704700000000002044
:1005C0000248816802781144816070470000002071
:1005D0000B4810B5016841F400710160016841F4F5
:1005E00080610160016841F480710160032000F0C6
:1005F0006FF80F2000F006F800F024F8002010BD7E
:10060000003C024070B50D4D04464FF47A712878D5
:10061000B1FBF0F00A490968B1FBF0F000F00CFB07
:1006200048B9102C07D200222146501E00F030F8A5
:1006300000206C6070BD012070BD00000000002033
:100640000C0000200A4808B5016841F480410160AF
:10065000006800F4804000900548001F016841F0E8
:1006600080510160006800F08050009008BD0000DB
:1006700044380240002809DB00F01F0201219140AC
:100680004009800000F1E020C0F800117047000030
:10069000F0B40E4B1B680C46C3F30223C3F10705ED
:1006A000042D00D90425191D072901D2002300E0DB
:1006B000DB1E012606FA05F1491E214099409E40A5
:1006C000761E16403143F0BC01F007BE0CED00E091
:1006D000064900F0070208684FF6FF03184040EA99
:1006E0000220034A10430860704700000CED00E050
:1006F0000000FA052DE9F0470E46050065D0DFF849
:100700001481D8F80000F7B200F00700B04207D219
:1007100088F80070D8F8000000F00700B04254D10B
:1007200028683D4C810712D5400703D5206840F466
:10073000E05020602878000703D5206840F460402E
:1007400020602068A96820F0F00008432060287825
:10075000C0072DD0304968680839012812D0022816
:1007600013D0032811D00968890700292DDA2168E0
:1007700021F0030101432160FFF71CFF814641F294
:10078000883A0EE009688903EFE709688901ECE718
:10079000FFF710FFA0EB0901514502D90320BDE886
:1007A000F0872068696800F00C00B0EB810FEFD192
:1007B000D8F80010404601F00701B14207D9077090
:1007C000006800F00700B04201D00120E7E7287878
:1007D000400705D52068E96820F4E0500843206010
:1007E0002878000706D52068296920F4604040EA8F
:1007F000C100206000F038F82168084AC1F30311F5
:10080000515CC8400649086006480068FFF7FAFED8
:100810000020C4E7003C024008380240E4260008FB
:100820000C00002004000020044805490068096805
:10083000044AC1F38221515CC84070470C0000207B
:1008400008380240F4260008044805490068096891
:10085000044AC1F34231515CC84070470C0000208B
:1008600008380240F4260008154810B5006810F05A
:100870000C02144813D01449042A0FD0082A0ED1B0
:100880000F4C241F2268236802F03F025B0207D549
:100890002068C0F38810A0FB010106E0084610BDE7
:1008A0002168C1F38811A1FB00010023FFF788FC38
:1008B0002168C1F30141491C4900B0FBF1F010BDB2
:1008C000083802400024F40040787D012DE9F84FFB
:1008D00004006ED02078DFF84C93C007A9F104051E
:1008E0004AD009F104000168C1F38101012908D04F
:1008F0000068C0F3810002280AD1D9F80000400244
:1009000006D52868800337D560680028E1D033E039
:100910006068B0F5803F10D0B0F5A02F286810D0E7
:1009200020F480302860286820F4802028606068E7
:10093000A8B1FFF73FFE06460DE0286840F480307E
:10094000F4E740F480202860F7E700BFFFF732FEAD
:10095000801B642873D828688003F7D50CE0FFF764
:1009600029FE064605E000BFFFF724FE801B642831
:10097000F0D828688003F7D42078DFF8AC828007AD
:100980004FF0000A3ED5A748001D016811F00C0F7A
:1009900008D00068C0F3810002280BD1D9F800000C
:1009A000400207D42868800716D5E068012800D1E6
:1009B00012E033E1E068B8B10120C8F80000FFF7A9
:1009C000F9FD064605E000BFFFF7F4FD801B022895
:1009D000C0D828688007F7D52868216920F0F8007A
:1009E00040EAC10028600DE0C8F800A0FFF7E2FD72
:1009F000064604E0FFF7DEFD801B02281FD82868AA
:100A00008007F7D42078000722D5864F8748616990
:100A1000703771B101210160FFF7CCFD064604E09B
:100A2000FFF7C8FD801B022809D838688007F7D572
:100A30000EE0C0F800A0FFF7BDFD064605E082E02D
:100A4000FFF7B8FD801B02287DD838688007F7D4EF
:100A50002078400768D5DFF8CCB100270BF13C0BBC
:100A6000DBF80000C0000BD4DBF8001041F080512F
:100A7000CBF80010DBF80000012700F08050009058
:100A80006B4E3068C00510D4306840F48070306020
:100A9000FFF790FD009005E0FFF78CFD0099401AEC
:100AA000022850D83068C005F6D55E4EA0686C3676
:100AB00001280FD00528306810D020F001003060E8
:100AC000306820F004003060A068B8B1FFF772FD14
:100AD00000900FE0306840F00100F4E740F00400BF
:100AE0003060F7E7FFF766FD0099411A41F2883060
:100AF000814266D830688007F4D50EE0FFF75AFDD2
:100B0000009007E0FFF756FD0099411A41F2883046
:100B1000814256D830688007F4D42FB1DBF800103A
:100B200021F08051CBF80010A069C8B33D49091DE0
:100B30000968C1F3810102294AD00228504607D032
:100B4000C8F8600000E03CE0FFF734FD04463BE0FD
:100B50004746C8F86000FFF72DFD064605E000BFD8
:100B6000FFF728FD801B02282BD828688001F7D4C6
:100B7000D4E907010843A16A2E4A490802EB014162
:100B8000626A41EA8211084394F82C1040EA01613C
:100B9000C9F8001001203866FFF70CFD044606E096
:100BA0003EE000BFFFF706FD001B022809D82868B9
:100BB0008001F7D534E000BFFFF7FCFC001B0228E2
:100BC00002D90320BDE8F88F28688001F4D427E01B
:100BD0000128F7D0D9F80000E26900F480019142C1
:100BE0001CD1226A00F03F01914217D147F6C07133
:100BF000626A0140B1EB821F10D1A26A4FF0FF334D
:100C000000F4403103EB5202B1EB024F06D194F8ED
:100C10002C1000F07060B0EB016F01D00120D1E723
:100C20000020CFE70438024000004742800E4742D0
:100C3000007000400000FFFF10B5401EB0F1807F43
:100C400001D3012010BD4FF0E02460610F21601737
:100C500001F043FB0020A06107202061002010BDAF
:100C600010B590F83C20012A22D0012280F83C20C7
:100C7000CA688C6822F4407222434C6822F4806275
:100C800022430C6822F4006222430C6922F4805251
:100C900022434C6922F400522243C969002322F402
:100CA00080420A4301684A6480F83C30002010BD4D
:100CB000022010BD70B590F83C20012A32D00124EA
:100CC00080F83C40022280F83D2003685A689D6805
:100CD00022F070060A6832435A60134B02689A4247
:100CE00014D0B2F1804F11D0104B9A420ED0104B5D
:100CF0009A420BD00F4B9A4208D00F4B9A4205D024
:100D00000E4B9A4202D00E4B9A4204D1496825F00C
:100D100080031943916080F83D40002180F83C1029
:100D2000084670BD022070BD000001400004004074
:100D300000080040000C0040000401400040014059
:100D40000018004010B586B0044614216846FFF72D
:100D500081FA0E492068884216D10D4800210268A8
:100D600042F010020260006800F0100005904FF49D
:100D7000206000900220CDE901010120CDE903109F
:100D800069460448FFF714FB06B010BD000001409F
:100D9000303802400010024070B5044690F83C0024
:100DA00000260D4601280FD0012084F83C006AB1CE
:100DB000042A1DD0082A2FD00C2A3FD0012600205B
:100DC00084F83C00304670BD022070BD206800F001
:100DD00093FE2068816941F0080181612068816982
:100DE00021F004018161206881692A69114311E0C1
:100DF000206800F0B1FE2068816941F400618161E2
:100E00002068816921F480618161206881692A6993
:100E100041EA02218161D2E7206800F0D3FE206818
:100E2000C16941F00801C1612068C16921F0040174
:100E3000C1612068C1692A69114311E0206800F08E
:100E4000F5FE2068C16941F40061C1612068C16993
:100E500021F48061C1612068C1692A6941EA0221E7
:100E6000C161ACE710B5040003D094F83D0010B1A7
:100E700007E0012010BD002084F83C00204600F06F
:100E80001FF8022084F83D00211D206800F0CCFDF1
:100E9000012084F8460084F83E0084F83F0084F87E
:100EA000400084F8410084F8420084F8430084F84C
:100EB000440084F8450084F83D00002010BD000087
:100EC00008B500680649884208D10648016841F023
:100ED00001010160006800F00100009008BD000001
:100EE000000001404438024070477047F8B501687F
:100EF00004460868CA684B6910F00F0F4FF00005F0
:100F000059D003F0010602F49077374365D0C1074A
:100F100005D0D10503D5616C41F001016164410741
:100F200005D5D90703D0616C41F0020161648107E6
:100F300005D5D90703D0616C41F004016164010754
:100F400007D502F02001314303D0616C41F0080164
:100F50006164616C00293AD0800604D5900602D500
:100F6000204600F0BFFE20684069616CC0F380102D
:100F7000090700D460B3204600F08DFE2068406968
:100F8000400621D52068143050E8001F21F04001B0
:100F900040E80012002AF5D1E06BA8B17249016562
:100FA000E06BFFF7E0F9002811D0E06B016D01B0B4
:100FB000BDE8F040084783060FD593060DD52046BF
:100FC000BDE8F84000F08EBE2046FFF78EFFF8BD6A
:100FD0002046FFF78AFF6564F8BD266B2023012EAB
:100FE0007ED1C6067CD5D6067AD5086848680090BA
:100FF00048694FF0020640064DD5E26B1068406824
:101000004FF480770004000C3AD0A18D814237D98B
:10101000E085D069B8422DD020680C3050E8001F20
:1010200021F4807140E80012002AF5D120681430C4
:1010300050E8001F21F0010140E80012002AF5D11C
:101040002068143050E8001F21F0400140E80012F1
:10105000002AF5D184F84230256320680C3050E82E
:10106000001F21F0100140E80012002AF5D1E06BCA
:10107000FFF730F96663A08DE18D401A81B206E07A
:10108000A18D8142A8D1D069B842A5D1666320461E
:10109000FFF72AFFF8BDA08DE18D401A81B2E08DE7
:1010A0000028F7D00029F5D020680C3050E8002F38
:1010B00022F4907240E80027002FF5D12068143008
:1010C00050E8002F22F0010240E80027002FF5D160
:1010D00084F84230256320680C3050E8002F00E08F
:1010E00006E022F0100240E80023002BF3D1CDE708
:1010F00005062BD5150629D594F841002128C9D11C
:10110000A068B0F5805F01D12069B0B1206A411CB0
:101110002162216800784860E08C401E0004000CC9
:10112000E084B7D12068C16821F08001C1602068E7
:10113000C16841F04001C160F8BD206A0088C0F379
:1011400008004860206A801C2062E5E74006F3D56D
:101150005006F1D5CA68204622F04002CA6084F8E1
:10116000413000F0C7FAF8BD891C000870B50400D2
:1011700004D094F84100002510B106E0012070BDB4
:1011800084F84050204600F023F8242084F84100E1
:101190002068C16821F40051C160204600F004FEBF
:1011A0002068016921F4904101612068416921F0C2
:1011B0002A0141612068C16841F40051C160656441
:1011C000202084F8410084F842006563002070BD4F
:1011D0002DE9F04F87B0044614216846FFF73AF82E
:1011E0006648654B26680021644A103802240325AE
:1011F000DFF88CB14FF4406C4FF008099E421FD1CC
:10120000136843F400231360126802F4002205926D
:10121000026842F004020260006802AB00F00400C1
:10122000059083E82202CDE900C469465846FFF7DD
:10123000BFF8002211463420FFF72AFA342029E0B3
:101240004E4BDFF840811B1D0727DFF83CA14645C8
:1012500025D11A6842F010021A601A6802F01002D2
:101260000592026842F001020260006802AA00F0E2
:101270000100059082E8A2004FF4C060CDE90004AF
:1012800069465046FFF794F8002211462520FFF7E3
:10129000FFF92520FFF7EEF907B0BDE8F08FDFF882
:1012A000EC80464520D1136843F400331360126884
:1012B00002F400320592026842F001020260006806
:1012C00002AB00F00100059083E8A2000C20CDE9FC
:1012D000000469465046FFF76BF8002211462620AD
:1012E000FFF7D6F92620D5E7DFF8A48046451FD1C1
:1012F000136843F480231360126802F4802205927D
:10130000026842F002020260006802AB00F00200D4
:10131000059083E8A200CDE900C469461D48FFF7A7
:1013200047F8002211462720FFF7B2F92720B1E73E
:10133000194A9642B0D11A6842F020021A601A681F
:1013400002F020020592026842F004020260006886
:1013500002AA00F00400059082E82202C020CDE934
:10136000000469465846FFF723F80022114647203B
:10137000FFF78EF947208DE7004C004040380240CF
:1013800000080240001001400000024000440040FC
:1013900000480040000402400014014090F8423030
:1013A000202B01D00220704721B11AB10023036322
:1013B00000F080BD012070472DE9F0410068A1498F
:1013C00088426ED1A04CA048E41F0F2221780078FB
:1013D0004B1C0026DFB2042905D2AA2801D02670B2
:1013E0006BE0277069E00D1F062D63D29649C91F77
:1013F000062D4B7861D2DFE805F0030612474A5507
:1014000088B126706670022810D00D2817D00F28DA
:101410001DD0102822D0142828D02670667068B3FA
:101420002670667031E00521217038E00221E170FC
:101430002178491C21706178891C617040E00D2081
:10144000E0702078401C207060780D30D3E0E270AE
:101450002078401C207060780F30CCE01020E070C5
:101460002078401C207060781030C4E01420E070B8
:101470002078401C207060781430BCE02178491C32
:1014800021706178617018E040B12670667020713B
:101490002178491C217061780144F3E7277063705B
:1014A0000BE0CDE0217901EB002121710A212170AF
:1014B0001918E7E70A2900D16671E178022971D18C
:1014C000617900296ED1217809296BD95F4DBE2938
:1014D00076D2A1F10A0393FBF2F702FB1732D7B2DF
:1014E000594AA771D21F0F2F937803EB830267D25B
:1014F000DFE807F0080B12161D21272E34383C4276
:10150000494F590025F8220046E035F8223003EB18
:10151000002325F822303FE005EB820250803BE0BB
:1015200005EB8202538803EB0023538034E005EB84
:101530008202506030E005EB8202536803EB002327
:1015400004E005EB8202536803EB0043536023E0A1
:1015500005EB8202536803EB0063F7E705EB8202B9
:10156000107219E005EB8202D06015E005EB8202F3
:10157000D36803EB002304E005EB8202D36803EB9E
:101580000043D36008E005EB8202D36803EB0063FD
:10159000F7E705EB820210826278491C0244627010
:1015A00021700DE045E005EB8202491C178A5B1CA7
:1015B00007EB002717826278024462702170A370E3
:1015C000C9B2BF290DD0204AD21FC02952690BD001
:1015D000C12912D0C22915D0C32918D0BE2926D0BE
:1015E00027E0C021606103E002EB00216161C121BD
:1015F00021706178084460701BE002EB004161617A
:10160000C221F5E702EB00616161C321F0E7617877
:10161000884204D100F080FEA089401CA081288867
:10162000E0816670267001206071A67001E0BF2025
:101630002070BDE8F041012203490548FFF7AEBE26
:10164000BDE8F081004C00402B0000207405002014
:101650008C0000202DE9F843044690F8410098469C
:1016600016460D46202802D00220BDE8F88385B139
:101670007EB100206064212084F84100FEF79AFFCB
:10168000A6848146E684A0682027B0F5805F02D05A
:1016900003E00120E9E7206910B12E4600250EE0A5
:1016A00000260CE08021204600F01FFCA8B9C6B13E
:1016B00016F8010B21684860E08C401EE084E08C45
:1016C0004B464FF00002CDF800800028EAD14FF0E1
:1016D0004001204600F009FC40B184F8417003202D
:1016E000C3E735F8020BC0F30800E3E784F8417064
:1016F0000020BAE77047FEE72DE9F04186B01421DB
:101700006846FEF7A7FD26480024016841F08001E5
:101710000160016801F080010591016841F0040158
:101720000160016801F004010591016841F00101C7
:101730000160016801F001010591016841F01001AB
:101740000160016801F010010591016841F002019A
:1017500001600068134F00F0020005900022022192
:101760003846FEF722FFDFF8408000220221404683
:10177000FEF71BFF022501260095CDE901646946AD
:1017800038460394FEF714FE0095CDE901646946DE
:1017900040460394FEF70CFE06B0BDE8F081000061
:1017A00030380240000802400000024010B592B0FC
:1017B00000240F941C2168461094FEF74BFD202155
:1017C00007A8FEF747FD25482349016040F28F61D5
:1017D000C0E901144FF6FF71C0E90314446184614C
:1017E000FFF740FB08B1FEF773FD0F940FA91B48EC
:1017F0001094FFF75FFA08B1FEF76AFD6020CDE9AB
:10180000000402940394049405940022694613484A
:101810000694FFF7C1FA08B1FEF75AFD04226946A3
:101820000E48FFF7B9FA08B1FEF752FD0794089485
:1018300009944FF400500A94CDE90B4007A90748DA
:101840000E94FFF70DFA08B1FEF742FD0348FFF7CB
:1018500079FA12B010BD00000000014044000020E1
:101860000C4810B50A4901604FF461314160002114
:1018700081600C22C160C0E904128161C161FFF77F
:1018800075FC08B1FEF724FDBDE8104000F020BF54
:10189000004C00408C0000200C4810B50A49016043
:1018A0004FF4E1314160002181600C22C160C0E948
:1018B00004128161C161FFF759FC002803D0BDE823
:1018C0001040FEF705BD10BD00100140D4000020FF
:1018D0000C4810B50A4901604FF4E1314160002124
:1018E00081600C22C160C0E904128161C161FFF70F
:1018F0003DFC002803D0BDE81040FEF7E9BC10BD58
:10190000004400401C0100200C4810B50A49016049
:101910004FF4E1314160002181600C22C160C0E9D7
:1019200004128161C161FFF721FC002803D0BDE8EA
:101930001040FEF7CDBC10BD0048004064010020FF
:101940000C4810B50A4901604FF4E13141600021B3
:1019500081600C22C160C0E904128161C161FFF79E
:1019600005FC002803D0BDE81040FEF7B1BC10BD57
:1019700000140140AC010020FEE7FEE7704770470D
:10198000FEF71EBE30B593B030216846FEF762FC0C
:1019900014210CA8FEF75EFC1D480025016841F0EB
:1019A00080510160006800F0805011901948016872
:1019B00041F4804101600068022400F480401190ED
:1019C0000120039010200490009406940820CDE993
:1019D0000750A820CDE9090404200B906846FEF7C3
:1019E00075FF08B172B6FEE70CA90F2081E831003F
:1019F0004FF4A0500F904FF48050109005210CA888
:101A0000FEF778FE002801D072B6FEE713B030BDB5
:101A100040380240007000400248016841F4700103
:101A20000160704788ED00E0F0B50268274B284D53
:101A3000284E294F294C4FF0804C984209D06045E0
:101A400007D0A84205D0B04203D0B84201D0A0428E
:101A500004D122F0700E4A6842EA0E0298421BD06E
:101A6000604519D0A84217D0B04215D0B84213D063
:101A7000A04211D01A4DA8420ED01A4DA8420BD048
:101A8000194DA84208D0194DA84205D0184DA842BA
:101A900002D0184DA84203D122F44075CA682A43E7
:101AA0004D6922F080022A438D68C5620D68856207
:101AB000984201D0A04201D109690163016841F057
:101AC00004010160012141610260F0BD000001409C
:101AD0000004004000080040000C004000040140E9
:101AE000004001400044014000480140001800400F
:101AF000001C004000200040F0B5036A026A22F09A
:101B00000102026242688469124E24F073050C6877
:101B10002C4323F002058B682B430D4DA84201D0C6
:101B2000B04205D123F00807CB683B4323F0040300
:101B3000A84201D0B04205D14D6922F4407215434C
:101B40008A692A4342608461496841630362F0BD47
:101B50000000014000040140F0B5026A036A23F06E
:101B600010030362436884690D6824F4E64444EA80
:101B700005248D6822F0200242EA05120F4D104E16
:101B8000A84201D0B04206D1CF6822F0800242EADA
:101B9000071222F04002A84201D0B04207D14D699D
:101BA00023F4406343EA85038D6943EA8503436078
:101BB0008461496881630262F0BD00000000014059
:101BC00000040140F0B5026A036A23F480730362E3
:101BD0004368C46922F4007224F073050C68124E45
:101BE0002C438D6842EA05220E4DA84201D0B04236
:101BF00006D1CF6822F4006242EA072222F4806212
:101C0000A84201D0B04207D14D6923F4405343EAC2
:101C100005138D6943EA05134360C4614968C163D4
:101C20000262F0BD000001400004014030B5046ACA
:101C3000026A22F4805202624268C3690D6823F48A
:101C4000E64343EA05238D6824F4005444EA05344E
:101C5000084DA84202D0084DA84204D14D6922F493
:101C6000804242EA85124260C361496801640462AD
:101C700030BD000000000140000401400148FFF7B2
:101C800035B900008C00002010B5806B0021C185A3
:101C9000FFF72BF910BD01680C3151E8002F22F439
:101CA000907241E80023002BF5D10168143151E80E
:101CB000002F22F0010241E80023002BF5D1016B37
:101CC000012909D101680C3151E8002F22F01002DE
:101CD00041E80023002BF5D1202180F8421000219B
:101CE0000163704708B590F84210222901D0022004
:101CF00008BD82684FF480539A4201D1016921B135
:101D0000816A9A421BD04AB10AE00268816A52682D
:101D1000C2F308020A80816A891C08E0026972B174
:101D20000268526802F07F020A70816A491C81626F
:101D3000C18D491E0904090CC18503D01BE002684E
:101D40005268F1E70168CA6822F02002CA6001689F
:101D5000CA6822F48072CA6001684A6922F00102EE
:101D60004A61202180F8421000214163026B012A60
:101D700003D0FFF721FB002008BD016301680C318F
:101D800051E8002F22F0100241E80023002BF5D18A
:101D900001680A68D20602D50A6849680091818DF7
:101DA000FFF7A2F8E7E7000070B504460068016994
:101DB000E26821F44051114301612169A068E269A0
:101DC00008436169114308432168CA6849F20C63FA
:101DD0009A430243CA6020684169A26921F44071B4
:101DE0001143416131492068884202D0304988421C
:101DF00002D1FEF729FD01E0FEF716FDE26900239E
:101E0000192164253226B2F5004F626828D0A0FB64
:101E10000101930F9200FEF7D3F90146B0FBF5F0F4
:101E20006FF01802504301EB800006EB0010B0FB8E
:101E3000F5F000F0F002B1FBF5F002EB0012B1FB9F
:101E4000F5F06FF01803584301EB800006EB00102B
:101E5000B0FBF5F000F00F0021681044886070BD01
:101E6000A0FB010192185B41FEF7AAF90146B0FB05
:101E7000F5F00201B1FBF5F06FF01803584301EBE8
:101E8000800006EBC000B0FBF5F000F0F80002EBBC
:101E90004002B1FBF5F0584301EB800006EBC000B7
:101EA000B0FBF5F000F00700D6E70000001001409D
:101EB0000014014081628285C28500214164222193
:101EC00080F84210016921B10168CA6842F4807249
:101ED000CA6001684A6942F001024A610068C1684B
:101EE00041F02001C160002070472DE9F843984679
:101EF00017460D460446089E24E0701C22D0FEF7CB
:101F000059FBA0EB0800B0421AD8CEB12068C168D6
:101F1000490717D5802D15D0402D13D00168C9432E
:101F200009070FD401680025406800902046FFF79C
:101F3000B2FE0820606484F840500120BDE8F883B8
:101F40000320FBE72068006835EA000004D0002089
:101F5000B842D2D00020F1E70120F9E72DE9FC4199
:101F60003B48006801683B4E3B4D89060AD54068F6
:101F70008DF800009DF8001070682954401C7060B6
:101F8000BDE8FC810168C906FAD540688DF80000FB
:101F90002878AA2852D1687855284FD195F87D0025
:101FA0005D284BD1AF780024DFF8B0803FE000BF60
:101FB00015F8142005EB440128F824204B7808EB91
:101FC0008401002C4B8031DD31F804CC0020A2EBE1
:101FD0000C02002A02DD4FF0B4000AE009DB31F800
:101FE000020CA3EB0000002802DD4FF4877000E034
:101FF0005A20AA218DF8001055218DF801100421D6
:102000008DF80210611E8DF8031032218DF8041036
:10201000010A8DF805108DF806005D208DF8070087
:102020006423082269460E48FFF714FB641CBC4277
:10203000BEDB012202210B48FEF7B7FA0020014661
:10204000726801E02954401C9042FBDD716097E703
:10205000D400002010000020F401002074040020AF
:102060001C010020000802401A4882B0016808687C
:10207000820619480BD549688DF800109DF800308C
:10208000164A91684354491C916002B070470A682F
:10209000D206FAD549688DF800100178AA29F4D142
:1020A00041785529F1D1C1785D29EED18078FF289A
:1020B0000AD00B49094A31F82030103201EB800078
:1020C000138040885080E0E700220221054802B0DA
:1020D000FEF76BBA1C010020F40200201000002063
:1020E000740400200008024070B52E4888B00068D3
:1020F00001682D4D2D4C89060AD540688DF80000E9
:102100009DF80010E8682154401CE86008B070BDDC
:102110000168C906FAD540688DF8000020780026CD
:10212000AA2835D16078552832D1E0785D282FD1A2
:10213000012202211E48FEF738FAA0788DF8080027
:1021400019481CA310300DF1100C01788DF80910FE
:1021500080788DF80A000D208DF80B000A208DF88C
:102160000C000FCB8CE80F0064230F2204A9154844
:10217000FFF770FA42F2107000960099491C009126
:102180008142FADB6423052202A90E48FFF762FAB6
:102190000020E96801E02654401C8842FBDDEE6027
:1021A000B4E7000064010020100000207403002048
:1021B0000000024041542B43495053454E443D35A5
:1021C0000D0A0000D400002070B5404886B00068B9
:1021D0000168890673D540688DF808003C4D0026DB
:1021E0003C4C287802281FD260B19DF80810552970
:1021F00011D09DF8081044290DD09DF808103329FE
:1022000009D00FE09DF80800AA2809D19DF8080020
:102210002070012003E09DF808102154022028704E
:1022200006B070BD2E70FBE7294A61781278521C07
:10223000D2B2552906D0442901D03329F0D107283C
:1022400002D322E00B2804D29DF8081021542A70F2
:10225000E6E700204FEA0D0104EB40029378D278C4
:1022600042EA032201EB40035A705A22424301F82A
:102270001020401C0428EFDB084600F0ADF90020D8
:102280002654401C0B28FBDBCCE7124A442950881B
:10229000928802D0332907D00AE040BA51BA00B27E
:1022A00009B200F0F3F903E040BA51BA00F0CCF9FA
:1022B00000202654401C0B28FBDBB3E7FFE7016836
:1022C000C906ADD540688DF80800A9E7AC0100202B
:1022D00010000020F4030020FEE70907090E002883
:1022E00004DB00F1E02080F80014704700F00F00DC
:1022F00000F1E02080F8141D704702E008C8121FAA
:1023000008C1002AFAD170477047002001E001C1DE
:10231000121F002AFBD170472DE9F047DFF894A087
:102320002549002000EB80093AF929C0BCF1000FD3
:102330001FD0B1F80A800AEB890508F10108A1F85D
:102340000A809444B5F802806CF30F0208EB124C3B
:102350006CF31F42D5F804C0664495F808C09C444D
:102360006CF30703D5F80CC02D8A6744254465F348
:102370000F04401CC0B20C28D4D34889002817D0C1
:1023800015B295FBF0F5120CB2FBF0F2CD810A828A
:10239000B6FBF0F28A61DAB2B2FBF0F20A72B7FB76
:1023A000F0F2CA6122B292FBF0F04882002048812C
:1023B000BDE8F0877405002024000020494910B5CD
:1023C0000868A6B0C26842F02002C2600868C1680E
:1023D00041F01001C16044490868C26842F020021F
:1023E000C2600868C16841F01001C1603F490868D7
:1023F000C26842F02002C2600868C16841F0100162
:10240000C1603B490868C26842F02002C2600868A7
:10241000C16841F01001C16036A312AC0FCB84E853
:102420000F0038A222AB07CA83E80700202238A198
:102430000AA8FDF7F6FE3EA116AC0FC984E80F000E
:102440003FA01AAC0FC884E80F00282240A16846BC
:10245000FDF7E7FE48A31EAC0FCB84E80F00642312
:102460000E2212A91F48FFF7F5F84FF47A742046A0
:10247000FDF78CFF6423092222A91A48FFF7EAF826
:102480002046FDF783FF642320220AA91548FFF7A1
:10249000E1F82046FDF77AFF64230E2216A91148C1
:1024A000FFF7D8F840F6B830FDF770FF64230F222D
:1024B0001AA90C48FFF7CEF841F28830FDF766FF05
:1024C0006423272269460748FFF7C4F82046FDF732
:1024D0005DFF64230D221EA90248FFF7BBF826B05A
:1024E00010BD0000D40000201C0100206401002069
:1024F000AC01002041542B43574D4F44453D310D15
:102500000A00000041542B5253540D0A00000000F1
:1025100041542B43574A41503D226573703832363F
:1025200036222C223636363636363636220D0A001C
:1025300041542B4349504D55583D300D0A00000081
:1025400041542B4349504D4F44453D310D0A000045
:1025500041542B43495053544152543D225443500B
:10256000222C223139322E3136382E342E31222C83
:10257000383038360D0A000041542B43495053453A
:102580004E440D0A00000000FEF722F8FFF7FAF9AA
:10259000FFF7B2F8FFF780F9FFF79AF9FFF7B4F900
:1025A000FFF7CEF9FFF75CF9FFF700F9FFF706FF39
:1025B000084C4FF47A7502212046FDF7F1FF0128FF
:1025C000F9D12846FDF7E2FE002202212046FDF760
:1025D000ECFFF0E7000002407CB50446AA208DF82D
:1025E000000055208DF8010006208DF8020000251E
:1025F0008DF8035060788DF804008DF80550E07870
:102600008DF806005D208DF807004FF6FF76334603
:10261000082269460B48FFF71DF807208DF80200D5
:102620008DF8035060798DF804008DF80550E0793D
:102630008DF806003346082269460248FFF70AF87B
:102640007CBD00001C0100201CB5AA228DF80020D2
:1026500055228DF8012008228DF80220020A8DF8FB
:102660000400080A8DF805008DF806105D208DF82D
:1026700003208DF807004FF6FF73082269460248D1
:10268000FEF7E8FF1CBD00001C0100201CB5AA22BB
:102690008DF8002055228DF8012002228DF80220AD
:1026A000020A8DF80400080A8DF805008DF806105E
:1026B0005D208DF803208DF807004FF6FF73082288
:1026C00069460248FEF7C6FF1CBD00001C01002041
:1026D000012202490248FEF761BE00002B000020E3
:1026E0008C00002000000000000000000102030434
:1026F0000607080900000000010203041C27000867
:102700000000002044000000FA22000860270008B2
:1027100044000020240A00000A23000801000000F1
:1027200010000000000000000024F4000000000081
:102730000000000000000000000000000000000099
:102740000000000000010000000000000000000088
:102750000000000000000000000000000000000079
:040000050800018965
:00000001FF
