:020000040800F2
:1000000090F9002045010008171C0008051A000897
:10001000151C0008FF090008511F0008000000001F
:100020000000000000000000000000001B1C000891
:10003000150B000800000000191C00081D1C00081A
:100040005F0100085F0100085F0100085F01000810
:100050005F0100085F0100085F0100085F01000800
:100060005F0100085F0100085F0100085F010008F0
:100070005F0100085F0100085F0100085F010008E0
:100080005F0100085F0100085F0100085F010008D0
:100090005F0100085F0100085F0100085F010008C0
:1000A0005F0100085F0100085F0100085F010008B0
:1000B0005F0100085F0100085F0100085F010008A0
:1000C0005F0100085F0100085F0100085F01000890
:1000D0005F010008A31E00085F010008A51E0008BC
:1000E0005F0100085F0100085F0100085F01000870
:1000F0005F0100085F0100085F0100085F01000860
:100100005F0100085F0100085F0100085F0100084F
:100110005F0100085F010008811C00085F01000802
:100120005F0100085F0100085F0100085F0100082F
:10013000DFF80CD000F014FC00480047ED5F020827
:1001400090F900200648804706480047FEE7FEE792
:10015000FEE7FEE7FEE7FEE7FEE7FEE7FEE7FEE777
:100160007F1C0008310100082DE9F05F05460020E2
:1001700092469B4688460646814640241BE0284618
:1001800041464746224600F020F853465A46C01AD8
:10019000914110D311461846224600F07FFA2D1ADD
:1001A00067EB01084F4622460120002100F076FA55
:1001B00017EB00094E41201EA4F10104DFDC484684
:1001C00031462A464346BDE8F09F202A04DB203A08
:1001D00021FA02F00021704721FA02F3D040C2F167
:1001E0002002914008431946704740EA01039B07EB
:1001F00003D009E008C9121F08C0042AFAD203E09C
:1002000011F8013B00F8013B521EF9D27047D2B2FF
:1002100001E000F8012B491EFBD270470022F6E7EF
:1002200010B513460A4604461946FFF7F0FF20466C
:1002300010BD421C10F8011B0029FBD1801A704729
:1002400010B5002200E0521C835C8C5CA34201D1FB
:10025000002BF8D1D8B2E1B2401A10BD034611F814
:10026000012B00F8012B002AF9D118467047F0B491
:1002700080EA0102D40F4200B2EB410F02D20246E3
:10028000084611464A0042D0C30DDDB2C1F3C75241
:10029000AD1A202D35DAC1F3160141F4000204B184
:1002A0005242C5F1200602FA06F12A411044B3EB8E
:1002B000D05F23D0C4B1012DA0EBC35009DCF0BC4A
:1002C0004FF0004202EAC352DBB200F5000000F03A
:1002D000FDB9400000F1807000EBC350A0F18070C8
:1002E00040EAD170490009E0490841EAC071A0EB39
:1002F000C35000F50000400800EBC350F0BC00F014
:10030000DCB96142012202EB4101001BF6E7F0BCBF
:10031000704781F00041AAE780F00040A7E730B4C1
:1003200080EA010202F0004530F0004221F0004076
:1003300013D090B1C30DD40DC2F31601C0F3160053
:10034000E41A41F4000140F400027D34914201D3EB
:10035000641C00E04900002C02DA30BC0020704729
:100360004FF400000023914201D3891A034340084F
:100370004FEA4101F7D151B1914202D14FF0004112
:1003800005E002D24FF0010101E06FF0010103EB43
:10039000C450284430BC00F090B92DE9FE4F81EAEA
:1003A000030404F0004421F0004100944FF0000BDE
:1003B00023F0004350EA01045ED052EA03045BD00C
:1003C000C3F30A54C1F30A552C44A4F2F334019444
:1003D000A0FB0254C1F3130141F48011C3F31303D2
:1003E00043F4801301FB024400FB034E840A970A86
:1003F00044EA815447EA8357A4FB076802958D0AB3
:1004000005FB07854FEA932C04FB0C542705029D3E
:100410004FEA065847EA1637B5EB08056EEB070CAE
:10042000870E920E47EA811742EA8312A7FB020168
:10043000B6EB0B0164EB00042B0D43EA0C335E18A2
:1004400044EB1C50DA465146E7FB0201C5F31304A6
:100450004FEA0B3343EA14534FEA0432019C43EA58
:100460000603A4F10C040294009CCDE900B400F052
:100470006AF903B0BDE8F08F00200146F9E72DE9E5
:10048000F04D81EA030404F0004B21F000451446CE
:100490004FF0000A23F0004150EA050220D054EA50
:1004A00001021DD0C5F30A570246C5F31303C1F379
:1004B0001300C1F30A5640F4801543F48013A7EBF0
:1004C0000608101BD64608F2FD3873EB050002D370
:1004D00008F1010801E092185B41B8F1000F03DA5E
:1004E00000200146BDE8F08D00204FF48011064643
:1004F00084460EE0171B73EB050705D3121B63EB55
:10050000050306434CEA010C49084FEA30009218F3
:100510005B4150EA0107EDD152EA030012D082EAB2
:10052000040083EA0501084305D0101BAB4106D245
:100530000122002306E000224FF0004302E06FF0AA
:10054000010253101AEB06004CEB085110EB0A00A5
:1005500041EB0B01BDE8F04D00F0E6B8C10F80EAB9
:10056000E0700844CA079623002100F0AFB8962334
:100570000022114600F0AAB80EB5C10F80EAE07063
:100580000844CA07002140F233438DE80E000A46B2
:100590000B4600F0D8F803B000BD0EB540F2334171
:1005A00002910021CDE900110A460B4600F0CBF87C
:1005B00003B000BD20F00040C10DC0F3160040F4B0
:1005C00000007F2901DA00207047962903DCC1F181
:1005D0009601C8407047963988407047C1F30A5267
:1005E00010B5C1F3130140F2FF3341F480119A4278
:1005F00001DA002010BD40F233439A42A2F23342A6
:1006000003DC5242FFF7E1FD10BD904010BD000039
:1006100030B5041E71F1000404DB4FF00044404289
:1006200064EB0101141E73F1000405DB1C464FF05E
:100630000043524263EB04038B4208BF824230BD49
:1006400030B5041E71F1000404DB4FF00044404259
:1006500064EB0101141E73F1000405DB1C464FF02E
:100660000043524263EB0403994208BF904230BDFD
:1006700030B50B46014600202022012409E021FA72
:1006800002F59D4205D303FA02F5491B04FA02F56F
:100690002844151EA2F10102F1DC30BD202A04DB42
:1006A000203A00FA02F1002070479140C2F1200385
:1006B00020FA03F31943904070470029A8BF704700
:1006C000401C490008BF20F00100704710B4B0FA88
:1006D00080FC00FA0CF050EA010404BF10BC704723
:1006E00049B1CCF1200421FA04F411FA0CF118BF3D
:1006F000012121430843A3EB0C01CB1D4FEA00610C
:100700004FEA102042BF002010BC704700EBC350DE
:1007100010440029A4BF10BC7047401C490008BF0A
:1007200020F0010010BC704710B5141E73F10004D6
:1007300008DA401C41F1000192185B411A4301D1D3
:1007400020F0010010BD2DE9F04D92469B4611B1FD
:10075000B1FA81F202E0B0FA80F220329046FFF75F
:100760009DFF04460F4640EA0A0041EA0B0153464A
:100770005A46084313D0114653EA010019D0C8F174
:1007800040025046FFF721FD05460E4650465946A9
:100790004246FFF783FF084305D0012004E02046CE
:1007A0003946BDE8F08D0020054346EAE0762C434B
:1007B00037430A986305E40AA0EB08000022FD0A0B
:1007C00044EA47540A3002D500200146E9E7010512
:1007D00010196941DDE9084500196941BDE8F04D8E
:1007E000A2E72DE9FE4F804681EA0300C00F0C46C8
:1007F000009021F0004123F00045B8EB0200A94130
:1008000005D24046214690461C460B46024623F040
:100810000040104347D0270DC7F30A00C3F30A5125
:100820000290401A019040286BDAC3F3130040F4A1
:10083000801B0098924620B10023D2EB030A63EBA1
:100840000B0B01985946C0F140025046FFF726FFB6
:1008500006460D4650465946019A00F093F810EBB3
:1008600008006141002487EA115284EAE7731A43C1
:1008700040D0009A62B3019A012A4FEA075215DC70
:10088000001B61EB02014FF0004202EA0752CDE982
:100890000042001C41F5801132462B46FFF753FF02
:1008A00003B0BDE8F08F40462146F9E7001B61EB3D
:1008B0000201001C41F5801300185B412018A2F5CD
:1008C000001747EB030140EAD570B6196D4111E0FE
:1008D0006D084FEA360645EAC0754FEA0752001B1D
:1008E00061EB0201001C41F5801149084FEA30001C
:1008F0000019514132462B4603B0BDE8F04FFFF7D7
:1009000013BF0098012240000023D0EB020263EBEA
:10091000E073009821464FEAE074B8EB000061EB09
:100920000401E9E783F000435BE781F0004158E709
:10093000C1F30A52C1F3130140F2FF3341F48011B5
:100940009A4202DA00200146704740F233439A424D
:10095000A2F2334202DC5242FFF737BCFFF79EBEE1
:10096000064C074D06E0E06840F0010394E80700FC
:1009700098471034AC42F6D3FFF7DEFB5CDE030889
:100980007CDE0308202A06DBCB17203A41FA02F06E
:1009900043EAE07306E041FA02F3D040C2F12002DC
:1009A000914008431946704770B58C1810F8015BE8
:1009B00015F0070301D110F8013B2A1106D110F8F8
:1009C000012B03E010F8016B01F8016B5B1EF9D1FC
:1009D0002B0705D40023521E0DD401F8013BFAE782
:1009E00010F8013BCB1A921C03E013F8015B01F8ED
:1009F000015B521EF9D5A142D8D3002070BDFEE79D
:100A00002DE9FF4F92B00646D0F83C111F98994649
:100A10009246814268D0DFF8F8B000253C485BF888
:100A20002510103001EB0A0750F82510092F01EBB3
:100A3000090468D2002C66DB072C64DAC7EBC70810
:100A400006EB880050F82400E8BB08EB06002044C1
:100A5000119090F8FC00B0BB00210DF1040E0020B5
:100A6000C1EBC1039A19734402EB000C9CF8FCC063
:100A700003F800C0401C0728F6DB491C0929EEDBFF
:100A8000704608EB000201211155CDF800E0D6F8C0
:100A90003C111F9822460B1A394630465B1E10F057
:100AA000E9FA80B11398D0F8F81140F83170139832
:100AB000D0F8F81100EBC100446013981399D0F8F6
:100AC000F801401C00E01EE0C1F8F8011199012076
:100AD000234681F8FC001F983A46401C009030469F
:100AE0001399FFF78DFF18B1012016B0BDE8F08F04
:100AF00013981399D0F8F801401EC1F8F801119825
:100B0000002180F8FC106D1C042D87DB0020ECE731
:100B10007C460308704772B6FEE7000030B5B3F5B7
:100B2000804F05D06FF0704140F82210002030BD9A
:100B30008C690B688D6823434C688989240144EAD9
:100B40000524234343EA014150F82230014C23405D
:100B50001943E9E70000F0CF10B50A6850F82230D9
:100B600023F0010340F822308C68082C23D00023A6
:100B70004A682243CC681C430B6922431A434B69E1
:100B80000E4C1A43CB691A430B6A1A434B6A1A4339
:100B90008B6A1A43CB6A1A430B6B1A438B69134354
:100BA0004A6B09681A4350F82130A343134340F8B5
:100BB0002130002010BD4023DAE700007FFF0F0046
:100BC00030B5D1E9003443EA04138C688D892402DE
:100BD00044EA054423430C8A074D00EB820005EBF1
:100BE000045423430C7D6D0105EB046489692343A0
:100BF0000B434360002030BD0000F0FF70B5044699
:100C000000F054F90546601C02D004480078044402
:100C100000F04CF9401BA042FAD370BD1400002034
:100C200030B585B0002000900190029003901748E5
:100C30000168002927D1012101601548416941F46B
:100C4000807141614069022400F48070049041F297
:100C50000100CDE900040325694603950D4800F025
:100C60001FF84FF68070CDE90004694603950A48E5
:100C700000F016F84CF23370CDE900046946039594
:100C8000064800F00DF805B030BD00000800002057
:100C900000100240002001400018014000140140F3
:100CA0002DE9F84FDFF8C8910024A9F1040B234681
:100CB0000F2709F1040AABF1040ED1E00125A5408C
:100CC00006EA0502AA4276D1DFF8A8C14E68A6EB73
:100CD0000C0866452BD00DDC032E34D005DC36B372
:100CE000012E19D0022E2FD11BE0112E16D0122E5C
:100CF0002AD119E0B8F5881F19D006DCB8F5803F75
:100D000015D0B8F5801F1FD111E0B8F5001F0ED027
:100D1000B8F5041F18D10AE0CB6815E0CB681B1D9D
:100D200012E0CB6808330FE0CB680C330CE08B6823
:100D30002BB1012B4FF0080303D0456104E00423DD
:100D400002E0056100E00023FF2A01D8064601E029
:100D500000F104064FEA840501D9A5F12005D6F873
:100D6000008007FA05FC28EA0C0803FA05F548EAB2
:100D70000508C6F800804D68ED0070D53E4DAE699F
:100D800046F00106AE61AD6924F0030605F00105E9
:100D900000953A4D06EB050CDCF80850A607360F17
:100DA00007FA06F825EA0805DFF8D480404503D1A4
:100DB0004FF0000825E052E0DFF8C880404502D13E
:100DC0004FF001081DE0DFF8C080404502D14FF030
:100DD000020816E0DFF8B480404502D14FF0030866
:100DE0000FE0DFF8AC80404502D14FF0040808E086
:100DF000DFF8A080404502D14FF0050801E04FF038
:100E0000060808FA06F848EA0508CCF808804D6894
:100E1000D9F80060ED024D4601D5164300E0964337
:100E20002E604D68DAF80060AD02554601D51643D4
:100E300000E096432E604D68DBF80060AD035D4630
:100E400001D5164300E096432E604D68DEF8006041
:100E5000ED03754601D5164300E096432E60641CF1
:100E60000A681646E2407FF429AFBDE8F88F00001B
:100E70000804014000001110001002400000014071
:100E800000080140000C0140001001400014014026
:100E900000180140001C01408068084000D001207B
:100EA00070470AB1016170470904FBE70148806897
:100EB0007047000014000020024881680278114445
:100EC0008160704714000020074810B5016841F0A8
:100ED00010010160032000F075F80F2000F006F803
:100EE00000F024F8002010BD0020024070B50D4D28
:100EF00004464FF47A712878B1FBF0F00A4909688A
:100F0000B1FBF0F000F010FB48B9102C07D2002222
:100F10002146501E00F036F800206C6070BD0120A4
:100F200070BD000014000020200000200C4808B50F
:100F3000816941F001018161816901F00101009144
:100F4000C16941F08051C161C06900F080500090DA
:100F50000448416821F0E06141F00071416008BD42
:100F60000010024000000140002809DB00F01F02D1
:100F7000012191404009800000F1E020C0F80011FB
:100F800070470000F0B40E4B1B680C46C3F30223FD
:100F9000C3F10705042D00D90425191D072901D225
:100FA000002300E0DB1E012606FA05F1491E214060
:100FB00099409E40761E16403143F0BC00F0DEBFE3
:100FC0000CED00E0064900F0070208684FF6FF0349
:100FD000184040EA0220034A1043086070470000AE
:100FE0000CED00E00000FA052DE9F0470F46050082
:100FF00061D0434E306800F00700B84209D2306833
:1010000020F0070038433060306800F00700B84235
:1010100051D128683B4C810712D5400703D5606841
:1010200040F4E06060602878000703D5606840F411
:10103000605060606068A96820F0F000084360605C
:101040002878C00728D06868012810D021680228B5
:1010500010D0890700292EDA616821F003010143CD
:101060006160FFF723FF804641F288390DE0216877
:101070008903EFE78901EDE7FFF718FFA0EB08010F
:10108000494502D90320BDE8F0876068696800F02F
:101090000C00B0EB810FEFD1306800F00700B842D0
:1010A0000BD9306820F0070038433060306800F01A
:1010B0000700B84201D00120E5E72878400705D5B0
:1010C0006068E96820F4E060084360602878000701
:1010D00006D56068296920F4605040EAC10060606C
:1010E00000F038F86168084AC1F30311515CC84048
:1010F0000649086006480068FFF7F8FE0020C2E7CE
:101100000020024000100240680403082000002074
:10111000180000200448054900684968044AC1F3E2
:101120000221515CC840704720000020001002409E
:10113000780403080448054900684968044AC1F373
:10114000C221515CC84070472000002000100240BE
:10115000780403080E4A51680E4801F00C03042B72
:1011600011D0082B0FD10C48C1F38343C903C05CD5
:101170000AD55168084AC1F34041921E515C054AA4
:101180005043B0FBF1F070470449484370470000FA
:101190000010024000127A005804030800093D00C4
:1011A0002DE9F84F040070D02078C04DC00749D019
:1011B0006868C0F38100012807D06868C0F3810027
:1011C000022809D16868C00306D52868800339D58C
:1011D00060680028E7D035E06068B0F5803F0BD04C
:1011E00010B1B0F5A02F11D0286820F4803028600D
:1011F000286820F4802002E0286840F480302860CD
:10120000606890B1FFF752FE06460AE0286840F495
:1012100080202860F0E700BFFFF748FE801B6428AD
:1012200073D828688003F7D50CE0FFF73FFE064629
:1012300005E000BFFFF73AFE801B6428F0D828685D
:101240008003F7D420789A4E80074FF001094FF0C1
:10125000000839D5686810F00C0F07D06868C0F333
:101260008100022809D16868C00306D42868800775
:1012700014D52069012808D110E02069B0B1C6F862
:101280000090FFF713FE074605E00AE1FFF70EFEA8
:10129000C01B0228C4D828688007F7D52868616970
:1012A00020F0F80040EAC10028600DE0C6F8008098
:1012B000FFF7FCFD074604E0FFF7F8FDC01B02281E
:1012C00023D828688007F7D4207800072CD57948E0
:1012D000A169D9B1C0F80090FFF7E8FD074604E026
:1012E000FFF7E4FDC01B02280FD8686A8007F7D516
:1012F00071484FF4FA510068B0FBF1F0009000BF64
:101300000098411E0091FAD20EE080E0C0F8008003
:10131000FFF7CCFD074604E0FFF7C8FDC01B02281D
:1013200075D8686A8007F7D42078400760D5E869E7
:101330000027C00008D4E86940F08050E861E869FF
:10134000012700F0805000905C480168C90513D463
:101350000168834641F480710160FFF7A7FD824672
:1013600006E000BFFFF7A2FDA0EB0A0064284ED8FC
:10137000DBF80000C005F5D5E06801280AD008B107
:10138000052813D0286A20F001002862286A20F07E
:10139000040002E0286A40F001002862E06841F29F
:1013A000883B98B1FFF782FD82460BE0286A40F047
:1013B00004002862EEE700BFFFF778FDA0EB0A010A
:1013C00059455AD8286A8007F6D50CE0FFF76EFD1C
:1013D000824605E0FFF76AFDA0EB0A0159454CD8AB
:1013E000286A8007F6D41FB1E86920F08050E861D0
:1013F000E06988B36968C1F38101022944D00228F9
:10140000C6F8608004D0FFF751FD044638E034E0B0
:10141000FFF74CFD074604E0FFF748FDC01B02281C
:101420002BD828688001F7D4206AB0F5803F05D119
:101430006868A16820F4003008436860D4E90801B6
:101440000843696821F4741108436860C6F8609025
:10145000FFF72CFD044606E025E000BFFFF726FD60
:10146000001B022809D828688001F7D51BE000BFBF
:10147000FFF71CFD001B022802D90320BDE8F88FEE
:1014800028688001F4D40EE00128F7D06868226A49
:1014900000F48031914204D1616A00F470108842F6
:1014A00001D00120EAE70020E8E700000010024038
:1014B00000004242800442422000002000700040B0
:1014C00070B515460E46040007D0A069B0F5807FC0
:1014D00003D094F8410010B107E0012070BD002056
:1014E00084F84000204600F01DF804F1080120684F
:1014F000FFF732FB3146A2682068FFF761FBD4E9B1
:1015000001022946236BFFF709FBA168206850F808
:10151000212042F0010240F82120012084F84100FE
:10152000002070BDFFF77CBB10B5401EB0F1807F7E
:1015300001D3012010BD4FF0E02460610F2160173E
:1015400000F01CFD0020A06107202061002010BDDC
:101550007047704770B590F83C20012A2CD00124C8
:1015600080F83C40022280F83D2003685A689D685C
:1015700022F070060A6832435A60104B02689A42A1
:101580000ED00F4B9A420BD0B2F1804F08D00D4BCA
:101590009A4205D00C4B9A4202D00C4B9A4204D18D
:1015A000496825F080031943916080F83D4000218F
:1015B00080F83C10084670BD022070BD002C014030
:1015C000003401400004004000080040000C0040CE
:1015D00010B5040003D094F83D0010B107E00120DD
:1015E00010BD002084F83C00204600F01FF80220C7
:1015F00084F83D00211D206800F048FB012084F89C
:10160000460084F83E0084F83F0084F8400084F8E7
:10161000410084F8420084F8430084F8440084F8D0
:10162000450084F83D00002010BD000008B50068AA
:101630000B49884212D10B48C16941F01001C161C8
:10164000C069002200F01000009011463620FFF71C
:1016500099FCBDE808403620FFF786BC08BD0000B5
:10166000001000400010024090F83D10012901D008
:1016700001207047022180F83D100168CA6842F0DD
:101680000102CA6000680E4988420ED00D498842A6
:101690000BD0B0F1804F08D00B49884205D00B49E0
:1016A000884202D00A49884204D1816801F00701CA
:1016B000062903D0016841F0010101600020704754
:1016C000002C0140003401400004004000080040AC
:1016D000000C004070472DE9F04104460068C668E0
:1016E00005694FF00007A90713D5B10711D5F91EF9
:1016F000016101202077206880698007204602D0A0
:10170000FFF7E8FF04E000F07EF8204600F07CF8E8
:101710002777680716D5700714D521686FF0040085
:101720000861022020772068806910F4407F2046FD
:1017300002D0FFF7CFFF04E000F065F8204600F08C
:1017400063F82777280715D5300713D521686FF080
:1017500008000861042020772068C06980072046BF
:1017600002D0FFF7B7FF04E000F04DF8204600F08C
:101770004BF82777E80616D5F00614D521686FF0E8
:1017800010000861082020772068C06910F4407FAD
:10179000204602D0FFF79EFF04E000F034F8204618
:1017A00000F032F82777E80708D0F00706D0216864
:1017B0006FF001000861204600F028F8280608D5DF
:1017C000300606D521686FF0800008612046FFF7DB
:1017D000BFFE680608D5700606D521686FF0400088
:1017E0000861204600F01CF8A8060AD5B00608D506
:1017F00021686FF0200008612046BDE8F041FFF746
:10180000A8BEBDE8F081704770470000006803493A
:10181000884202D1012023F0EDBE70470010004045
:10182000704770B5040004D094F84100002510B151
:1018300006E0012070BD84F84050204600F024F8F6
:10184000242084F841002068C16821F40051C1605F
:10185000204600F091FA2068016921F4904101616D
:101860002068416921F02A0141612068C16841F482
:101870000051C1606564202084F8410084F8420072
:101880006563002070BD000070B586B00024009430
:1018900001940294039403682E482D4E02210322E2
:1018A0000515B34226D1836943F48043836183697C
:1018B00003F480430493836943F0040383618069E4
:1018C000254E00F0040004900802CDE900010392C7
:1018D00069463046FFF7E4F9CDE9005469463046E1
:1018E0000294FFF7DDF9002211462520FFF74AFB9D
:1018F000252028E0194EB34227D1C36943F4802341
:10190000C361C36903F480230493836943F008032C
:1019100083618069CDE9005100F00800CDE9032022
:101920000F4D69462846FFF7BBF9E814CDE90004DE
:10193000694628460294FFF7B3F900221146272092
:10194000FFF720FB2720FFF70FFB06B070BD00005C
:1019500000380140001002400008014000480040EB
:10196000000C01402DE9F843044690F841009846E8
:1019700016460D46202802D00220BDE8F88385B126
:101980007EB100206064212084F84100FFF78EFAC8
:10199000A6848146E684A0682027B0F5805F02D047
:1019A00003E00120E9E7206910B12E4600250EE092
:1019B00000260CE08021204600F03AFAA8B9C6B112
:1019C00016F8010B21684860E08C401EE084E08C32
:1019D0004B464FF00002CDF800800028EAD14FF0CE
:1019E0004001204600F024FA40B184F84170032001
:1019F000C3E735F8020BC0F30800E3E784F8417051
:101A00000020BAE7FEE7000000B58FB01C21684651
:101A1000FEF704FC1C2107A8FEF700FC1B484FF052
:101A20002041102201601A49416006218160002195
:101A3000C160C0E904128161C16113020162C0E9A1
:101A400009139302C0E90B13416381630F20CDE9B1
:101A500000100DF1080C11238CE80F000691CDE960
:101A600007100DF1240C01208CE80F000D9107AA3E
:101A700069460648FFF724FD08B1FFF74CF8054812
:101A8000C16941F48061C1610FB000BD6C050020E7
:101A9000040100A000000140F0B585B000252C48ED
:101AA0000095019502950395816941F0400181619E
:101AB000816901F040010491816941F0080181616F
:101AC000816901F008010491816941F480718161AB
:101AD000816901F480710491816941F02001816183
:101AE000816901F020010491816941F00401816163
:101AF0008069184E00F00400049001222021304635
:101B0000FFF7CFF9144F002240F201113846FFF7DA
:101B1000C8F9202001248DE83100022569463046AD
:101B20000395FFF7BDF80094694638460194CDE966
:101B30000245FFF7B5F82002CDE900040320CDE906
:101B4000024069463846FFF7ABF805B0F0BD00002B
:101B50000010024000180140000C01401CB5002498
:101B60000F4800940D49019401604721C0E9011418
:101B700040F2E731C16080218161FFF729FD08B1A2
:101B8000FEF7C9FF0094694605480194FFF7E2FC9F
:101B9000002801D0FEF7BFFF1CBD00000010004070
:101BA000B40500200C4810B50A4901604FF4E1313A
:101BB0004160002181600C22C160C0E90412816192
:101BC000C161FFF72EFE002803D0BDE81040FEF7EC
:101BD000A2BF10BD00380140FC0500200C4810B524
:101BE0000A4901604FF4E1314160002181600C221B
:101BF000C160C0E904128161C161FFF712FE0028D3
:101C000003D0BDE81040FEF786BF10BD004800407D
:101C100044060020FEE7FEE770477047FFF74CB927
:101C200030B58FB028216846FEF7F8FA14210AA8CB
:101C3000FEF7F4FA01210804CDE900100024029413
:101C400002250491CDE907504FF4E0100990684651
:101C5000FFF7A6FA08B172B6FEE70F20CDE90A0534
:101C60004FF48060CDE90C4002210AA80E94FFF7E2
:101C7000BBF9002801D072B6FEE70FB030BD704747
:101C80000148FFF728BD0000B4050020F0B5026848
:101C9000204C214D214E224F224B4FF0804CA04230
:101CA00009D0984207D0604505D0A84203D0B04281
:101CB00001D0B84204D122F0700E4A6842EA0E0206
:101CC000A04209D0984207D0604505D0A84203D071
:101CD000B04201D0B84203D122F44075CA682A4309
:101CE0004D6922F080022A4302608A68C2620A6853
:101CF0008262A04201D0984201D1096901630121A9
:101D000041610169C90703D0016921F00101016145
:101D1000F0BD0000002C014000040040000800401D
:101D2000000C00400034014001680C3151E8002FE4
:101D300022F4907241E80023002BF5D101681431A0
:101D400051E8002F22F0010241E80023002BF5D1D9
:101D5000016B012909D101680C3151E8002F22F0F3
:101D6000100241E80023002BF5D1202180F8421019
:101D7000002101637047000070B5044600680169E6
:101D8000E26821F44051114301612169A0680843D0
:101D9000616908432168CA6841F20C639A430243AF
:101DA000CA6020684169A26921F440711143416110
:101DB0001E492068884202D1FFF7BCF901E0FFF715
:101DC000A9F900EBC00101EB0012606864218000FA
:101DD000B2FBF0F3B3FBF1F36FF018067343B2FB01
:101DE000F0F5B2FBF0F605EB8305322303EB0515A6
:101DF000B5FBF1F5B6FBF1F605F0F00505EB0615C0
:101E0000B2FBF0F6B2FBF0F0B0FBF1F06FF01802AD
:101E1000504306EB800003EB0010B0FBF1F02168AB
:101E200000F00F002844886070BD000000380140B9
:101E30002DE9F843984617460D460446089E24E0CF
:101E4000701C22D0FFF732F8A0EB0800B0421AD87D
:101E5000CEB12068C168490717D5802D15D0402D17
:101E600013D00168C94309070FD4016800254068F1
:101E700000902046FFF758FF0820606484F8405027
:101E80000120BDE8F8830320FBE72068006835EAFD
:101E9000000004D00020B842D2D00020F1E7012099
:101EA000F9E7704738B5254800680168244D254C8E
:101EB000890609D540688DF800009DF80010286853
:101EC0002154401C286038BD0168C906FBD5406814
:101ED0008DF80000A0782B281FD1E07849281CD16C
:101EE000E07A392819D8302817D3207B392814D81C
:101EF000302812D3607B39280FD830280DD3002228
:101F000020211148FEF7CDFFE07A8DF80000607BBC
:101F10008DF80100684625F083FD6423802209497D
:101F20000A48FFF71FFD002001462A6801E02154FE
:101F3000401C9042FBDD296038BD000044060020B3
:101F4000100000208C06002000180140FC05002035
:101F5000FEE700000FB4084B10B504A902AA0398CD
:101F600001F0D2FC044602A9002002F064F82046E9
:101F700010BC5DF814FB0000374000080907090E8B
:101F8000002804DB00F1E02080F80014704700F026
:101F90000F0000F1E02080F8141D704702E008C82F
:101FA000121F08C1002AFAD170477047002001E0D3
:101FB00001C1121F002AFBD1704770B504460025ED
:101FC0006FF02F0608E02068411C2160007805EBC7
:101FD000850106EB410145182068007800F0C6F83D
:101FE0000028F0D1284670BD2DE9FF5F82B00021A6
:101FF000DDE90430020DDDF840B0034318D044F6AB
:102000001050A2F2FF3242431514119801281FD03C
:10201000A5EB0B00401C5FEA000A4FF000064E4F94
:10202000DFF83891B046504615D5CAF1000413E0E8
:10203000119801244AA3012801D16FEA0B010298EB
:10204000119AC0E90031C0E9024206B0BDE8F09F34
:10205000CBF10000DFE704460021404A491842EB7B
:102060000450CDE9001012E0E00707D032463B46AD
:1020700040464946FEF791F98046894632463B463E
:1020800010461946FEF789F906460F466410002CE3
:10209000EAD1DDE90401DDE90023BAF1000F06DA37
:1020A000FEF77BF942464B46FEF777F905E0FEF76F
:1020B000E6F942464B46FEF7E2F904460E46002298
:1020C000284BFEF7BDFA03D84FF0FF30014607E07A
:1020D0000022254B20463146FEF783FBFEF728FC05
:1020E000102409E0002C0ADB0A220023FEF73CF84A
:1020F000039B30321A55641E50EA0102F2D1641C6F
:10210000039AC4F111031444119A012A03D0012245
:1021100008430DD10AE0084304D000204FF0110B12
:10212000119072E7A3EB0B056D1E0DE05B4504DD1E
:102130004FF0000205F1010504E003DA4FF0000260
:10214000A5F10105002AECD002981199C0E90231ED
:10215000C0E9004579E70000000014400000F03FAE
:10216000300000000000F0430000E03F3038092854
:1021700001D80120704700207047000010B54421AD
:10218000074800F082FE00221E21064823F08CFA48
:10219000054CA06002F0E6FA0020207010BD00009F
:1021A0008808002019480008900100202DE9F04718
:1021B0000E46814617461146304600F011F90028B8
:1021C0007ED000223946304600F0B6F800284FF0A5
:1021D000000076D1B6F904C0B6F90030F288ACEB55
:1021E00003010FFA81FAB6F90210B7F80280521A09
:1021F000A8EB01080FFA88F812B2B8F1000F0EDD53
:1022000063F30F046CF30F0501EB080061F31F4447
:1022100060F31F45C9F800400120C9F80450B7F920
:1022200006107388CB1AD21A12B2002A13DDB6F93F
:10223000063099420FDA338863F30F04B38861F3F1
:102240001F4463F30F05114461F31F4509EBC001FF
:10225000401C0C604D60B7F90220B6F902108A42AA
:1022600000DD1146B7F90630B6F90620934200DAD0
:102270001A463B88B6F900C0521AA3EB0C031BB2F6
:1022800012B2002B10DD002A0EDD634463F30F054C
:102290008B1863F31F456CF30F0409EBC00361F364
:1022A0001F441C605D60401CB7F904703388FE1A3F
:1022B000AAEB06031BB2002B11DD67F30F0401E04C
:1022C0000FE00CE061F31F443B4463F30F0511443E
:1022D00061F31F4509EBC001401C0C604D60BDE877
:1022E000F0874FF0FF30FAE770B5B1F90030B2F97E
:1022F0000040A34200DC23460380B1F90250B2F94A
:102300000240A54200DD2C464480B1F90460B2F9D8
:102310000450AE4200DA35468580B1F90610B2F9B4
:102320000620914200DB1146C1800120AB4201DC56
:102330008C4200DD002070BDF8B50D460446B0F9B2
:102340000000B1F900101646884247DBB4F90210CC
:10235000B5F90220914241DBB4F90410B5F904202B
:1023600091423BDCB4F90610B5F90620914235DC08
:1023700096B3ADF800006088ADF8020032466946B9
:10238000284600F099F8002827D0A088ADF8000072
:102390006088ADF8020032466946284600F08CF8A5
:1023A00000281AD02088ADF80000E088ADF80200BF
:1023B00032466946284600F07FF800280DD0A088F4
:1023C000ADF80000E088ADF80200324669462846C4
:1023D00000F072F8002800D00120F8BD0020F8BD00
:1023E000B0F90020B1F904309A4213DCB0F90420AE
:1023F000B1F900309A420DDBB0F90220B1F9063094
:102400009A4207DCB0F90600B1F90210884201DBFC
:102410000120704700207047F8B50D460446B0F91A
:102420000400B1F900101646884243DBB4F90600F7
:10243000B5F9021088423DDBB4F90000B5F904108B
:10244000884237DCB4F90210B5F90620914231DC3C
:1024500076B3ADF800006088ADF8020032466946F8
:10246000284600F029F818BBA088ADF80000608865
:10247000ADF8020032466946284600F01DF8B8B9AA
:102480002088ADF80000E088ADF8020032466946C9
:10249000284600F011F858B9A088ADF80000E0888F
:1024A000ADF8020032466946284600F005F808B14A
:1024B0000020F8BD0120F8BD2DE9FC4114460E4670
:1024C000B1F90020B0F9001005468A423ADBB5F9AF
:1024D0000400824236DCB6F90270B5F90220974258
:1024E00030DBB5F906309F422CDC002C75DD401A3C
:1024F0009A1A401C521C00B212B200EBD07002EBD0
:10250000D27240105210904200DB1046844200DD2F
:102510000446ADF80010288800222044ADF80400DD
:102520006888ADF80200688831462044ADF806009E
:102530006846FFF7C1FF40B1BDF804002044ADF884
:1025400004003FE00020BDE8FC81E8880022001B79
:10255000ADF80200E888ADF8060031466846FFF79E
:10256000ABFF28B1BDF804002044ADF8040011E031
:10257000A8880022001BADF80000A888ADF8040070
:1025800031466846FFF798FF50B1BDF80000001BC8
:10259000ADF80000BDF80200001BADF8020016E027
:1025A0006888ADF80200688800222044ADF8060073
:1025B00031466846FFF780FF70B1BDF80000001B90
:1025C000ADF80000BDF806002044ADF80600314625
:1025D000684620F0FBFAB6E7FFE70120B3E710B545
:1025E000B1F90040B2F900309C4200DA2346038082
:1025F000B1F90240B2F902309C4200DA234643802E
:10260000B1F90440B2F904309C4200DD23468380D6
:10261000B1F90610B2F90620914200DC1146C180E2
:1026200010BD0000F8B5074622F0DAFF0025374C50
:102630000646009537B1F8686060384623F002F925
:10264000606802E015F068FB6060006920F0BAF98C
:102650006068406908B120F0B5F96068C06920F091
:10266000B1F96068006A20F0ADF96068016991B164
:1026700020F062FB25F064F824F08EFD6068B0F86D
:102680005011D9B30068017CC9071DD0C0684068EB
:10269000D0B1002713E0A0F85051F8BDC11991F84E
:1026A000301151B900F5AC7000F046FC616801EBE7
:1026B000C7010A6B0260496B41607F1CBFB2606852
:1026C000B0F85011B942E9D860684FF480713030E9
:1026D0001BF08EFD6068202100F598701BF088FDCE
:1026E0006068A0F85051304622F074FF0090606896
:1026F0000068436A13B12268009998471BF0F6FB03
:1027000000F032F8BDE8F84000F002B850000020B8
:1027100070B50A4D002400BFC4EBC40655F826006E
:1027200008B11BF057FC05EB86001C211BF060FD77
:10273000641CE4B2042CEFD370BD000064090020D7
:10274000084949680AE04A68824202D00A6882421F
:1027500003D10A7E42F001020A7649690029F2D1CA
:102760007047000024000020704700000421014849
:1027700000F08BBB7C0800202021014800F085BBC5
:10278000940800202DE9FF410446DDE90A671D0099
:102790004FF0000002D1B6F5807F2BD0039001905E
:1027A0000290ADF80C100090ADF80410ADF80A20BE
:1027B000ADF80E203B4632462946684620F066F9C1
:1027C0003B463246294601A820F060F93B46324696
:1027D000294602A820F05AF93B463246294603A86A
:1027E00020F054F9BDF90000BDF90430984209DA2F
:1027F000054608E02080491E6080A180521EE280CC
:10280000BDE8FF811D46BDF90820BDF90C108A42C4
:1028100001DA164600E00E46B54203DA984206DBBE
:10282000184604E08A4201DA104600E00846801E9D
:102830002080BDF90030BDF90420934201DD1D4622
:1028400000E01546BDF90800BDF90C10884201DD15
:10285000064600E00E46B54205DD934201DD19460D
:1028600004E0114602E0884200DD0146891CA18097
:10287000BDF90230BDF90620934201DA1D4600E0A1
:102880001546BDF90A00BDF90E10884201DA064668
:1028900000E00E46B54205DA934201DA194604E03B
:1028A000114602E0884200DA0146891E6180BDF9C6
:1028B0000230BDF90620934201DD1D4600E01546B9
:1028C000BDF90A00BDF90E10884201DD064600E0A0
:1028D0000E46B54205DD934201DD194604E011467E
:1028E00002E0884200DD0146891CE18088E70000A3
:1028F0002DE9F04115460E460746114C22F070FEB8
:1029000080462B4632463946204619F0CDFB20B191
:102910000020A062E06950B110E02C2120461BF09D
:1029200067FC4FF00040A0620020BDE8F081404607
:1029300022F050FEE06108B90120E0612046F4E792
:10294000B808002010B51421074800F09EFA19F0CD
:1029500071FB40B10549016005494160054981604D
:102960000549C16010BDFEE7A00800200DBA0108AE
:1029700089BD010855BF0108D9B9010870B50D46D8
:102980000446102128461BF033FC206800780128FB
:1029900004D0022807D0042807D008E0A08A2880A5
:1029A000E08A688003E0E06800E00A206860206850
:1029B0004268002A03D02946BDE87040104770BD28
:1029C0002DE9FE430446808A10B9E08A002873D0BE
:1029D000D4F82C805FEA080010D120460BF041F8B3
:1029E0005FEA000868D020460EF0C8F800220921EE
:1029F000404618F05DFA607880075DD44FF4807926
:102A000000274E464546002128461EF06DF8384402
:102A100007B2002128461EF085F8C11700EB1160AF
:102A20000012704306B228461DF05CF80500EAD19A
:102A30000FB94E450CD0784201B24FF4803090FB74
:102A4000F6F002B26B4604F11400009520F01EF877
:102A5000ADF80450ADF8085094F8400000F00F00B5
:102A60000328404616D01DF08FF9064640461DF05B
:102A700045F803460C200090B4F916103246404643
:102A80000AF082FBADF8080040461DF089F8C10746
:102A900013D018E01DF00CF9064640461DF0A8F8CA
:102AA000024603200090B4F91410334640460AF061
:102AB0006BFBADF80400E7E736E0BDF90410002930
:102AC00001DDADF80450810705D4BDF904100029DB
:102AD00001DAADF80450410705D4BDF9081000290A
:102AE00001DDADF80850000705D4BDF90800002845
:102AF00001DAADF8085002AA01A9204625F0D4FA5F
:102B0000BDF90820BDF90410404600F08AFA60784B
:102B1000800709D4208BBDF8041008442083608B03
:102B2000BDF8081008446083BDE8FE832DE9FC5F12
:102B30000446C06A5FEA000B71D094F840000007B9
:102B40006DD019F043FD019000684021457E584644
:102B50001EF014F94FF0000818B9A4F81E80A4F86C
:102B60001C8058461DF002F9824658461DF005F9B2
:102B7000064694F840004FF0640900F00F000C285E
:102B800002D003284CD09AE0A4F81C8056B1B4F9C6
:102B90001E50002719F01AFD0068407EC0F1640144
:102BA000484622E0B4F91E00C5F16401484390FB99
:102BB000F9F0E08358461CF0A1FF054658461DF089
:102BC000E3F802460C200090B4F91E102B4658463C
:102BD0000AF0DAFAE083024600231EE07A1917B2FF
:102BE00001FB05F292FBF0F215B2002DF6D1ADF823
:102BF0000070A4F81E806A460021204625F054FA91
:102C000041F6FF72BDF90030514258460BF0C0F852
:102C1000BDF800100123084402B200214CE09AE004
:102C2000A4F81E80BAF1000F0AD0B4F91C50002796
:102C300019F0CCFC00684946407EC0F1640022E0F7
:102C4000B4F91C00C5F16401484390FBF9F0A0837E
:102C500058461CF0CDFF054658461DF029F803469E
:102C600003200090B4F91C102A4658460AF08CFA4A
:102C7000A083014600231EE07A1917B200FB05F27B
:102C800092FBF1F215B2002DF6D1ADF80070A4F868
:102C90001C8000226946204625F006FA41F6FF72A4
:102CA000BDF90030514258460AF0EAFFBDF8001065
:102CB0000123084401B2002258461FF07FF9A08B7F
:102CC000002848D1E08B002845D1C6B958461DF0F0
:102CD0005BF8054658461CF011FF002D06DC002865
:102CE0000DDD002D02DA01232A4604E0002806DA71
:102CF0000123404202B2002158461FF05FF9BAF1A9
:102D0000000F19D158461CF073FF054658461CF0B9
:102D1000CFFF002D07DC00280EDD002D03DA012394
:102D20000022294605E0002806DA0123002240425D
:102D300001B258461FF042F90A215846019A18F08C
:102D4000B7F86078800706D414F8400F20F00F0021
:102D5000207044F8148CBDE8FC9F7FB50E4604003B
:102D600003D114F0D9FF04002CD015F049F8002845
:102D700028D094F82800400724D4002506B3ADF8E5
:102D80000050ADF80250204614F0DEFF401EADF8B2
:102D90000400204615F01EF8401EADF806006A46F5
:102DA000314602A8FFF7A0FA00280BD02068017C6A
:102DB000890708D5DDE90001C4E90C01012029E0FB
:102DC000A4F850517FBD82690AB102A9904700263C
:102DD0000AE004EBC601002202A83031FFF7ACFA8A
:102DE0000028EFD1761CB6B2B4F85001B042F0D84A
:102DF00080B2202804D204EBC00002A9303004E0E5
:102E0000A4F8505104F13000694612F035FDB4F8D1
:102E10005001401CA4F8500160680028D2D022F074
:102E20001DFD7FBD70B5054600F012F804460CE0AC
:102E30002146284600F01EF806462146284600F0A6
:102E4000A2F820461BF0C6F83446002CF0D170BD25
:102E5000002800D04068704700B503460022FFF705
:102E6000F7FF03E01846521C00F004F80100F9D106
:102E7000104600BD0068091D405870470068405862
:102E80007047002800D08068704700224260C91C4B
:102E900021F0030182600160704770B5044600684C
:102EA00008301BF00BF8050013D001460022204625
:102EB00023F002FD29462046626823F0F7FC616892
:102EC00019B12A46204623F0F7FC6560A06800B9D6
:102ED000A560284670BD2DE9F0410C4606000AD0D9
:102EE0004CB1FFF7B5FFA04208D13046FFF7D5FF40
:102EF000051E01D01EE00020BDE8F08130680830DA
:102F00001AF0DCFF051EF7D030682A460759304614
:102F1000394623F0CBFC3A462946304623F0CCFC18
:102F20002A462146304623F0C7FC22462946304631
:102F300023F0BCFC2846DFE770B504460068083083
:102F40001AF0BCFF050013D001460022204623F0F2
:102F5000ADFC29462046A26823F0AEFCA16819B159
:102F60002A46204623F0A2FCA560606800B965608F
:102F7000284670BD28B1416809B9806808B10020B1
:102F800070470120704770B504000DD0FFF760FF57
:102F900000228842204608D1FFF76CFF6060011EC6
:102FA00001D000221EE0A26070BDFFF76AFF8842D8
:102FB000206808440AD10168A16029B12046BDE813
:102FC0007040002223F072BC626070BD056820462C
:102FD000FFF750FF064602462946204623F066FCCE
:102FE0002A4631462046BDE8704023F065BC10B546
:102FF0000446006882680AB121469047206800684C
:10300000002801D02060F5E710BD8068002801D0BD
:10301000B0F9160070478068002801D0807E8009D2
:10302000704770B5164605460C4651EA06001AD0A0
:1030300028461BF043FEA86801233246018A21443A
:103040000182A868418A31444182214628461EF007
:103050000DFA00220B21284617F02AFF012803D180
:1030600028461EF05DF9012070BD77B581B00E468F
:10307000050017D062221DF065FC040012D0206804
:1030800080B12846314663221DF05CFC10F0FF023F
:1030900008D023682046039998470090BDF80000A7
:1030A000ADF80C00039804B070BD00002DE9F047A6
:1030B000074692B0408C1A9E40F0040078849046F7
:1030C0003A8499468A46328938461DF03BFC0546CB
:1030D000A7F820903289514638461DF033FC04464B
:1030E000788CA54220F00400788403D12904B1EB48
:1030F000044F68D0A7F820803289514638461DF029
:1031000021FC05468046A7F82090514638460CF031
:1031100001FA318900682A4621F0BAF830890B2873
:1031200023D147F6FF794D4501D04C451DD1384696
:103130001DF0DBFD00EBD070451038461CF091FC13
:1031400000EBD0704010C84506D1691C431C994261
:1031500000DA00E0194688464C4506D1691C421C3D
:10316000914201DA6C1C00E014461948FFF795FE05
:1031700005002BD02F60C5E903843089A8806846FC
:10318000C5F808A011F08EFE1248FF21CDE90050CD
:10319000114802901148039000200890CDE90901E0
:1031A00030880B9070889DF8421040420C90F06877
:1031B0000790002060F300018DF8421030690690FE
:1031C000684611F0E3FE12B0BDE8F087FEE70000AC
:1031D000AC0800202DCD020819CF020875CE0208D8
:1031E00014210148FFF751BEAC0800202DE9F84F2B
:1031F00000259046894606462C460427E5E000BF98
:10320000F16807EBC400085882017AD480B230EA32
:10321000090211D05FF0000230EA08000ED0002051
:1032200082426ED051F834A06A461021504620F0F8
:1032300091FD002871D103E00122EDE70120EFE7C5
:103240006A461121504620F085FD002865D16A4666
:103250001221504620F07EFD00285ED16A461321DF
:10326000504620F077FD002857D16A461521504678
:1032700020F070FD002850D16A461421504620F0FD
:1032800069FDE8BB6A460A21504620F063FDB8BBE1
:103290006A466B21504620F05DFD88BB6A466C2172
:1032A000504620F057FD58BB6A460121504620F099
:1032B00051FD28BB6A460421504620F04BFDF8B969
:1032C0006A460221504620F045FDC8B96A460321EE
:1032D000504620F03FFD98B96A460521504620F03F
:1032E00039FD68B96A460621504620F033FD38B9E9
:1032F0006A463221504620F02DFD08B96A4601E0A9
:103300000BE061E06E21504620F024FD28B96A46AA
:103310006D21504620F01EFD10B10320BDE8F88F4E
:103320006A466921504620F015FDE8BB6A466A21CD
:10333000504620F00FFDB8BB6A466E21504620F083
:1033400009FD88BB6A466D21504620F003FD58BB3D
:103350006A463721504620F0FDFC28BB6A463821DA
:10336000504620F0F7FCF8B96A463521504620F067
:10337000F1FCC8B96A464021504620F0EBFC98B9F0
:103380006A464521504620F0E5FC68B96A4641216D
:10339000504620F0DFFC38B96A464221504620F002
:1033A000D9FC08B96A4600E00AE04321504620F003
:1033B000D1FC28B96A464921504620F0CBFC08B11F
:1033C000022501E005B90125641C708CC0F3C5001D
:1033D000A0423FF615AF2846A0E70000014840682C
:1033E00070470000500000207047C0F30410072809
:1033F00000D9072070470000A0F57F41FF3905D0B4
:10340000002804D0712803D208490AE01F20704721
:103410000749713880B2096829B1064A526890425A
:1034200001D2085C70470020704700001C4403086C
:10343000BC010020D001002010B518210348FFF77F
:1034400024FD03490120087010BD00005808002029
:10345000D80100202DE9F04190460C46050015D01A
:10346000FCF7E7FE0A4F06462146BA682846904711
:103470000446BA682819414690470146701A03E08D
:103480006218AA5C2A55641CA042F9D2BDE8F081FA
:10349000EC0100202DE9F041094D90460E466A6886
:1034A0001C46074619469047306020B120686A687C
:1034B000384400219047C8F80000BDE8F0810000C2
:1034C000EC0100202DE9F04F87B08A46DDE9105865
:1034D0001F4693460446002105B129805CB120783F
:1034E000002809D0BAF1000F05D0002618F0060F09
:1034F00015D0002004E0002007B0BDE8F08F401C8C
:10350000215C0A2904D00D2902D00029F7D100E05E
:10351000401C002DF0D04FF0FF312980ECE75FEA2E
:10352000887001D541F6FF77894608468DF814105A
:10353000049127E00498CDF8189068B34FF0000C80
:1035400005AA06ABCDF80CC0CDF80080CDE901325C
:1035500020443B465A46514622F0C2FA06997A1A4E
:10356000314417B20EB288B1049901440491207815
:103570000A280BD00D2809D0605C0A280FD00D282E
:103580000DD00846205C08B1002FD3DC049848B168
:1035900005B12E800498AFE74FF0010CD0E7481C2E
:1035A0000490F3E7064A04A9204652689047002D8C
:1035B000F0D001460022504617F08EFD06B2E8E733
:1035C000EC0100202DE9F0411746884606001ED088
:1035D000002F1CD0FCF72DFE04463846FCF729FED0
:1035E000050014D00B4A2C4441469268304690475F
:1035F000411903E0621BB25C3255641EA142F9D945
:1036000030442A463946BDE8F0411AF0B3BDBDE862
:10361000F0810000EC01002000230278232902D071
:10362000012A0DD00FE02AB10021012A04D0022A7C
:1036300004D008E0012101E0017004E0017001E024
:10364000202902D00123184670470221F6E72DE910
:10365000F0410E468046024600213346084622F0DD
:103660007DFC04460027401C1AF028FC050008D009
:103670002F5533464246611C22F070FC2846BDE8B7
:10368000F081FEE72DE9F0471E4614460D468246BE
:10369000DDF8209015E000BF4FEA540808FB0657FC
:1036A000394650464A469047002808DD44F300005A
:1036B000C0EB540407EB0605A4F1010401E005DAB0
:1036C0004446002CE8D12046BDE8F0873846FBE7A9
:1036D0002DE9FC5F9B460CAB8A468146DDE9116013
:1036E00093E81210DDE90F575FEA80784FF030035E
:1036F0001AD45EB15FEAC07808D000F00C0858EA2E
:103700000C0803D0761E01E00B55641CBC4204D2A9
:10371000202CF9D301E00B55641C5FEAC07803D07C
:10372000B44201D2202CF6D35FEAC06825D55FEA07
:1037300040580AD44CB1BC4201D0B44205D1641EF9
:1037400003D0102D03D1641E04E0102D02D0022DF1
:103750000AD00EE0850603D4202C1ED2782506E080
:10376000202C1AD2582502E0202C16D262250D55A5
:10377000641C202C11D20B55641C202C0DD2BCF1E2
:10378000000F01D02D2306E0430701D52B2302E0D3
:10379000030702D520230B55641CCDE900BAC846A7
:1037A000154681468B46AA46800714D1274607E076
:1037B0002A46DDE900316D1C2020C446E0477F1C0D
:1037C000B742F5D307E02A466D1C641EDDE90031DF
:1037D0001BF80400C047002CF5D15FEA897006D4BD
:1037E00009E02A46DDE900316D1C2020C047A5EB29
:1037F0000A00B042F5D32846BDE8FC9F2DE9F04F02
:103800008FB099468B46DDE91818DDE91C63DDE9C8
:103810001A4792468646002209B923F0100358053C
:1038200007AD00D5C9B1B1FBF4F004FB1010C0B274
:103830000A2801D2303009E05FEA836C02D54FF0EC
:10384000410C01E04FF0610C60440A38B1FBF4F127
:10385000A854521C09B1202AE5D3CDF80880CDE93F
:103860000563CDE90052CDE903474B465246594620
:103870007046FFF72DFF0FB0BDE8F08F2DE9FF4F29
:103880008FB01CACDDE9239594E8030820AC94E8E4
:10389000C004002450EA010201D125F010056A0598
:1038A0000DF11C0802D550EA010217D032463B4602
:1038B000FCF75AFCD2B20A2A01D2303206E0AB063B
:1038C00001D5412300E061231A440A3A08F8042094
:1038D000641C50EA010201D0202CE7D3CDE900841A
:1038E000CDF808B0CDE90595CDE9036A0FAF97E8AB
:1038F0000F00FFF7EDFE13B0BDE8F08F9A4200D243
:1039000088547047704700002DE9FF4F95B09B46E3
:103910008946064600250FE2252877D10024274650
:10392000F84A0121059400E0044316F8013F203BCA
:1039300001FA03F01042F7D130782A2811D06FF045
:103940002F033078A0F13002092A16D8059A44F0E6
:10395000020402EB820203EB42021044761C059043
:10396000EFE759F8042B0592002A03DA504244F499
:103970000054059044F00204761C30782E2816D1AD
:1039800016F8010F44F004042A280DD06FF02F021E
:103990003078A0F13003092B09D807EB870302EB3D
:1039A0004303C718761CF3E759F8047B761C30787C
:1039B0006C280FD006DC4C2817D068280DD06A2858
:1039C00014D104E0742810D07A280FD10DE044F40B
:1039D00000140AE044F4801401E044F440147278C6
:1039E000824202D104F58014761C761C3078662859
:1039F0000BD013DC582877D009DC002875D0452877
:103A0000F6D04628F4D047281AD19DE118E0632863
:103A100035D0642879D0652812D195E1702873D00B
:103A200008DC6728F1D069286FD06E280DD06F2888
:103A300006D1B5E073282CD0752875D0782874D0BD
:103A40005A46179990476D1C75E1C4F3025002283D
:103A500009D003280DD0D9F8001004280DD00D602E
:103A600009F1040967E1D9F80010EA17C1E9005229
:103A7000F6E7D9F800100D80F2E70D70F0E719F8BD
:103A8000041B8DF8001000208DF80100EA4601208B
:103A900003E059F804AB4FF0FF3061074FF000012D
:103AA00002D40DE008F101018846B9420FDA8045E1
:103AB000F8DB1AF808100029F4D108E008F1010138
:103AC00088468142FADB1AF808100029F6D10598D9
:103AD0005B46A0EB080721463846179A00F094FA97
:103AE000284400EB080507E04DE029E10DE01AF855
:103AF000010B5A4617999047B8F10108F7D25B4677
:103B000021463846179A13E142E00A220092C4F394
:103B100002524FF0000A022A08D059F804CB032AB7
:103B20004FEAEC710AD00DE029E02AE009F1070123
:103B300021F00702F2E802C1914609E00FFA8CFC7D
:103B40004FEAEC71042A03D14FFA8CFC4FEAEC7176
:103B5000002907DA0A460021DCF1000C61EB0201C2
:103B60002D2202E0220504D52B228DF8042001220B
:103B700003E0E20701D02022F7E7904659E00A214E
:103B800002E010220DE010214FF0000A00910BE03E
:103B900010224FF0000A44F004040827009203E0CA
:103BA00008224FF0000A0092C4F30252022A05D004
:103BB00059F804CB0021032A08D009E009F10701D4
:103BC00021F00702F2E802C1914605E01FFA8CFCE1
:103BD000042A01D10CF0FF0C4FF00008220728D571
:103BE000702806D0009B83F0100353EA0A0305D027
:103BF0000EE040228DF80420012208E05CEA010278
:103C000006D030228DF804208DF80500022290465F
:103C1000009B83F0080353EA0A030AD15CEA01021D
:103C200001D1620705D530228DF804204FF001083C
:103C30007F1E582804D034A003900EA802900DE0F7
:103C400036A0F9E753466046009AFCF78DFA8446A1
:103C50000398825C0298401E029002705CEA0100A8
:103C6000F0D1029806A9081A00F1200A600702D5CF
:103C700024F4803400E00127574502DDA7EB0A0059
:103C800000E0002000EB0A01009005984144401A32
:103C90000590E00306D45B462146179A059800F08C
:103CA000B3F90544002706E001A85A46C05D1799FC
:103CB00090476D1C7F1C4745F6DBE0030CD55B4647
:103CC0002146179A059800F09FF9054404E030203A
:103CD0005A46179990476D1C0099481E009000297C
:103CE000F5DC08E0029802995A460078491C0291D6
:103CF000179990476D1CBAF10001AAF1010AF1DC95
:103D000065E100000928010030313233343536379F
:103D10003839616263646566000000003031323317
:103D200034353637383941424344454600000000B7
:103D300000F058F90544761C307800287FF4ECAD8B
:103D400019B02846BDE8F08F620700D4062709F1B4
:103D5000070222F0070CFCE80223E14603F00048CA
:103D60005FEA080C02D00FF2702C0DE05FEA045CF1
:103D700002D50FF2682C07E05FEAC47C02D00FF294
:103D8000602C01E0AFF2700C4FF0FF3823F00043DD
:103D9000CDF850C065280CD006DC452809D046284F
:103DA0001DD047283DD13DE0662818D067287ED138
:103DB00038E00021112F01DB112000E0781CCDE953
:103DC000000106A90EA8FEF70FF9DDE90F010E9A12
:103DD00003910021009207F1010A04914DE04FF098
:103DE00000400097CDE9011006A90EA8FEF7FCF8E7
:103DF000DDE90F0203920E9B11990022DDF80CA061
:103E00000093049211B9791C00EB010AB7EB0A0088
:103E100004D4C0F1FF3007F1010A0490AAEB0700B7
:103E2000019044E0012F00DA01270021112F01DD6C
:103E3000112000E03846CDE9000106A90EA8FEF7E2
:103E4000D3F8DDE90F010E9A03910021049100924D
:103E5000BA4621070CD40399514500DA8A46BAF1D3
:103E6000010F05DD009AAAF10101515C302908D04B
:103E7000B84202DA10F1040F06DA0121CDE901108F
:103E800015E0AAF10101E9E7002805DC04990144E5
:103E90000491AAEB000102E0411C514500DD8A4675
:103EA0000499401A401C01904FF0004002902007F6
:103EB00004D40198504501DBCDF8048000208DF832
:103EC0004F0002980DF14F07B0F1004F25D02B2085
:103ED0000E9002984FF0020800280CDA404202903F
:103EE0002D200E9007E00A210298FCF7C1FB30312B
:103EF000029007F8011DB8F10001A8F10108F2DCF9
:103F000002980028EFD1791E0E980870307800F0E2
:103F1000200040F0450007F8020D12A8C01B00F178
:103F200007081498007800B1012000EB0A010198FD
:103F300001EBE07105984144401A401E0590E003F2
:103F400006D45B462146179A059800F05DF80544B3
:103F50001498007818B15A46179990476D1CE003E1
:103F600024D55B462146179A059800F04DF8054484
:103F70001CE00498002807DBDDE90301884203DD2B
:103F80000098405C179901E0179930205A469047F5
:103F9000049805F10105401C04900198401E019011
:103FA00004D12E205A46179990476D1CBAF1000192
:103FB000AAF1010ADDDC05E017F8010B5A46179952
:103FC00090476D1CB8F10001A8F10108F4DC5B46D4
:103FD0002146179A0598ABE62D0000002B00000043
:103FE000200000002DE9F041044600251E4617463A
:103FF000880404D405E039462020B0476D1C641EB7
:10400000F9D52846BDE8F0812DE9F04104460025A8
:104010001E469046C80301D5302700E020278804BB
:1040200004D505E041463846B0476D1C641EF9D5FD
:104030002846BDE8F0810A68531C0B601070704779
:104040002DE9FF4F89B005460A98002492460028C2
:1040500000D1FE4D8FE1252804D02246641C534632
:104060000A990BE2491C4FF0000808460C910178B0
:104070002B2919D004DC202919D0232904D119E0D7
:104080002D290ED0302909D00026C8B2FEF76EF8CF
:10409000B0B10CA8FDF791FF06461FE048F0010102
:1040A0000AE048F0020107E048F0040104E048F0AB
:1040B000080101E048F01001401C88460C90D6E74A
:1040C0000C9908782A2809D1169840C81690002E15
:1040D00002DA48F002087642491C0C910C984FF025
:1040E000000B01782E2919D1401C0C9048F48068EF
:1040F0000078FEF73BF820B10CA8FDF75EFF834681
:104100000CE00C9A10782A2808D1169901C916914A
:10411000002800DC0020521C83460C920C98017889
:104120006C290AD004DC68290FD06A2919D128E04B
:10413000742929D07A2914D126E0401C0C900178EA
:1041400048F480786C291CD00BE0401C0C9001785E
:1041500048F08008682904D148F04001401C884696
:104160000C9001460078692822D015DC62281FD007
:104170000DDC252872D050281AD058287FF46DAF56
:1041800016E048F40071E9E748F48071E6E7632837
:1041900079D06428F2D10BE0732875D004DC6F2845
:1041A00006D07028EAD103E0752801D07828E5D13F
:1041B00078280DD058280BD070280BD0502809D063
:1041C0006F2816D0622816D00A2228F0100016E0B8
:1041D000102207E04878102248F48878562804D145
:1041E000491C0C910878582807D00878502804D02A
:1041F00006E0082209E0022207E048F0200080469D
:104200000878692803D0642801D028F00C085FEAF8
:10421000485001D528F00108087869281FD0642883
:104220001DD0562864D05FEA885072D51698CDF814
:1042300018B0C01D0021CDE904210291CDE9076825
:1042400020F007005346F0E80212CDE90012169064
:10425000224628460A99FFF711FB88E009E15FEA48
:10426000885022D5169804AFC01D20F00703F3E84C
:1042700002011693002387E80C08CDE9076800299E
:1042800003DA012202E07FE0A6E00022002302928E
:104290001A461B1A8A4103DB0022404262EB0101ED
:1042A00053462246CDE90001D3E75FEAC85004D562
:1042B000169901C90FE0404215E05FEA486003D556
:1042C000169911F8040B06E05FEA0860F0D516991C
:1042D00031F8040B00B21691CDE9022BCDE9046848
:1042E000C10F0028E7DD53462246CDE900013AE040
:1042F0001699AAEB040201C9169141680968009158
:1043000003680A9801192846FFF79AFE04442FE033
:10431000FFE75FEAC8500CD5CDE9022BCDE9046870
:1043200016980021534604C8CDE900211690224674
:1043300019E05FEA486003D5169810F8041B08E0FE
:104340005FEA0860169803D530F8041B89B200E0D4
:1043500002C8169001AF0020009187E80508CDE95A
:1043600004685346224628460A99FFF747FA04464E
:104370000C98401C0C900C99087800287FF46BAEC8
:1043800054457DD222467DE001275FEA887006D53C
:1043900009E02246641C534620200A99A847384663
:1043A0007F1CB042F5D316982246641C10F804CB4B
:1043B0001690534660460A99A8475FEA887006D46B
:1043C000D6E72246641C534620200A99A84738465F
:1043D0007F1CB042F5D3CBE7169850F8049B16909B
:1043E0004B46BBF1000001D0014601E04FF0FF3128
:1043F000484600E0401C02780AB1491EFAD2C71AAA
:104400005FEA485003D558465F4500D307465FEA48
:10441000887006D511E02246641C534620200A9974
:10442000A84738467F1CB042F5D306E0224609F182
:104430000109641C53460A99A84799F8000040B145
:104440005FEA4851F2D5BBF1010B01E005390008E4
:10445000ECD25FEA887006D48AE72246641C534691
:1044600020200A99A84738467F1CB042F5D37FE741
:1044700006E02246641C534625200A99A84777E7A0
:10448000AAF10102534600200A99A8470DB0204620
:10449000BDE8F08F10B502004FF000000CD04B1EAD
:1044A000194200D0FEE70A44521E9A43B2F5803FFB
:1044B00002D20C2A01D9104610BD0C2010BD0844B0
:1044C0004A1E401E9043114200D0FEE77047000094
:1044D0002DE9F0410F4601210025044641862E4674
:1044E0000BE01B49FBF7ACFE10B16D1CADB202E056
:1044F000608E401C6086761CB6B257F8260010B15C
:1045000001780029EDD1208EA8421ED0A06A002695
:1045100010B119F05FFDA662E06A10B119F05AFD02
:10452000E662E80019F0CAFCA06238B1680019F030
:10453000C5FCE06218B1A16A11B102E0FEE7FEE736
:104540000025690019F054FE2586BDE8F0810000C1
:10455000786201082DE9F84F8146407A0F4600F055
:104560000700022819D010468046974200DD3A46DF
:10457000164603202A4C2B4A00EB460020F0030588
:10458000A06811681035411A636805EB010C9C4561
:1045900005D2416821F0004124E00846E4E79D424D
:1045A00019D892464FF0FF3B48196168884210D9EC
:1045B000002269461C48CDF800B00CF047FF0022ED
:1045C00069461A480CF042FFA168DAF80000091A9F
:1045D000EAE7A068DDE7284619F070FCC0B1416841
:1045E00041F0004188EA6702416089EA0201016006
:1045F000416801F04041491C31F0804141608681B1
:10460000A0F80E8005D500F110018160BDE8F88F9B
:10461000FEE7A16801F1100229448260A160F5E77C
:1046200058000020B801002051DA0008AD1401083C
:1046300070B586B000224A4C8DF808208DF80C2009
:104640008DF81020E2888A4201D0FF22A270E1801A
:1046500090F83C20142302F003024FF4B475012AB1
:1046600024D0022A5ED0A578AA4211D010F8265F85
:1046700005EB051505EB4505B5FBF3F52570407811
:1046800000EB001000EB4000B0FBF3F06070A27094
:1046900004AA03A8CDE9000201EB41004FF6FF7127
:1046A00001EA400002AB627821781BE0A678B242B2
:1046B00010D0868C06EB46067602B6FBF5F5A58093
:1046C00090F8270000EB001000EB4000B0FBF3F087
:1046D0006070A27004AA03A8CDE90002C9B202ABBF
:1046E00062783AE008F0CCFE9DF810109DF80C00BE
:1046F000CB08BDF800109DF8082063F30401ADF865
:1047000000108108BDF8000061F34A10D10880B2A2
:1047100061F3CF20ADF8000080B20090BDF800003A
:1047200006B070BDA678B24210D0868C06EB460665
:104730007602B6FBF5F5A58090F8260000EB001098
:1047400000EB4000B0FBF3F02070A27004AA03A8B5
:10475000CDE90002CAB2217802ABA088C2E700000E
:104760000401002010B5084C012020700748FEF716
:104770006FFB0028A06803D0BDE8104021F06EB8A0
:10478000BDE8104021F05EB89001002088080020AC
:1047900010B5044690F84200A16B820709D4B4F822
:1047A00040204AB1A2F57F43FF3B1BD0521EA4F824
:1047B0004020B4F84020AAB909B1820712D5214699
:1047C0001448FEF7E0FBFFF7CDFFE16809B1204692
:1047D0008847216909B1204688472046BDE8104036
:1047E00019F0F8BBE26B52422263002911D0820714
:1047F00002D4626B524222634210521C62F34100A7
:1048000084F84200A26A206A2262A062E06AE16241
:10481000A06310BD8808002070B5304D686820F096
:10482000D9FE0646687880F00100687047E00020F5
:10483000287094F842006978C0F380028A4242D01E
:1048400061F3820084F84200216B8A19030719D4AE
:10485000002917DC002A15DBC00709D1616939B1CD
:1048600020468847216A01442162A16A0844A06267
:10487000A16809B12046884794F8420040F008003A
:1048800084F84200206B8019206316D4E16A8842C4
:1048900000DD2163E169204688470146606A88425D
:1048A00004D0616262680AB120689047D4E90B01C4
:1048B000814202DB2046FFF76BFF287818B10848D9
:1048C000FEF7C6FA03E021460548FEF7D3FA0400D6
:1048D000ADD120F085FE686070BD00009001002021
:1048E0008808002070B5044640680D4608B1FFF7FF
:1048F000F9FF2268002A04D029462046BDE870400E
:10490000104770BD89B210F01CBF89B210F055BFBE
:104910002DE9FF4F99B09846DDE926B12D9816464E
:104920008A464FF00009042811D0052811D0062826
:1049300012D0142873D10127022508FB06F00E902F
:104940001A980024401E0D90701E06904AE1002720
:10495000F2E701270325F0E701270225FEF73EFDD8
:104960000068D0F83890E8E7289860430BEB2022E5
:10497000299860430AEB202110124FEA212E7DD4A2
:104980001A9B98427ADABEF1000F77DBB645F9DA66
:10499000D3B201F0FF0C802B05DAC3F17F014FF099
:1049A000FF32490003E001225900A1F5807109910D
:1049B000BCF1800F05DACCF17F034FF0FF315B00D3
:1049C00004E04FEA4C030121A3F580730A930EFB28
:1049D000080C199B0CFB05330793831811937BD4A8
:1049E000DDF834C0634577DC1EEB01030F9373D40D
:1049F000DDF818C063456FDC079B01FB08F102FB83
:104A0000053201FB053116929C460C91BFB32D99DE
:104A1000052905D014290AD006294CD059E0E5E033
:104A20000C989CF8022081781698807810E0199AEA
:104A30000E9902EB41010B180EFB08111198179308
:104A40000EFB08F2085C0F99D25C01FB08F1C95C0F
:104A5000914207D00A9B5943C3F5807302FB0311AF
:104A6000C1F30721904207D0099B5843C3F58073D7
:104A700002FB0300C0F30720084401E09AE02CE0A9
:104A80002C99400808555FD09CF800109CF8010054
:104A900001EB0020ADF80C000C980178407801EB98
:104AA0000020ADF8100016980178407801EB002046
:104AB000ADF808001FE0BCF800101FFA89F0814231
:104AC00078D00C990988814274D01699098881425E
:104AD00070D0FF210846CFE737E0BCF80000ADF802
:104AE0000C0016980088ADF808000888ADF8100092
:104AF0002C98FF210155BDF80C00BDF8101088421C
:104B000009D1BDF80810884205D12B98BDF80C10CA
:104B100000EB440017E00A98C2B2DDE9031012F07E
:104B2000E3FC04900998C2B2DDE9020112F0DCFC5A
:104B30007F220290049912F0D7FC00902B98BDF8C8
:104B4000001000EB440001804AE0079B93F800C08E
:104B50005B780CEB0323DDF8ACC09BB22CF814306F
:104B6000DDF8B4C0BCF1050F06D0BCF1060F06D0CD
:104B7000BCF1140F09D10AE0079B9B780FE01FFAE4
:104B800089FC634501D1002309E0FF2307E0199B5D
:104B90000EFB083C0E9B00EB43031CF8033008B9E6
:104BA000002A05DBDDF834C0604504D1002A02DDAF
:104BB00009980BE011E0BEF1000F01D1002904DBE0
:104BC000069A964509D1002907DD0A98C0F1FF0031
:104BD0005843010A2C98015502E02C9900200855F1
:104BE000641C24B22A988442FFF6BEAE1DB0BDE814
:104BF000F08F0BF067B870B514460D46064606E018
:104C00003046711C8EB200F006F805F8010B641EE8
:104C1000A4B2F5D270BD10B504460BF0F9F8200A25
:104C2000A02101EB4000C0B20BF0C6F80BF032F946
:104C3000E0B20BF0C1F80BF02DF90BF0E9F8A12070
:104C40000BF0BAF80BF026F900200BF087F80446B9
:104C50000BF002F9204610BD70B516460C4605460D
:104C600006E02178284600F007F86D1CADB2641C00
:104C7000761EB6B2F5D270BD70B50D4604460BF087
:104C8000C7F8200AA02101EB4000C0B20BF094F855
:104C90000BF000F9E0B20BF08FF80BF0FBF82846B0
:104CA0000BF08AF80BF0F6F80BF0D6F8BDE8704080
:104CB0000A20FBF7A3BF000010B5818F92B0044615
:104CC000A9B1684610F0EEF80B480121CDE900408B
:104CD000A08F0B9000200890CDE9090107480790AC
:104CE00007480390684610F051F912B010BD12B099
:104CF000BDE8104021F030BFD16B0208634F0108BE
:104D0000D36B020810B50446406882080AD049688F
:104D100021F00301091D08446060204600F042F8BC
:104D2000204610BDFEE74068103120F003008842A5
:104D300001D301207047002070472DE9FC4705464C
:104D400048680C4620F0030001AA694621F050FC97
:104D5000DDE9007005EBC71101EB80098046D9F849
:104D60003C0060B164B1C4E9020504F10806C46006
:104D700030460421FFF7A3FB864202D0FEE7FEE7A0
:104D8000FEE7C9F83C400120296900FA07F2114307
:104D9000296105EB870100FA08F04A6902434A617C
:104DA000BDE8FC8710B5044600F087F8046010BD2C
:104DB0002DE9FC4706464FF000000D000090074625
:104DC000019042D00C46E9460DF10408802907D332
:104DD000084627F0E7FA411F01208840401E04449E
:104DE00042464946204621F003FC009C0A2C2CDA5E
:104DF00006EB8400019A40694FF0FF3101FA02F29C
:104E000010400CD1641C3069A14008401DD027F02F
:104E1000C1FA0446009006EB8000406978B127F0A3
:104E2000B9FA034606EBC411019001EB8000C76B91
:104E30005FB1786820F00300A84201D2FEE7FEE7E8
:104E400039463046009A22F0C9FD3846BDE8FC8755
:104E500010B50446FFF7A6FF416841F0020141602A
:104E6000606840F00100606010BD10B5044600F0BD
:104E700024F8416821F002014160606820F00100DF
:104E8000606010BD70B506460D46084600F015F886
:104E9000040010D02079C0070BD0686880080BD0C0
:104EA0002146304600F03CF821462846FFF72AFF0D
:104EB0000546284670BDFEE7FEE7426800F108019E
:104EC00022F00300001F0844910800D1FEE770475C
:104ED00070B506460C004FF000001ED0F2B12079EC
:104EE0001546C0071BD011462046FFF71CFF78B1BE
:104EF0002946204600F025F805462046FFF752FFD8
:104F00006868294640F0020068603046FFF715FFE8
:104F10002046FFF7AAFF04F1080070BDFEE7FEE798
:104F20007CB5054648680C4620F0030001AA694696
:104F300021F05EFBDDE900232146284622F04EFDEC
:104F40007CBD2DE9F0410D46044600F10801281F03
:104F50000E18606806F1080720F00300401BA0F15E
:104F6000040838460421FFF7AAFA874200D0FEE77A
:104F7000606820F0030108EB0500001D814200D0AD
:104F8000FEE7307900F0030040EA0800706020F08E
:104F900003000C2800D2FEE7207900F0030028432C
:104FA00060603046FFF754FF3046BDE8F08138B509
:104FB000044617F00BFB054617F03DFB0028204682
:104FC00005D0218FE1861CF0ABF9012038BD15F02A
:104FD0002DFD002820461ED015F0FCFB218FE08E11
:104FE00081420CD02087E08E00906A461C2120462A
:104FF00015F05EFF0128E9D120461CF091F9284602
:1050000017F025FB0428E0D120461AF025FD0021E9
:1050100016F053FCD9E715F065FDD6E770B515F02D
:1050200043FF05461AF05EFD0446284611F0ECF9F0
:1050300001462046BDE8704000221FF0F9BD000087
:105040002DE9F04F0D4687B0044600211AF038FCD8
:1050500060B32946204600F061FA2946204600F058
:105060006FF8002120461BF059FB059000212046D7
:105070001BF008FC0490002120461BF01AFA0128BE
:1050800000D000208046002120461BF05DFD074631
:10509000002120461BF088FA42F2D17906464F459E
:1050A0000BD1608C400508D4012707E007B02846E3
:1050B000BDE8F04F1C2119F09BB8002720461AF0DC
:1050C0007DFCDFF878A0834620460021BAF8042052
:1050D0001BF038FCD5F810C0AB682968CDF800C0CB
:1050E000CDF80C80CDE90131C2B239465846059B56
:1050F0000AF082FA28834E4504D1608C800501D4E1
:10510000012600E0002620461AF03EFC0746204615
:105110000021BAF808201BF015FCC2B2686900240F
:105120006B68E9688DE81B0031463846049B0AF03D
:1051300063FA688307B0BDE8F08F000078000020B4
:105140002DE9F34F81B00C46019809F0D7FC0646D3
:1051500001981AF033FC8246304600F0DEFF2061F1
:10516000400018F0D9FE20602069400018F0D4FEFD
:10517000002541F69A79A0603AE036F91510DFF87B
:105180002081494533D10027DFF818B11FE03946A7
:1051900001981AF095FB594600901BF0F6FDA8B94E
:1051A000009809F0BDFC012810D1009809F0AEFC70
:1051B000A8420BD100981BF098FD4146404501DA0A
:1051C000084602E000981BF090FD80467F1C019885
:1051D0001AF088FBB842DAD8B8F1000F03DBA168F7
:1051E00021F8158003E0A168002021F815006D1C4E
:1051F0002069A842C1D800252F46284641F69B7851
:105200004A4615E036F91010414504DB0D44A5F57A
:10521000F8559B3D0BE0914204D1A16831F8101084
:10522000394403E0A36823F8101039440FB2401C3E
:1052300021698142E6D8002101981BF06FFA2169AB
:10524000C1F1010200FB02A0C01B00B2002800DA7D
:10525000002000224FF0FF331146C44611E000BF8A
:1052600036F9117067450BDBA7F5F8579B3F3AB24B
:1052700000FB02F3B3FBF5F3A76827F811300B46E8
:10528000491C27698F42EBD8002B07DBA91A414341
:10529000B1FBF5F1401AA16821F81300BDE8FE8FBB
:1052A00001E0FFFF010006002DE9F14F0022114649
:1052B00000981CF0C5FF002100981BF033F904464C
:1052C000002100981BF0F0FA20440FFA80F9002129
:1052D00000981BF0DBF920440FFA80F800981BF0CF
:1052E00095F800EB090101EB0800DFF898A006B281
:1052F000544600981AF0F6FA074600252AE000986E
:1053000021498068006850F8250083461BF03DFD68
:10531000F8B958461CF05CF840BB002158461BF019
:1053200099F818B3012821D002281FD003281DD0D6
:10533000002158461BF020FC58B9BBF81A10BBF8E6
:105340001600081A401C00B24844A04200DB044684
:1053500024B26D1CBD42D2D3544504D004EB0800E6
:1053600000B2B04200DC3046BDE8F88F0098BBF9CF
:105370001A10B0F91600081A411CA142E8DB0C46CD
:10538000E6E7000001E0FFFF010004002DE9F84F0F
:105390000022804611461CF03DFF002140461BF0D4
:1053A000C1F80446002140461BF024FA20440FFABD
:1053B00080FA002140461BF0CFF920440FFA80F913
:1053C00040461BF031F800EB090101EB0A00DFF861
:1053D00044B105B25C4640461AF084FA0746002103
:1053E00040461BF054F801284FF0000644D078E006
:1053F000D8F808004849006850F8260000901BF0D3
:10540000C4FCC0BB00981BF0E3FF50B10098B8F992
:105410001810B0F91400091A481CA0422ADB4C1CD1
:1054200028E0002100981BF015F858B1032809D096
:10543000062807D0082805D0002100981BF096FB0D
:1054400058B118E00098B8F91810B0F91400081A0B
:10545000411CA1420EDB0C460CE000981430009079
:1054600010F084FA5044A04204DB009810F07EFA59
:1054700000EB0A0424B2761CBE42B9D35C453BD093
:1054800004EB090033E000BFD8F8080022490068A7
:1054900050F8260000901BF078FC08BB00981BF029
:1054A00097FF60BB002100981AF0D4FF38B30128A1
:1054B00025D0042823D0072821D0002100981BF0F4
:1054C0005BFB68B900981430009010F04FFA484424
:1054D000A04204DB009810F049FA00EB090424B262
:1054E000761CBE42D0D35C4506D004EB0A0000B265
:1054F000584501D0A84200DC2846BDE8F88F009846
:10550000B0F91810B8F91400091A481CA042E6DBDB
:105510004C1CE4E701E0FFFF010004002DE9F84F17
:105520000C46834609F0EEFE064600F0F6FD60618B
:10553000400018F0F1FC60606069400018F0ECFC7D
:10554000002541F69A79E0603AE036F91500DFF877
:105550002881484533D10027DFF820A11FE03946D4
:1055600058461AF0ADF9514600901BF00EFCA8B950
:10557000009809F053FF012810D1009809F044FF6A
:10558000A8420BD100981AF06CFA4146404501DA66
:10559000084602E000981AF064FA80467F1C5846DC
:1055A0001AF0A0F9B842DAD8B8F1000F03DBE168CD
:1055B00021F8158003E0E168002021F815006D1C3A
:1055C0006069A842C1D800252F46284641F69B783D
:1055D0004A4615E036F91010414504DB0D44A5F5A7
:1055E000F8559B3D0BE0914204D1E16831F8101071
:1055F000394403E0E36823F8101039440FB2401C2B
:1056000061698142E6D8002158461BF03BF981468A
:1056100058461AF0B9F901466069C0F1010209FB68
:105620000210C01B00B2002800DA002000224FF058
:10563000FF331146C44610E036F9117067450BDBA5
:10564000A7F5F8579B3F3AB200FB02F3B3FBF5F323
:10565000E76827F811300B46491C67698F42EBD881
:10566000002B07DBA91A4143B1FBF5F1401AE168B1
:1056700021F81300BDE8F88F01E0FFFF01000600EC
:105680001CB50B8804892344ADF800304B8844894D
:105690002344ADF802308B8804892344ADF80430EC
:1056A000C98843891944ADF806104369694698478B
:1056B0001CBD00002DE9FF4F89B0C8781A9CC007B7
:1056C0000D46002801D0F84800E0F848069001D0C7
:1056D000F74800E0F748049001D1F54800E0F548AC
:1056E0004FF010034FF00C0E4FF0080BCDF81400E4
:1056F0006188A2884FF0000AA1EB0201504609B26E
:105700005246D4F810C00FE002EB8207E66803EBC4
:10571000870816F808805FEAC87809D00BEB87077E
:10572000F65B891B09B2521C9445EDD8002254E067
:105730000EEB8707F65B304400B2F4E7E66802EB55
:10574000820703EB870CB146CDF820C016F80C6039
:10575000F60741D1002872D091FBF0F80EEB8706D6
:10576000079639F8066006FB08F60FFA86FCCDF8B6
:1057700000C04FF0060C0CEB870C042639F90C80A6
:1057800006EB8706DDF800C039F90660E04500DC6D
:10579000C446664504DC009EC446B04500DC66464F
:1057A000DDF800C00196664506D0DDF820C04FF058
:1057B0000108C24649F80C80D4F80C80019E0BEB1E
:1057C000870728F80760D4F80CC0079F3CF80770DB
:1057D000C01B891B00B209B2521C26699642ADD883
:1057E000BAF1000F84D1002109981AF05CFE01285B
:1057F00026D000270020ADF80800ADF80C0003A962
:1058000002A8CDE900012089B4F9022003B228786A
:10581000189921F0EEF8E878384207D009981AF084
:10582000CDF8BDF808100844ADF808000B990998A8
:105830001AF046F806464FF4FA682AE1FFE7FEE759
:105840000127D7E79C4930461BF09FFA00286FD10B
:10585000002130461AF092FEF0B34FF0000948469E
:1058600021690FE0E26800EB800352F82320B24286
:1058700007D1E16800EB80020BEB820031F9009068
:1058800002E0401C8142EDD8E878C007708C04D05B
:1058900020F4007040F4806003E020F4806040F465
:1058A0000070708406F114000499824688474845C8
:1058B00028D030461BF034FDB08AADF80000F08AE5
:1058C000ADF80200308BADF80400708BADF8060027
:1058D00049465046069A00E010E090476A46292162
:1058E000304615F0E5FA30461AF0FCF8324622212F
:1058F00015F0DEFA30461BF013FD03E0708C20F447
:10590000C0607084002000906878012811D00228BF
:1059100017D1059906F114008847B4F90010491C05
:1059200021F00101081A00EBD07040F34F0007E0AE
:10593000A7E0059906F1140088472188081A00B2EB
:105940000090E878384208D0049906F1140088479E
:10595000BDF80810081AADF80800304600216B2287
:105960001AF0F0FF0FFA80F9304600216C221AF08D
:10597000E9FF0FFA80FA30461BF0B7F90190304684
:105980001AF06FF80146C9F3413001280FD129F40C
:10599000C04040450BDCB0F57A7F01DDC0F57A7080
:1059A000019A5043642290FBF2F00FFA80F9CAF397
:1059B000413001280ED12AF4C04040450ADCB0F540
:1059C0007A7F01DDC0F57A704843642190FBF1F0E5
:1059D0000FFA80FAB18A1698F28A411A01EB09008F
:1059E000179900B28A1A02EB0A01EA7809B2D207C3
:1059F000002A02D0BDF9082000E0009A10440FFAF6
:105A000080FA01D0009801E0BDF9080008440FFABF
:105A100080F95AEA09011BD030461BF081FCB18A9B
:105A200001EB0A00B082318B01EB0A003083F18A6E
:105A300001EB0900F082718B01EB090070833046A5
:105A40001BF06EFC00234A46514630461BF00EFD0B
:105A5000E87838420CD1049906F114008847199966
:105A60000844BDF80C100844BDF80810084406E0CE
:105A7000BDF80C1019980844BDF80810081AADF8C4
:105A80000800E8780BAAC0F38001099809F000FB30
:105A90000646002E04D0DDE90B0188427FF4D2AE29
:105AA0000DB0BDE8F08F0000F5590108EB59010871
:105AB0009159010839590108010006002DE9F04FFC
:105AC00091B00E0005463FD02E83286808B118F02B
:105AD00081FA06EB4600062101EB400018F0EEF9D2
