:020000040800F2
:10000000100E0124AD0200083F4D0008C73B000858
:100010003B4D00088B0400089965000800000000B3
:10002000000000000000000000000000D956000899
:100030002507000800000000414D0008DB560008BD
:10004000C7020008C7020008C7020008C70200086C
:10005000C7020008C7020008C7020008C70200085C
:10006000C7020008C7020008C7020008C70200084C
:10007000C7020008C7020008C7020008C70200083C
:10008000C7020008C7020008C7020008C70200082C
:10009000C7020008C7020008C7020008C70200081C
:1000A000C7020008C7020008C7020008C70200080C
:1000B000C7020008C7020008C7020008C7020008FC
:1000C000C7020008C7020008C7020008C7020008EC
:1000D000C7020008B1640008C7020008C702000890
:1000E00039070008C702000800000000C702000826
:1000F000C7020008C7020008C7020008C7020008BC
:10010000C7020008C7020008C7020008C7020008AB
:10011000C7020008C7020008C7020008C70200089B
:10012000C7020008C7020008C7020008C70200088B
:10013000C7020008C7020008C7020008C70200087B
:1001400000000000000000000000000000000000AF
:10015000C7020008C7020008C7020008C70200085B
:10016000C7020008C7020008C7020008C70200084B
:10017000C7020008C7020008C7020008000000000C
:10018000C7020008C7020008C7020008C70200082B
:10019000C7020008C7020008C7020008C70200081B
:1001A000C7020008C7020008C7020008C70200080B
:1001B000C7020008C7020008C7020008C7020008FB
:1001C000C7020008C7020008C7020008C7020008EB
:1001D000C7020008C7020008C7020008C7020008DB
:1001E000C7020008C7020008C7020008C7020008CB
:1001F000C7020008C7020008C7020008C7020008BB
:10020000C7020008C7020008C7020008C7020008AA
:10021000C7020008C7020008C7020008C70200089A
:10022000C7020008C7020008C7020008000000005B
:10023000C7020008C702000800000000C70200084B
:10024000C7020008C7020008C7020008C70200086A
:10025000C7020008C7020008C7020008C70200085A
:10026000C7020008C7020008C7020008C70200084A
:10027000C7020008C7020008C7020008000000000B
:10028000C702000800000000C702000800000000CC
:1002900000000000C7020008DFF80CD000F0B8F83A
:1002A00000480047D1000308100E0124064880478B
:1002B00006480047FEE7FEE7FEE7FEE7FEE7FEE74B
:1002C000FEE7FEE7FEE7FEE7A557000899020008F3
:1002D0002DE9F05F0546002092469B46884606467B
:1002E000814640241BE0284641464746224600F00E
:1002F0007FF853465A46C01A914110D3114618460A
:10030000224600F066F82D1A67EB01084F46224698
:100310000120002100F05DF817EB00094E41201E7E
:10032000A4F10104DFDC484631462A464346BDE8D5
:10033000F09F10B5431A934209D28318881803E03E
:1003400010F8011D03F8011D521EF9D210BD40EA3C
:1003500001039B0703D009E008C9121F08C0042A43
:10036000FAD203E011F8013B00F8013B521EF9D22A
:1003700010BDD2B201E000F8012B491EFBD270473C
:100380000022F6E710B513460A4604461946FFF761
:10039000F0FF204610BD421C10F8011B0029FBD1C4
:1003A000801A704710B5002200E0521C835C8C5C00
:1003B000A34201D1002BF8D1D8B2E1B2401A10BD4E
:1003C000034611F8012B00F8012B002AF9D1184639
:1003D0007047202A04DB203A00FA02F1002070471F
:1003E0009140C2F1200320FA03F319439040704773
:1003F000202A04DB203A21FA02F00021704721FA7A
:1004000002F3D040C2F120029140084319467047E0
:10041000064C074D06E0E06840F0010394E8070051
:1004200098471034AC42F6D3FFF73AFF58250A0834
:1004300078250A0870B58C1810F8015B15F00703D1
:1004400001D110F8013B2A1106D110F8012B03E06D
:1004500010F8016B01F8016B5B1EF9D12B0705D475
:100460000023521E0DD401F8013BFAE710F8013BBE
:10047000CB1A921C03E013F8015B01F8015B521EDA
:10048000F9D5A142D8D3002070BD00BFFEE700001F
:100490000148406870470000001000E02DE9F0417D
:1004A0000746002602F08CFD0F49B0FBF1F000FB7F
:1004B00007F800BFFFF7ECFF054611E0FFF7E8FF84
:1004C0000446AC420CD0AC4202D9601B064403E0A7
:1004D000C5F1FF30204406442546464500D300E0E0
:1004E000ECE700BFBDE8F08140420F002DE9F04F7E
:1004F00091B007460E4692469B46DDF86890D7F8C5
:100500003C01484503D1012011B0BDE8F08F4FF008
:1005100000087AE03F4850F8280000EB0A043E4803
:1005200050F8280000EB0B05002C6CDB092C6ADA74
:10053000002D68DB072D66DAC4EBC40007EB8000F2
:1005400050F8250000285ED1C4EBC40107F1FC007F
:100550000844405D002856D100BF11E000210CE0A6
:10056000C0EBC00307F1FC021A44525CC0EBC003AD
:100570000DF1040C63445A54491C0729F0DB401C5C
:100580000928EBDB0120C4EBC40101AA1144485542
:1005900001A80090D7F83C01A0EB0900431E2A46B1
:1005A0002146384617F096FF60B3D6F8F80146F8B2
:1005B0003040D6F8F80106EBC0004560D6F8F801E7
:1005C000401CC6F8F8010121C4EBC40207F1FC008D
:1005D0001044415509F101002B4622463146009056
:1005E0003846FFF783FF08B101208DE7D6F8F80100
:1005F000401EC6F8F8010021C4EBC40207F1FC005C
:100600001044415500BF08F10108B8F1040F81DB27
:10061000002079E71C1504082C1504082DE9F04783
:100620000C4616461F46DDF820C04FF00008002596
:10063000002100220023D0F80090D9F8449009F05E
:10064000404ADFF8DC9099FAA9F9B9FA89F907FA72
:1006500009F949EA0C094AEA090AD0F80090C9F8F0
:1006600044A0D0F80090C9F83C60D0F80490B9F5E7
:10067000403F4ED104F07F4504F47F0104F47F42F3
:10068000E3B2D0F80890B9F1000F06D142EA0109AF
:1006900049EA050949EA030836E0D0F80890B9F1BB
:1006A000010F04D142EA010949EA03082CE0D0F81D
:1006B0000890B9F1020F09D1C90C920ADB084FEA80
:1006C000421949EAC12949EA03081DE0D0F8089017
:1006D000B9F1030F0CD1ED0FC90CD20ADB084FEAB8
:1006E000421949EA812949EAC53949EA03080BE078
:1006F0002D0F090D120B1B094FEA021949EA0129B6
:1007000049EA053949EA0308D0F80090C9F8388069
:1007100003E0D0F80090C9F80C40BDE8F087000075
:100720000000FF3F704701B502E00098401E0090B6
:1007300000980028F9D108BD10B51048006800F4F1
:100740000050D0B10E48006880F400600C49086089
:1007500000F032FC0B48B0F90000002806DB0A4824
:10076000B0F90000002801DB012000E0002007496B
:1007700008704FF400500149086010BD880000580F
:10078000141C0258E2020024EC020024F6020024A9
:1007900030B50246002300240868012816D01368EB
:1007A0006FF30E03D1E901052843CD6828430D6995
:1007B00028434D6928438D692843CD6928430D6A34
:1007C00028434D6A28430343136019E0136823F458
:1007D000F843D1E9070528434D6A28430343546889
:1007E0006FF30E04D1E901052843CD6828430D6954
:1007F00028434D6928438D6928430443136054609E
:10080000002030BD0246506940EA4100506100209E
:10081000704718B5034600200090D1E9000420433A
:100820008C68641E40EA4410CC6840EA4420009082
:1008300000981861002018BD70B5034615460022C7
:100840000024012D1FD09A6802F070420868401EF3
:100850004E68761E40EA06168868401E46EA002664
:10086000C868401E46EA0036088A401E46EA00462E
:10087000888A401E46EA0056087E401E46EA00600E
:1008800002439A6022E09A6811480240C868401EFC
:100890000603888A401E46EA00500243DC6804F0E2
:1008A00070440868401E4E68761E40EA0616886846
:1008B000401E46EA0026088A401E46EA0046087E98
:1008C000401E46EA006004439A60DC60002070BD70
:1008D000FF0F0FFF2DE9FC41002000900190002444
:1008E0003548007800EB4000344931F81050324868
:1008F000007800EB400001EB4000468800272E48BE
:10090000007800EB400001EB40008088401C000AAA
:100910008DF800002848007800EB400001EB400013
:100920000079401CC0B28DF8010006226946BA2049
:1009300000F064F80446002C02DA0020BDE8FC81D7
:100940009DF802009DF8031000EB012085B29DF890
:1009500004009DF8051000EB012086B216480078CF
:1009600000EB4000154901EB40008088801D000A23
:100970008DF800001048007800EB400001EB4000CB
:100980000079801DC0B28DF8010003226946BA20AB
:1009900000F034F80446002C01DA0020CEE79DF880
:1009A000020000F003073B463246294604A005F04A
:1009B000F5FD0120C2E70000E0020024D4D10308C5
:1009C0003C3C2D4754502D494E464F2D3E3E20581D
:1009D0005F4D4158203D2025642C20595F4D4158E2
:1009E000203D2025642C2054524947474552203D44
:1009F000203078253032780A000000002DE9F041DF
:100A000086B005460C4616464FF0FF374FF00008FB
:100A100000BF00BF0020ADF802008DF8005002209A
:100A2000ADF8040002940121ADF80E108DF80C50C1
:100A3000B01E81B2ADF81010A01C059009E0022193
:100A4000684603F0DFF90746022F00D104E008F101
:100A50000108B8F1050FF2DB00BFB8F1050F08DBA4
:100A60006078237840EA0321B21E3B46034805F034
:100A700095FD384606B0BDE8F0810000A01F0A08C9
:100A800038B5002000901748007800EB4000164968
:100A900001EB4000808800128DF8000011480078BA
:100AA00000EB400001EB400000798DF801000025CB
:100AB0006C1E00BF00BF0DE003226946BA20FFF79D
:100AC0009DFF44B2002C01DD204638BD294607A019
:100AD00005F064FD2846691CCDB20528ECDB2046F4
:100AE000F3E70000E0020024D4D103083C3C2D478A
:100AF00054502D4552524F522D3E3E2047545020C7
:100B00006932632074657374206661696C65642062
:100B100074696D652025642E0A0000002DE9FE43EE
:100B200080460C4615464FF0FF36002700BF00BF39
:100B30000020ADF802008DF80080A8B2ADF80400E6
:100B4000029408E00121684603F05CF90646012E94
:100B500000D102E07F1C052FF4DB00BF052F08DB6E
:100B60006078237840EA0321AA1E3346024805F044
:100B700015FD3046BDE8FE83F01F0A082DE9F0415F
:100B80004FF0FF340025002600274FF0B80800BFC3
:100B900000BF03F02FF9FFF773FF0446002C05DABE
:100BA00008A005F0FBFC2046BDE8F081642000F0C1
:100BB0001FFD00F01DF803F085F8FFF78BFE002005
:100BC000F2E700003C3C2D4754502D4552524F5205
:100BD0002D3E3E2049324320636F6D6D756E696313
:100BE0006174696F6E204552524F52210A00000015
:100BF00010B586B04FF0FF34974903C9CDE9040121
:100C000000BF00BF082204A9BA20FFF7F7FE044680
:100C1000002C05DA91A005F0C1FC204606B010BDFD
:100C20009DF81400312833D19DF8120039281CD1C9
:100C30009DF81300312818D19DF81400312814D1E3
:100C40009DF816009DF81710CDE900109DF814309E
:100C50009DF813209DF812108BA005F09FFC012039
:100C60009549087095490870F4E09DF816009DF8C4
:100C700017109DF81520CDE9002102909DF8143041
:100C80009DF813209DF812108DA005F087FCE1E07F
:100C90009DF8140035285FD19DF81200392823D122
:100CA0009DF8130031281FD19DF8140035281BD161
:100CB0009DF81500372817D19DF816009DF81710DC
:100CC0009DF81520CDE9002102909DF814309DF883
:100CD00013209DF8121088A005F060FC00207649D2
:100CE000087076490870B5E09DF81200362820D1CA
:100CF0009DF8130031281CD19DF81400352818D117
:100D00009DF816109DF817009DF81520CDE90020DC
:100D100002919DF814309DF813209DF8121082A0C6
:100D200005F03CFC04206449087001206349087008
:100D300090E09DF816009DF817109DF81520CDE95C
:100D4000002102909DF814309DF813209DF8121098
:100D50005BA005F023FC7DE09DF8140038283AD113
:100D60009DF81200352823D19DF8130036281FD195
:100D70009DF8140038281BD19DF81500382817D18C
:100D80009DF816109DF817009DF81520CDE900205C
:100D900002919DF814309DF813209DF812106EA05A
:100DA00005F0FCFB0220444908704449087051E0FA
:100DB0009DF816109DF817009DF81520CDE900202C
:100DC00002919DF814309DF813209DF812103CA05C
:100DD00005F0E4FB3EE09DF81400372828D19DF88B
:100DE00016009DF817109DF81520CDE900210290FE
:100DF0009DF814309DF813209DF8121062A005F0A4
:100E0000CDFB9DF81200392824D19DF8130031281C
:100E100020D19DF8140037281CD19DF815005328C7
:100E200018D103202449087000202449087011E0DB
:100E30009DF816009DF817109DF81520CDE90021AA
:100E400002909DF814309DF813209DF812101CA0FC
:100E500005F0A4FB2046E1E6D8D203083C3C2D4730
:100E600054502D4552524F522D3E3E204754502053
:100E7000726561642076657273696F6E2066616960
:100E80006C65640A000000003C3C2D4754502D491D
:100E90004E464F2D3E3E20494331205665727369C0
:100EA0006F6E3A202563256325635F2530327825F0
:100EB0003032780A00000000E002002440000024E4
:100EC0003C3C2D4754502D494E464F2D3E3E20551B
:100ED0006E6B6E6F776E2049432056657273696F33
:100EE0006E3A2025632563256325635F25303278BC
:100EF000253032780A0000003C3C2D4754502D49E3
:100F00004E464F2D3E3E204943322056657273694E
:100F10006F6E3A2025632563256325635F25303294
:100F200078253032780A00003C3C2D4754502D493A
:100F30004E464F2D3E3E204943332056657273691D
:100F40006F6E3A2025632563256325635F25303264
:100F500078253032780A00003C3C2D4754502D490A
:100F60004E464F2D3E3E20494334205665727369EC
:100F70006F6E3A2025632563256325635F25303234
:100F800078253032780A00003C3C2D4754502D49DA
:100F90004E464F2D3E3E20494335205665727369BB
:100FA0006F6E3A2025632563256325635F25303204
:100FB00078253032780A000010B500BF00BF00F07D
:100FC0005FF810BDF8B504460D4616461F4600BF33
:100FD00000BF33462A46214606A0009705F0DEFAF8
:100FE00028B20E4921F8140030B20D4921F814003E
:100FF000F8BD00003C3C2D4754502D494E464F2D26
:101000003E3E2049443A25642C20583A25642C2041
:10101000593A25642C20573A25640A00E20200243C
:10102000EC02002410B504464FF0FF30074921F8C8
:101030001400074921F8140000BF22464FF4007144
:1010400004A005F0ABFA00BF10BD0000E2020024CE
:10105000EC0200243C3C2D4754502D44454255475A
:101060002D3E3E205B25645D546F75636820696486
:101070005B2532645D2072656C65617365210A00D1
:101080002DE9F04F99B05FA00068189028210EA8B4
:10109000FFF776F95C4800680D900025A8464FF0F0
:1010A000BA0B002600200C900B900A908146002479
:1010B0004FF0FF3A00BF00BF0C220DA95846FFF7C2
:1010C0009DFC8246BAF1000F06DA51464FA005F0AA
:1010D00065FA19B0BDE8F08F9DF83680B8F1000FC1
:1010E00000D1F6E708F0800000B97CE008F00F05B9
:1010F000052D00DD77E0012D17DD242101A8FFF784
:101100003FF94148001D00680090681EC000821C25
:1011100069465846FFF772FC8246681EC2000DF110
:10112000020110A8FFF705F900BF44480088A84253
:1011300021DD00241BE0002715E0032000EBC700A1
:101140000DA94618307800F00F093D48005D48456C
:1011500000D10AE0681EB84203DC3949085DFFF798
:1011600061FF781CC7B2AF42E7DB00BF641C3348A5
:1011700000888442DFDB2DB3002420E0032000EB55
:10118000C4000DA94618307800F00F092C4800F86B
:1011900004907078B17840EA01200C90F0783179B1
:1011A00040EA01200B907079B17940EA01200A9061
:1011B0004846DDE90A320C99FFF704FF641CAC4293
:1011C000DCDB0DE01D48008850B1002404E01C4920
:1011D000085DFFF727FF641C184800888442F6DB8F
:1011E0001648058000BF032218A95846FFF796FC51
:1011F0008246BAF1000F02DA12A005F0CFF900BF63
:1012000067E70000814E00007CD203083C3C2D477C
:1012100054502D4552524F522D3E3E2049324320CC
:101220007472616E73666572206572726F722E20C1
:101230006572726E6F3A25640A200A00F802002473
:10124000FA0200243C3C2D4754502D494E464F2D68
:101250003E3E2049324320777269746520656E6492
:101260005F636D64206572726F72210A0000000076
:10127000F0B502460C46C4EBC40602F1200000EBB8
:101280008601002500235068B0F5403F02D0506829
:1012900000B100BF00BF92F85800012801D1022020
:1012A000F0BD012082F8580000BF022082F85900EA
:1012B0004FF4403797FAA7F7B7FA87F7D1E9010655
:1012C000BE4030434FF4801797FAA7F7B7FA87F775
:1012D0000E69BE4030434FF4001797FAA7F7B7FAEC
:1012E00087F74E69BE4040EA06032B4D48680A283E
:1012F00002D04868092804D1C86800F07F40034341
:1013000008E04FF07F4696FAA6F6B6FA86F6C86869
:10131000B0400343A4B91068406AA8431843166854
:10132000706208681668B06148680A2802D0486888
:10133000092827D1C86820F07F401668B06221E0F4
:1013400048680B280AD14FF4402696FAA6F6B6FA5A
:1013500086F68869B040034345F440251068C069AB
:10136000A84318431668F061086816683061486839
:101370000A2802D04868092804D1C86820F07F40B4
:1013800016683062012082F8590000BF002082F800
:10139000580000BF00BF83E70F0033FF10B50446BD
:1013A0000CB9012010BD94F8590028B9002084F828
:1013B0005800204600F040F8022084F859002068C8
:1013C000006820F4403061680843216808602068A4
:1013D000406B20F00700A16808432168486320683B
:1013E000006C6FF30D00E168084321680864206811
:1013F000406B20F480104FF4801292FAA2F2B2FAFD
:1014000082F2216991400843216848632068406B5B
:1014100020F400104FF4001292FAA2F2B2FA82F213
:10142000616991400843216848630020E06501201C
:1014300084F859000020B5E77047F8B504460D461A
:101440000026002000902068006800F001000028BD
:1014500043D000F015FA064639E020684068009055
:10146000009800F02100E0B1009800F0200018B1D1
:10147000E06D40F00200E065009800F0010018B156
:10148000E06D40F00100E0652120216888600420C3
:1014900084F8590000BF002084F8580000BF0120E4
:1014A000F8BD681C98B125B100F0EAF9801BA8428C
:1014B0000DD9E06D40F02000E065032084F859006C
:1014C00000BF002084F8580000BF0320E8E7206830
:1014D000406800F002000028BFD02068C06900F01A
:1014E000200028B92068406A00F0200000284BD076
:1014F00000F0C6F9064641E0206840680090009878
:1015000000F0290020B3009800F0080018B1E06D49
:1015100040F00400E065009800F0200018B1E06D94
:1015200040F00200E065009800F0010018B1E06DA5
:1015300040F00100E065292021688860042084F8DB
:10154000590000BF002084F8580000BF0120A7E721
:10155000681C98B125B100F093F9801BA8420DD901
:10156000E06D40F02000E065032084F8590000BFE2
:10157000002084F8580000BF032091E720684068ED
:1015800000F010000028B7D01220216888600120E8
:1015900084F8590000BF002084F8580000BF00BF45
:1015A0007EE72DE9F84304460D4616461F46DDF852
:1015B000208000BF94F85800012802D10220BDE825
:1015C000F883012084F8580000BF022084F85900F5
:1015D0003B46324629462046CDF80080FFF71EF8EC
:1015E0002068006840F00100216808600020E6E7FC
:1015F00070B5044600F044F906462546681C10B153
:1016000004480078054400BF00F03AF9801BA84266
:10161000FAD370BD10000024F8B502460B46002135
:10162000002600240020824D00BFFCE0012707FABD
:1016300001F61F6807EA0604B4427CD15F68022FF6
:1016400002D05F68122F1AD14FEAD10C02F12007A5
:1016500057F82C004F074FEAD76C0F2707FA0CF703
:10166000B8434FEA417C4FEADC6C1F6907FA0CF77C
:1016700038434FEAD10C02F1200747F82C001068DC
:101680004FEA410C032707FA0CF7B8431F7907F01C
:1016900003074FEA410C07FA0CF7384310605F6804
:1016A000012F08D05F68022F05D05F68112F02D08C
:1016B0005F68122F17D190684FEA410C032707FA91
:1016C0000CF7B8434FEA410CDF6807FA0CF73843D0
:1016D0009060506801278F40B8431F79C7F3001707
:1016E0008F4038435060D0684FEA410C032707FA17
:1016F0000CF7B8434FEA410C9F6807FA0CF73843E0
:10170000D0605F6807F08057B7F1805F95D100BF68
:10171000484F3F6847F00207DFF818C1CCF8007067
:1017200067463F6807F00207009700BF00BF424FBF
:101730004FEA910C00E075E057F82C008F074FEA54
:10174000177C0F2707FA0CF7B8433C4FBA4201D178
:1017500000272DE03A4FBA4201D1012728E0394F46
:10176000BA4201D1022723E0374FBA4201D1032701
:101770001EE0364FBA4201D1042719E0344FBA4275
:1017800001D1052714E0334FBA4201D106270FE0FB
:10179000314FBA4201D107270AE0304FBA4201D196
:1017A000082705E02E4FBA4201D1092700E00A2799
:1017B0004FEA817C4FEA1C7C07FA0CF738431E4F36
:1017C0004FEA910C47F82C002868A0435F6807F4A3
:1017D0008037B7F5803F00D1204328606868A04378
:1017E0005F6807F40037B7F5003F00D12043686019
:1017F0004FF0B0473868A0435F6807F48017B7F52B
:10180000801F00D120434FF0B04738607868A04374
:101810005F6807F40017B7F5001F00D120434FF0B1
:10182000B0477860491C1029FFF400AFF8BD0000F4
:1018300080000058F4440258080400580000025880
:101840000004025800080258000C02580010025808
:101850000014025800180258001C025800200258B8
:1018600000240258024613690B400BB1012000E02E
:10187000002070470AB1018300E0418370470000F7
:10188000044840680449B0FBF1F04FF47A714843D2
:1018900070470000001000E00084D717034800687C
:1018A000034909780844014908607047080000248A
:1018B0001000002410B5032000F05CF9002000F0B7
:1018C00007F808B1012010BD00F005F90020FAE783
:1018D00001460848006840F08070064A1060002009
:1018E000054A50601046006840F00100106000207A
:1018F00070470000FCED00E0001000E070B5044609
:101900000E46154600BF94F8A000012801D1022020
:1019100070BD012084F8A00000BF022084F8A1005F
:1019200005EB850101EBC50204F1380101EB8200F2
:1019300034223146FEF7FDFC2A463146204603F0AC
:10194000F3F801202168486284F8A10000BF00205C
:1019500084F8A00000BF00BFDAE7000070B50446BD
:10196000002500260CB9012070BD94F8A10028B90B
:10197000002084F8A000204600F07EF8022084F8C1
:10198000A1002068806920F0704021688861D4E956
:1019900001010843E1680843216908432168896916
:1019A00008432168886120688068324908402168BE
:1019B0008860A08A050420688068A16929430843DB
:1019C000216888602068C0682A4908402168C8608A
:1019D000A08B05042068C068216A29430843216858
:1019E000C860206800692349084021680861A08C0C
:1019F000050420680069A16A294308432168086139
:101A0000206840691B49084021684861A08D050491
:101A100020684069216B294308432168486194F894
:101A20003500050294F8360006042068C06A00F00C
:101A30007F402168C86246EA050094F834100843E4
:101A40002168C96A08432168C8622068406B40F079
:101A50000600216848632068806940F00100216821
:101A600088610020C4F8A400012084F8A1000020AF
:101A70007AE7000000F800F070472DE9F0410446D5
:101A80000E46174600BF94F8A000012802D102209C
:101A9000BDE8F081012084F8A00000BF022084F896
:101AA000A10007EB870000EBC70104F1380000EB51
:101AB00081056E613A462946204603F035F801203B
:101AC0002168486284F8A10000BF002084F8A000CB
:101AD00000BF00BFDCE7704701460846002809DB6D
:101AE00000F01F0301229A4043099B0003F1E02309
:101AF000C3F8002100BF70472DE9F05F80460D4616
:101B00001646002704F05AFD074639462A46334652
:101B100001F00700C0F1070ABAF1040F02D94FF033
:101B2000040A01E0C0F1070AD14600F1040ABAF143
:101B3000070F02D24FF0000A01E0A0F1030AD446D9
:101B40004FF0010A0AFA09FAAAF1010A0AEA020A9E
:101B50000AFA0CFA4FF0010B0BFA0CFBABF1010B7C
:101B60000BEA030B4AEA0B042146404604F02EFD23
:101B7000BDE8F09F00BF00F00702064B19684FF662
:101B8000FF031940044B0B4343EA0221014B196048
:101B900000BF70470CED00E00000FA0510B501F041
:101BA0000FFA0949096801F470614FF4807292FAE2
:101BB000A2F2B2FA82F2D140044A515CC840044910
:101BC00008600846006810BD18440258D091030808
:101BD0000000002410B501F0ABF90749096801F0D5
:101BE0007001102292FAA2F2B2FA82F2D140034AB4
:101BF000515CC84010BD000020440258D091030839
:101C000070B5014600220120002300249FED811AB7
:101C1000B0EE410A9FED7F1AF0EE410A7E4D2D682D
:101C200005F003027C4D2D68C5F305307A4D2D1D5E
:101C30002D6805F01003784D14352D68C5F3CC05DB
:101C400015FB03F501EE105AB8EE411AB0EE410A49
:101C500022B1012A4DD0022A7DD169E06E4D283D86
:101C60002D68C5F340152DB36B4D283D2D68C5F388
:101C7000C1066A4D25FA06F4B4FBF0F501EE105AE0
:101C8000F8EE411A9FED661A80EE012A624D10357A
:101C90002D68C5F3080501EE105AB8EE411A32EE70
:101CA000011AB7EE002A31EE021A21EE811AF0EE87
:101CB000410A1DE0594DB5FBF0F501EE105AF8EE62
:101CC000411A9FED571A80EE012A534D10352D68A9
:101CD000C5F3080501EE105AB8EE411A32EE011AAA
:101CE000B7EE002A31EE021A21EE811AF0EE410A17
:101CF0005EE04C4DB5FBF0F501EE105AB8EE412A0E
:101D00009FED471AC0EE011A434D10352D68C5F3FB
:101D1000080501EE105AB8EE411A31EE811AF7EEBD
:101D2000001A31EE211A22EE011AF0EE410A3FE0CC
:101D30003D4DB5FBF0F501EE105AF8EE411A9FED5E
:101D4000381A80EE012A344D10352D68C5F3080588
:101D500001EE105A00E00CE0B8EE411A32EE011A22
:101D6000B7EE002A31EE021A21EE811AF0EE410A96
:101D70001EE02C4DB5FBF0F501EE105AB8EE412AED
:101D80009FED271AC0EE011A234D10352D68C5F3BB
:101D9000080501EE105AB8EE411A31EE811AF7EE3D
:101DA000001A31EE211A22EE011AF0EE410A00BFAC
:101DB00000BF194D10352D68C5F346256D1C01EE89
:101DC000105AB8EE411AC0EE811ABCEEE11A81ED4C
:101DD000001A114D10352D68C5F306456D1C01EE36
:101DE000105AB8EE411AC0EE811ABCEEE11A81ED2C
:101DF000011A094D10352D68C5F306656D1C01EEFD
:101E0000105AB8EE411AC0EE811ABCEEE11A81ED0B
:101E1000021A70BD00000000284402580090D00350
:101E20000000004600093D0040787D0170B5014684
:101E300000220120002300249FED811AB0EE410A08
:101E40009FED7F1AF0EE410A7E4D2D6805F00302EA
:101E50007C4D2D68C5F305507A4D2D1D2D6805F478
:101E60008073784D1C352D68C5F3CC0515FB03F543
:101E700001EE105AB8EE411AB0EE410A22B1012A21
:101E80004DD0022A7DD169E06E4D283D2D68C5F305
:101E900040152DB36B4D283D2D68C5F3C1066A4D25
:101EA00025FA06F4B4FBF0F501EE105AF8EE411AEB
:101EB0009FED661A80EE012A624D18352D68C5F334
:101EC000080501EE105AB8EE411A32EE011AB7EECB
:101ED000002A31EE021A21EE811AF0EE410A1DE0CD
:101EE000594DB5FBF0F501EE105AF8EE411A9FED91
:101EF000571A80EE012A534D18352D68C5F3080591
:101F000001EE105AB8EE411A32EE011AB7EE002A6D
:101F100031EE021A21EE811AF0EE410A5EE04C4DDC
:101F2000B5FBF0F501EE105AB8EE412A9FED471AC5
:101F3000C0EE011A434D18352D68C5F3080501EEB2
:101F4000105AB8EE411A31EE811AF7EE001A31EE4E
:101F5000211A22EE011AF0EE410A3FE03D4DB5FB99
:101F6000F0F501EE105AF8EE411A9FED381A80EEA6
:101F7000012A344D18352D68C5F3080501EE105AB5
:101F800000E00CE0B8EE411A32EE011AB7EE002A7A
:101F900031EE021A21EE811AF0EE410A1EE02C4DBC
:101FA000B5FBF0F501EE105AB8EE412A9FED271A65
:101FB000C0EE011A234D18352D68C5F3080501EE52
:101FC000105AB8EE411A31EE811AF7EE001A31EECE
:101FD000211A22EE011AF0EE410A00BF00BF194D8E
:101FE00018352D68C5F346256D1C01EE105AB8EE64
:101FF000411AC0EE811ABCEEE11A81ED001A114DB2
:1020000018352D68C5F306456D1C01EE105AB8EE63
:10201000411AC0EE811ABCEEE11A81ED011A094D98
:1020200018352D68C5F306656D1C01EE105AB8EE23
:10203000411AC0EE811ABCEEE11A81ED021A70BDA0
:1020400000000000284402580090D0030000004621
:1020500000093D0040787D012DE9F04104464FF034
:102060000008002700250026206800F000600028F6
:102070003AD0606E48B1B0F5801F0DD0B0F5001FAA
:1020800015D0B0F5401F1FD11DE0FB48006840F49B
:102090000030F949086019E0F748006840F4001082
:1020A000F5490860201D02F04DFE05460EE0F2489D
:1020B000006840F08070F049086004F1240002F0EC
:1020C000BDFE054602E001E0012500BF00BF55B995
:1020D000E9482430006820F44010616E0843E64966
:1020E0002431086000E02E43208800F48070A8B3FB
:1020F000606D052824D2DFE800F0030A15212200D4
:10210000DD48006840F40030DB4908601AE0DA4836
:10211000006840F40020D8490860201D02F012FE3B
:1021200005460FE0D448006840F48000D2490860BA
:1021300004F1240002F082FE054603E002E001E023
:10214000012500BF00BF55B9CB482430006820F0FE
:102150000700616D0843C8492431086000E02E4340
:10216000208800F40070D8B3A06D80281CD003DC58
:1021700040B1402826D10CE0C02821D0B0F5807FA6
:1021800020D11EE0BC48006840F40030BA49086025
:102190001AE0B948006840F40020B7490860201DE3
:1021A00002F0D0FD05460FE0B348006840F480001F
:1021B000B149086004F1240002F040FE054603E046
:1021C00002E001E0012500BF00BF55B9AA48243054
:1021D000006820F4E070A16D0843A749243108602D
:1021E00000E02E43208800F4806078B3D4F8A40087
:1021F000B0F5800F1ED004DC50B1B0F5001F28D11F
:102200000DE0B0F5C00F22D0B0F5000F21D11FE0D6
:102210009948006840F40030974908601BE09648F0
:10222000006840F4002094490860201D02F08AFDF7
:10223000054610E09048006840F480008E49086030
:1022400004F1240002F0FAFD054604E012E002E089
:1022500001E0012500BF00BF5DB987482C30006850
:1022600020F46000D4F8A410084383492C3108609E
:1022700000E02E43208800F4006078B3D4F8A80072
:10228000B0F1007F1ED004DC50B1B0F1807F28D1C6
:102290000DE0B0F1407F22D0B0F1806F21D11FE07E
:1022A0007548006840F40030734908601BE07248CC
:1022B000006840F4002070490860201D02F042FDD3
:1022C000054610E06C48006840F480006A490860E8
:1022D00004F1240002F0B2FD054604E012E002E041
:1022E00001E0012500BF00BF5DB963482C300068E4
:1022F00020F0E060D4F8A81008435F492C31086052
:1023000000E02E43206800F0007050B3A06CC8B10C
:10231000102804D0202809D0302814D111E05648C4
:10232000006840F40030544908600EE052480068EC
:1023300040F4001050490860201D02F003FD0546DE
:1023400003E002E001E0012500BF00BF55B94A48A3
:102350002030006820F03000A16C0843464920314D
:10236000086000E02E43208800F4805078B3E06DD0
:10237000B0F5005F1ED004DC50B1B0F5805F28D10D
:102380000DE0B0F5405F21D0B0F5804F21D11FE0C6
:102390003948006840F40030374908601BE036488F
:1023A000006840F4002034490860201D02F0CAFC97
:1023B000054610E03048006840F480002E4908606F
:1023C00004F1240002F03AFD054604E003E010E0C9
:1023D00001E0012500BF00BF55B92748243000683F
:1023E00020F4E040E16D084323492431086000E017
:1023F0002E43208800F40050E0B3206EB0F5403F3B
:1024000027D007DC68B1B0F5803F0BD0B0F5003FB6
:1024100022D112E0B0F5802F1CD0B0F5A02F1BD137
:1024200019E01BE01448006840F48010124908606D
:10243000201D02F087FC054610E00F48006840F4BC
:1024400000000D49086004F1240002F0F7FC054685
:1024500004E003E002E001E0012500BF00BF6DB928
:1024600005482430006820F4E020216E084302492A
:102470002431086003E000002C4402582E432088D9
:1024800000F4804078B3D4F8AC00B0F1405F27D0BE
:1024900007DC68B1B0F1805F0BD0B0F1005F23D1F1
:1024A00012E0B0F1804F1CD0B0F1A04F1CD119E068
:1024B0001CE0FA48006840F48010F8490860201DCC
:1024C00002F040FC054611E0F448006840F40000CA
:1024D000F249086004F1240002F0B0FC054605E072
:1024E00004E003E002E010E0012500BF00BF5DB999
:1024F000EA482C30006820F0E040D4F8AC100843E3
:10250000E6492C31086000E02E43208800F40040AA
:1025100048B3E06EC0B1B0F1805F03D0B0F1005FAE
:1025200013D106E0DD48006840F40030DB49086064
:102530000DE0DA48006840F48010D8490860201D9A
:1025400002F000FC054602E001E0012500BF00BFEB
:1025500055B9D2482430006820F04050E16E08435D
:10256000CE492431086000E02E43206800F08070DE
:1025700050B3606CC8B1012804D0022809D00328E8
:1025800014D111E0C548006840F40030C349086028
:102590000EE0C248006840F40010C0490860201DE9
:1025A00002F0D0FB054603E002E001E0012500BF98
:1025B00000BF55B9B9482030006820F00300616CB5
:1025C0000843B6492031086000E02E43206800F43B
:1025D0008000E8B3B248006840F48070B0490860F9
:1025E000FFF74EF9074606E0FFF74AF9C01B6428DB
:1025F00001D9032505E0AA48006800F4807000288E
:10260000F2D000BF9DBBA5484430006800F4407084
:10261000B4F8B01001F44071884214D09F4844309F
:10262000006820F440789D484430006840F48030D1
:102630009A49443108600846006820F480300860F8
:102640000846C0F80080D4F8B000B0F5807F00E004
:1026500045E015D1FFF714F9074609E0FFF710F937
:10266000C01B41F28831884202D9032507E035E0DA
:102670008A4844300068C0F340000028EED000BF14
:1026800055BB00BFB4F8B00000F44070B0F5407F17
:102690000ED182481C38006820F47C51814AD4F85D
:1026A000B000104041EA10107C491C39086007E076
:1026B0007A481C38006820F47C5078491C3908603E
:1026C000764844300068B4F8B010C1F30B010843F9
:1026D00072494431086002E02E4300E02E43207826
:1026E00000F00100B8B3A06F182823D005DC48B172
:1026F000082808D0102820D110E020281BD0282836
:102700001BD119E01BE06548006840F48010634964
:102710000860201D02F016FB054610E05F480068C7
:1027200040F400005D49086004F1240002F086FBDB
:10273000054604E003E002E001E0012500BF00BF20
:1027400055B956482830006820F03800A16F08437A
:1027500052492831086000E02E43207800F0020042
:1027600080B3606F06281FD2DFE800F003040F1B60
:102770001C1D1BE04948006840F480104749086070
:10278000201D02F0DFFA054610E04448006840F4DE
:1027900000004249086004F1240002F04FFB0546A6
:1027A00004E003E002E001E0012500BF00BF55B9ED
:1027B0003A482830006820F00700616F0843374925
:1027C0002831086000E02E43207800F0040090B328
:1027D000D4F8900006281FD2DFE800F003040F1B96
:1027E0001C1D1BE02D48006840F480102B49086038
:1027F000201D02F0A7FA054610E02848006840F4C2
:1028000000002649086004F1240002F017FB054689
:1028100004E003E002E001E0012500BF00BF5DB974
:102820001E482C30006820F00700D4F890100843B0
:102830001A492C31086000E02E43207800F0200077
:1028400090B3D4F88C00B0F1405F2ED007DC68B1B3
:10285000B0F1805F0BD0B0F1005F29D112E0B0F190
:10286000804F23D0B0F1A04F22D120E022E00B48CE
:10287000006840F4002009490860201D02F062FA57
:10288000054617E00548006840F08070034908607D
:1028900004F1240002F0D2FA05460BE02C44025861
:1028A00000480258FFFCFF0F11E003E002E001E0E6
:1028B000012500BF00BF4DB9FE48006820F0E04090
:1028C000D4F88C100843FB49086000E02E432078C0
:1028D00000F0400080B3D4F89800B0F5406F2CD0E1
:1028E00007DC68B1B0F5806F0BD0B0F5006F27D171
:1028F00014E0B0F5805F21D0B0F5A05F20D11EE0DC
:1029000020E0EC482838006840F40020E9492839E4
:102910000860201D02F016FA054613E0E548283845
:10292000006840F08070E3492839086004F1240011
:1029300002F084FA054605E013E003E002E001E05E
:10294000012500BF00BF5DB9DA48001D006820F412
:10295000E050D4F898100843D649091D086000E0FB
:102960002E43207800F0800080B3D4F89C00B0F5AE
:10297000C04F2CD007DC68B1B0F5005F0BD0B0F5CC
:10298000804F27D114E0B0F5004F21D0B0F5204F93
:1029900020D11EE020E0C7482838006840F400201D
:1029A000C44928390860201D02F0CCF9054613E01F
:1029B000C0482838006840F08070BE492839086057
:1029C00004F1240002F03AFA054605E013E003E0C2
:1029D00002E001E0012500BF00BF5DB9B548001D60
:1029E000006820F46040D4F89C100843B149091DE8
:1029F000086000E02E43207800F00800D0B1D4F841
:102A00008000B0F5805F0CD104F1240002F016FACA
:102A1000A8482838006840F08070A6492839086026
:102A200008E0A448006820F44050D4F8801008431F
:102A3000A0490860207800F01000E0B1D4F89400BC
:102A4000B0F5807F0CD104F1240002F0F7F9994829
:102A50002838006840F080709649283908600AE0FC
:102A60009448001D006820F44070D4F89410084386
:102A70009049091D0860206800F40020A0B3D4F834
:102A8000A00030B1B0F5803F10D0B0F5003F1CD1B0
:102A90001AE088482838006840F400208549283921
:102AA0000860201D02F04EF9054610E081482838E4
:102AB000006840F080707F492839086004F12400E4
:102AC00002F0BCF9054602E001E0012500BF00BFAD
:102AD0005DB97848001D006820F44030D4F8A0109B
:102AE00008437449091D086000E02E43206800F483
:102AF000802080B3D4F88400B0F5801F06D0B0F5F4
:102B0000001F0CD0B0F5401F18D116E069482838D6
:102B1000006840F4003067492839086010E06548D3
:102B20002838006840F4000062492839086004F140
:102B3000240002F083F9054602E001E0012500BF10
:102B400000BF4DB95B48006820F44010D4F88410F1
:102B500008435849086000E02E43206800F48030A4
:102B600048B3E06C18B1B0F5803F16D108E0514889
:102B70002838006840F400304E49283908600EE0DB
:102B80004C482838006840F400104A492839086049
:102B9000201D02F0D7F8054601E0012500BF00BF67
:102BA00055B944480838006820F48030E16C084387
:102BB00040490839086000E02E43206800F00050CA
:102BC00060B13C482838006840F0807039492839A5
:102BD000086004F1240002F031F90643206800F493
:102BE000003018B3E06FA0B1B0F5807F06D0B0F52B
:102BF000007F0CD0B0F5407F0CD109E02D4828387B
:102C0000006840F400302B492839086004E003E0F4
:102C100002E001E0012500BF00BF45B9254800687A
:102C200020F44070E16F08432249086000E02E4321
:102C3000206800F4801048B11E48001F006820F092
:102C40000040216F08431B49091F0860206800F0FD
:102C5000805050B117484438006820F48040D4F8C0
:102C6000B4100843134944390860206800F4001088
:102C700048B11048001F006820F08070A16E084322
:102C80000C49091F0860206800F0804088B100BF2F
:102C900008484438006820F4004006494439086078
:102CA00008460068D4F8B81008430249443908605F
:102CB00000BF01E054440258206800F0004038B1E1
:102CC0000648006820F04050216D08430349086021
:102CD00016B90020BDE8F0810120FBE74C44025802
:102CE00070B504460D4600268D48006800F00700C8
:102CF000A8420ED28A48006820F00700284388497D
:102D000008600846006800F00700A84201D00120D2
:102D100070BD207800F00200022807D181480068C9
:102D200020F00F00E16808437E490860207800F039
:102D30000100002851D07B48006820F47060A16831
:102D40000843784908606068022807D17548183838
:102D50000068C0F34040F8B90120D9E76068032853
:102D600007D1704818380068C0F34060A0B901204E
:102D7000CEE76068012807D16A4818380068C0F3B8
:102D8000002048B90120C3E7664818380068C0F33E
:102D9000800008B90120BBE762480838006820F0CD
:102DA0000700616808435F4908390860FEF768FD5D
:102DB00006466068022811D108E0FEF761FD801B1D
:102DC00041F28831884201D90320A1E755480838EB
:102DD000006800F038001028EFD13AE0606803285E
:102DE00011D108E0FEF74CFD801B41F2883188428A
:102DF00001D903208CE74B480838006800F0380000
:102E00001828EFD125E06068012811D108E0FEF70D
:102E100037FD801B41F28831884201D9032077E7D2
:102E200040480838006800F038000828EFD110E06A
:102E300008E0FEF725FD801B41F28831884201D968
:102E4000032065E737480838006800F0380000289C
:102E5000EFD13348006800F00700A8420ED930488F
:102E6000006820F0070028432D49086008460068E4
:102E700000F00700A84201D0012049E7207800F0C7
:102E80000400042807D12748006820F07000216959
:102E9000084324490860207800F00800082809D178
:102EA0002048001D006820F07000616908431D493A
:102EB000091D0860207800F01000102809D1194879
:102EC000001D006820F4E060A16908431549091D50
:102ED0000860207800F02000202809D1114808302F
:102EE000006820F07000E16908430E49083108606D
:102EF00000F066F80B49096801F470614FF48072C4
:102F000092FAA2F2B2FA82F2D140074A515CC8406A
:102F1000064908600020FEF7DBFC0020F8E6000010
:102F20000020005218440258D091030800000024E9
:102F300010B5FEF733FE0949096801F00F010122BF
:102F400092FAA2F2B2FA82F2D140054A515CC8402C
:102F5000044908600846006810BD00001844025883
:102F6000D09103080400002410B5FFF7E1FF0749E2
:102F7000096801F07001102292FAA2F2B2FA82F20C
:102F8000D140034A515CC84010BD00001C440258A7
:102F9000D091030810B5FFF7CBFF0749096801F48A
:102FA000E0614FF4807292FAA2F2B2FA82F2D1405A
:102FB000024A515CC84010BD1C440258D09103081D
:102FC00070B5012500EE905A002201210023002453
:102FD000DFED861AB0EE610ADFED841AB0EE611AF9
:102FE0000020834D2D6805F0380535B1082D15D02A
:102FF000102D15D0182D7CD114E07D4D103D2D687D
:10300000C5F3401545B17A4D103D2D68C5F3C10695
:10301000784D25FA06F000E07648E5E07648E3E0F2
:103020007648E1E0724D18352D6805F00302704DC9
:1030300018352D68C5F305116D4D1C352D6805F04B
:1030400001036B4D24352D68C5F3CC0515FB03F545
:1030500001EE905AF8EE611AB0EE610A22B1012A2F
:103060004FD0022A7DD16BE0614D103D2D68C5F334
:1030700040152DB35E4D103D2D68C5F3C1065D4D65
:1030800025FA06F4B4FBF1F501EE905AB8EE612A88
:10309000DFED5B1AC0EE212A554D20352D68C5F3B2
:1030A000080501EE905AF8EE611A72EEA11AF7EED9
:1030B000002A71EEA21A62EE211AB0EE611A1FE028
:1030C0004C4DB5FBF1F501EE905AB8EE612ADFEDFB
:1030D0004C1AC0EE212A464D20352D68C5F308054F
:1030E00001EE905AF8EE611A72EEA11AF7EE002A7C
:1030F00000E077E071EEA21A62EE211AB0EE611ADA
:103100005EE03D4DB5FBF1F501EE905AB8EE612A57
:10311000DFED3B1AC0EE212A354D20352D68C5F371
:10312000080501EE905AF8EE611A72EEA11AF7EE58
:10313000002A71EEA21A62EE211AB0EE611A3FE087
:103140002E4DB5FBF1F501EE905AB8EE612ADFED98
:103150002C1AC0EE212A264D20352D68C5F308050E
:1031600000E00EE001EE905AF8EE611A72EEA11A3C
:10317000F7EE002A71EEA21A62EE211AB0EE611A81
:103180001EE01D4DB5FBF1F501EE905AF8EE612AF7
:10319000DFED1B1A80EE212A154D20352D68C5F371
:1031A000080501EE905AF8EE611A72EE211AB7EE98
:1031B000002A71EE821A62EEA11AB0EE611A00BF07
:1031C00000BF0B4D20352D68C5F346256D1C00EE64
:1031D000905AF8EE601A81EE212AFCEEC21A11EE26
:1031E000900A01E0044800BF00BF70BD000000006D
:1031F000104402580090D00300093D0040787D0142
:103200000000004670B504460025207800F001005B
:10321000002870D0F748006800F0380010280CD063
:10322000F448006800F03800182812D1F14818302E
:10323000006800F0030002280BD1EE481038006847
:10324000C0F34040002869D06068002866D10120A2
:1032500070BD00BF6068B0F5803F08D1E548103808
:10326000006840F48030E349103908602EE060685F
:1032700068B9E0481038006820F48030DD49103922
:1032800008600846006820F4802008601EE060683E
:10329000B0F5A02F0DD1D7481038006840F4802039
:1032A000D449103908600846006840F4803008604E
:1032B0000CE0D0481038006820F48030CD49103937
:1032C00008600846006820F48020086000BF60683D
:1032D00090B1FEF7D5FA054606E0FEF7D1FA401B9D
:1032E000642801D90320B3E7C24810380068C0F34E
:1032F00040400028F1D011E0FEF7C2FA054606E092
:10330000FEF7BEFA401B642801D90320A0E7B948A4
:1033100010380068C0F340400028F1D1207800F058
:103320000200022847D1B348006800F0380058B1C5
:10333000B048006800F0380018283ED1AD48183079
:10334000006800F00300B8BBAA4810380068C0F35A
:10335000800018B1E06808B9012079E7A548103865
:10336000006820F01900E1680843A249103908609C
:10337000FEF786FA054606E0FEF782FA401B0228B1
:1033800001D9032064E79B4810380068C0F380002F
:103390000028F1D097480C38006820F47C304FF4B6
:1033A0007C3292FAA2F2B2FA82F221699140084389
:1033B00090490C3908604AE0FFE7E06868B38D483F
:1033C0001038006820F01900E16808438949103975
:1033D0000860FEF755FA054606E0FEF751FA401B75
:1033E000022801D9032033E7824810380068C0F36F
:1033F00080000028F1D07F480C38006820F47C3031
:103400004FF47C3292FAA2F2B2FA82F22169914030
:10341000084378490C39086019E07648103800688C
:1034200020F00100734910390860FEF729FA0546BB
:1034300006E0FEF725FA401B022801D9032007E722
:103440006C4810380068C0F380000028F1D1207863
:1034500000F01000102877D16648006800F03800AE
:1034600008280CD06348006800F03800182823D1E1
:1034700060481830006800F0030001281CD15D4846
:1034800010380068C0F3002020B1E069802801D026
:103490000120DDE657480C38006820F0F8404FF076
:1034A000F84292FAA2F2B2FA82F2216A91400843FB
:1034B00050490C39086047E0E06958B34D4810386E
:1034C000006840F080004B4910390860FEF7D8F9D9
:1034D000054606E0FEF7D4F9401B022801D9032077
:1034E000B6E6444810380068C0F300200028F1D048
:1034F00040480C38006820F0F8404FF0F84292FA4B
:10350000A2F2B2FA82F2216A9140084339490C3999
:10351000086019E037481038006820F0800035490D
:1035200010390860FEF7ACF9054606E0FEF7A8F989
:10353000401B022801D903208AE62E481038006873
:10354000C0F300200028F1D1207800F008000828FE
:1035500036D16069D0B127486430006840F001007E
:10356000244964310860FEF78BF9054606E0FEF752
:1035700087F9401B022801D9032069E61D48643001
:103580000068C0F340000028F1D019E01948643009
:10359000006820F00100174964310860FEF770F9F7
:1035A000054606E0FEF76CF9401B022801D903200E
:1035B0004EE6104864300068C0F340000028F1D1A6
:1035C000207800F02000202834D1A069D8B1094823
:1035D0001038006840F48050064910390860FEF742
:1035E0004FF9054608E0FEF74BF9401B022803D9C6
:1035F00003202DE610440258AF480068C0F3403065
:103600000028F0D016E0AC48006820F48050AA49A9
:103610000860FEF735F9054606E0FEF731F9401B74
:10362000022801D9032013E6A3480068C0F3403004
:103630000028F2D1207800F0040004287DD19F48B2
:10364000006840F480709D490860FEF719F905464E
:1036500006E0FEF715F9401B642801D90320F7E5C1
:103660009648006800F480700028F2D000BFA0687F
:10367000012808D190487030006840F001008E4960
:10368000703108602DE0A06868B98B487030006820
:1036900020F001008849703108600846006820F079
:1036A000040008601DE0A06805280DD18248703034
:1036B000006840F0040080497031086008460068E6
:1036C00040F0010008600CE07B487030006820F09A
:1036D00001007949703108600846006820F0040054
:1036E000086000BFA068A0B1FEF7CAF8054608E070
:1036F000FEF7C6F8401B41F28831884201D9032009
:10370000A6E56D4870300068C0F340000028EFD097
:1037100013E0FEF7B5F8054608E0FEF7B1F8401BE8
:1037200041F28831884201D9032091E56248703026
:103730000068C0F340000028EFD1606A00287CD008
:103740005D481030006800F03800182876D0606AB4
:10375000022874D15848006820F0807056490860EB
:10376000FEF78EF8054606E0FEF78AF8401B0228B1
:1037700001D903206CE550480068C0F34060002880
:10378000F2D100BFD4E90A1041EA00104A492831B9
:10379000096840F2F33291430843474928310860F1
:1037A000208E401EC0F30800616B491E4FF47E421C
:1037B00002EA41210843218F491ED20102EA014158
:1037C00008433C21095D491E120202EA01610843D7
:1037D00039493031086000BF081D00684FF6F871A4
:1037E00088434FF6F87292FAA2F2B2FA82F2A16C12
:1037F000914008433049343108602F482C3000682C
:1038000020F00C00216C08432B492C31086008463D
:10381000006820F00200616C084327492C310860E1
:103820000846006840F4803008600846006840F4AC
:10383000003008600846006802E03BE038E01FE026
:1038400040F4802008600846006840F001000860ED
:103850001948006840F0807017490860FEF710F8BA
:10386000054606E0FEF70CF8401B022801D90320AC
:10387000EEE411480068C0F340600028F2D019E07F
:103880000D48006820F080700B490860FDF7F8FFD4
:10389000054606E0FDF7F4FF401B022801D903208E
:1038A000D6E405480068C0F340600028F2D101E08A
:1038B0000120CDE40020CBE4004402580048025827
:1038C00070B504460D460CB9012070BD94F82C006B
:1038D00028B9002084F82D00204600F019F80220B5
:1038E00084F82C00211D2068FCF752FF2946D4E9FA
:1038F0000002FCF7A1FF0548006840F000400349C2
:103900000860012084F82C000020DEE7004000520F
:10391000704770B504460D4694F82C00022800D17B
:1039200070BD022084F82C0029462068FCF76AFF4D
:10393000012084F82C000020F2E770B504460D4603
:10394000164694F82C00022800D170BD022084F89D
:103950002C00324629462068FCF75BFF28680228C5
:1039600003D1052084F82C0002E0012084F82C000B
:103970000020EAE710B504460CB9012010BDA0698B
:1039800000B100E000BF94F8790028B9002084F865
:103990007800204600F02AF8242084F87900206876
:1039A000006820F0010021680860204601F0FAFF5D
:1039B000012800D1E2E7606B10B1204601F042FF20
:1039C0002068406820F49040216848602068806842
:1039D00020F02A00216888602068006840F001001B
:1039E00021680860204601F0A2FFC7E770472DE973
:1039F000F84F04460D46164699464FF0000A94F8D3
:103A00007A0020287AD105B116B90120BDE8F88FD7
:103A100000BF94F87800012801D10220F6E70120C8
:103A200084F8780000BF0020683460612220A07410
:103A3000FDF726FF824626806680683C00BFA068AE
:103A4000B0F5805F0AD1206920B940F2FF10A4F8D8
:103A50006C001CE0FF20A4F86C0018E0A06848B9D6
:103A6000206918B9FF20A4F86C0010E07F20A4F8AA
:103A70006C000CE0A068B0F1805F08D1206918B933
:103A80007F20A4F86C0002E03F20A4F86C0000BF87
:103A9000B4F86C8024E0B4F86A00401EA4F86A0010
:103AA0005346002220212046CDF8009002F04CFC25
:103AB00008B10320AAE7A068B0F5805F09D12069AA
:103AC00038B92F462068808C00EA08003880AD1C89
:103AD00006E02068808C08F0FF01084005F8010B23
:103AE000B4F86A000028D6D1202084F87A0000BFFC
:103AF000002084F8780000BF88E7FFE7022085E710
:103B00002DE9F84304460D4616461F464FF00009BE
:103B100094F87900202854D105B116B90120BDE8E8
:103B2000F88300BF94F87800012801D10220F6E75D
:103B3000012084F8780000BF00206034E06121207B
:103B40006076FDF79DFE814626806680603C21E020
:103B5000B4F86200401EA4F862004B4600228021A7
:103B60002046009702F0F0FB08B10320D7E7A068D9
:103B7000B0F5805F0AD1206940B9A846B8F80000C6
:103B8000C0F3080021680885AD1C03E015F8010B9F
:103B900021680885B4F862000028D9D14B4600227C
:103BA00040212046009702F0CFFB08B10320B6E782
:103BB000202084F8790000BF002084F8780000BF3E
:103BC000ADE70220ABE700BFFEE7000000B587B01D
:103BD00000BF3848006840F4800036490860084655
:103BE000006800F48000019000BF00BF00BF3148B2
:103BF0000838006840F080002E49083908600846FF
:103C0000006800F08000019000BF00BF00BF0846C0
:103C1000006840F0800008600846006800F08000FE
:103C2000019000BF00BF00BF0846006840F48070EC
:103C300008600846006800F48070019000BF00BF73
:103C400000BF0846006840F00800086008460068A9
:103C500000F00800019000BF00BF1020029011206A
:103C60000390022005900020049002A91248FDF75D
:103C7000D3FC2020029002A90F48FDF7CDFC4FF4A1
:103C8000807002900120039002200590049002A908
:103C90000A48FDF7C1FC4FF4005002900120039048
:103CA00002200590049002A90548FDF7B5FC07B075
:103CB00000BD0000E8440258001C025800200258D1
:103CC000000C025800B587B000BF1148006840F0F2
:103CD00008000F4908600846006800F008000190DD
:103CE00000BF00BF4FF4005002900A48039000202C
:103CF000049002A90848FDF78FFC012211462820F4
:103D0000FDF7FAFE2820FDF7E7FE07B000BD000032
:103D1000E044025800001111000C025870B506462C
:103D20000D46144612F064FF46F0010012F02EFF1B
:103D300012F092FF00B112E00BE012F003FF2870C6
:103D40006D1C601E84B214B912F0E2FE01E012F0A4
:103D5000B9FE002CF1D112F069FF002070BD12F005
:103D600065FF0120FAE7000000B585B04FF4005070
:103D700000900120019002200390029069461A48A9
:103D8000FDF74AFC00224FF480711848FDF772FDE0
:103D90001748FCF7C8FC012211021448FDF76AFD20
:103DA0001348FCF7C0FC00224FF480710F48FDF768
:103DB00061FD0F48FCF7B7FC012211020B48FDF72B
:103DC00059FD0B48FCF7AFFC4FF400500090002069
:103DD0000190022003900020029069460248FDF7FE
:103DE0001BFC05B000BD0000000C0258002002586A
:103DF000FFFF0F0010B5FFF7E9FEFFF7B5FFFFF774
:103E000061FF10BD2DE9F04105460F460024002654
:103E100000BF00BF00BF2BE004EB440005EB8000B7
:103E2000807800F0010088B104EB440305EB8303C4
:103E30009A8804EB440305EB8303996804EB44037D
:103E400015F82300FFF76AFF064610E004EB440371
:103E500005EB83031A7904EB440305EB83039968AC
:103E600004EB440315F8230000F00BF80646641C2D
:103E70000EB9BC42D0D116B13046BDE8F081204623
:103E8000FBE72DE9F04104460D46174612F0CEFE41
:103E900000260AE012F0ACFE204612F077FE12F087
:103EA000DBFE00B904E0701C86B2B6F57A7FF1DB68
:103EB00000BFB6F57A7F00D112E007E0287812F053
:103EC00065FE12F0C9FE00B10AE06D1C381EA7F1B4
:103ED0000101CFB2F2D112F0A9FE0020BDE8F081BD
:103EE00012F0A4FE0120F9E77CB5044600F0B4FB13
:103EF000054600F0A1FB06460020CDE90004084875
:103F0000006800EB800202EBC002064800EB820072
:103F10002B463246416A0248006800F085FD7CBDB0
:103F20003C000024FC08002410B54FF00050084964
:103F30000860192048624FF48771054881620221A8
:103F4000C16201630A214163FEF786F810BD0000DB
:103F5000E409002410B509480068806940F00100B8
:103F6000064909688861012210210548FDF782FC95
:103F7000012280210248FDF77DFC10BDC408002409
:103F8000000C025830B503460C465348006800EB5D
:103F9000800101EBC001514800EB8100006980B94C
:103FA00000F04AFB04FB003081004B48006800EB46
:103FB000800505EBC005494800EB8500406A42508A
:103FC00088E04548006800EB800101EBC0014348F0
:103FD00000EB81000069012837D100F02DFB04FBC4
:103FE00000313D48006800EB800505EBC0053B480B
:103FF00000EB8500406A032505FB0100110C817070
:1040000000F01AFB04FB00313348006800EB800528
:1040100005EBC005314800EB8500406A032505FB30
:104020000100110A417000F007FB04FB003000EBB7
:1040300040012948006800EB800505EBC0052748D2
:1040400000EB8500406A425444E02348006800EBDE
:10405000800101EBC001214800EB810000690228CA
:1040600017D01D48006800EB800101EBC0011B4820
:1040700000EB8100006904280BD01748006800EBB2
:10408000800101EBC001154800EB810000690728A1
:1040900010D100F0D1FA04FB003041000E48006856
:1040A00000EB800505EBC0050C4800EB8500406A7D
:1040B00042520FE000F0C0FA04FB00304100064815
:1040C000006800EB800505EBC005044800EB8500A7
:1040D000406A425230BD00003C000024FC0800242D
:1040E00000B587B000BFFE48006840F08000FC4982
:1040F00008600846006800F08000019000BF00BF23
:1041000000BF0846006840F080000860084600686C
:1041100000F08000019000BF00BF00BF08460068AB
:1041200040F0800008600846006800F080000190C0
:1041300000BF00BF00BF0846006840F002000860F2
:104140000846006800F00200019000BF00BF00BFF9
:104150000846006840F0010008600846006800F06A
:104160000100019000BF00BF00BF0846006840F09A
:10417000010008600846006800F00100019000BFDF
:1041800000BF00BF0846006840F002000860084613
:10419000006800F00200019000BF00BF00BF0846A9
:1041A000006840F0400008600846006800F04000E9
:1041B000019000BF00BF00BF0846006840F010003B
:1041C00008600846006800F01000019000BF00BFC2
:1041D00000BF0846006840F010000860084600680C
:1041E00000F01000019000BF00BF00BF084600684B
:1041F00040F0800008600846006800F080000190F0
:1042000000BF00BF00BF0846006840F040000860E3
:104210000846006800F04000019000BF00BF00BFEA
:104220000846006840F0400008600846006800F05A
:104230004000019000BF00BF00BF0846006840F486
:10424000807008600846006800F48070019000BF2C
:1042500000BF00BF0846006840F004000860084640
:10426000006800F00400019000BF00BF00BF0846D6
:10427000006840F4807008600846006800F48070B0
:10428000019000BF00BF00BF0846006840F010006A
:1042900008600846006800F01000019000BF00BFF1
:1042A00000BF0846006840F040000860084600680B
:1042B00000F04000019000BF00BF00BF084600684A
:1042C00040F0080008600846006800F0080001900F
:1042D00000BF00BF00BF0846006840F0080008604B
:1042E0000846006800F00800019000BF00BF00BF52
:1042F0000846006840F4807008600846006800F4D2
:104300008070019000BF00BF00BF0846006840F009
:10431000010008600846006800F00100019000BF3D
:1043200000BF00BF0846006840F002000860084671
:10433000006800F00200019000BF00BF00BF084607
:10434000006840F0020008600846006800F00200C3
:10435000019000BF00BF00BF0846006840F0400069
:1043600008600846006800F04000019000BF00BFF0
:1043700000BF0846006840F4807008600846006886
:1043800000F48070019000BF00BF00BF08460068C5
:1043900040F4807008600846006800F48070019066
:1043A00000BF00BF00BF0846006840F02000086062
:1043B0000846006800F02000019000BF00BF00BF69
:1043C0000846006840F0080008600846006800F0F1
:1043D0000800019000BF00BF00BF0846006840F021
:1043E000080008600846006800F00800019000BF5F
:1043F00000BF022005900390012004900420029049
:104400000E20069002A93748FDF706F90820029011
:104410000E20069002A93348FDF7FEF84FF4807095
:1044200002900E20069002A92E48FDF7F5F8012013
:1044300002900920069002A92B48FDF7EDF84FF4F1
:10444000006002900E20069002A92848FDF7E4F8CB
:104450004FF4805002900E20069002A92348FDF7E9
:10446000DBF8022002900920069002A91E48FDF701
:10447000D3F8402002900E20069002A91C48FDF7B8
:10448000CBF8202002900E20069002A91948FDF7D3
:10449000C3F8402002900E20069002A91548FDF7AF
:1044A000BBF84FF4005002900E20069002A90D4870
:1044B000FDF7B2F84FF4806002900920069002A93F
:1044C0000B48FDF7A9F84FF4004002900E2006902B
:1044D00002A90448FDF7A0F8012002900E200BE08D
:1044E000E0440258001C0258000402580000025820
:1044F0000018025800100258069002A94648FDF71D
:104500008BF8802002900E20069002A94348FDF708
:1045100083F8042002900E20069002A93E48FDF781
:104520007BF8102002900E20069002A93C48FDF76F
:1045300073F84FF4805002900E20069002A939487B
:10454000FDF76AF8402002900E20069002A9364836
:10455000FDF762F84FF4006002900E20069002A969
:104560003048FDF759F8102002900E20069002A95D
:104570002948FDF751F8082002900E20069002A964
:104580002A48FDF749F84FF4807002900E200690FB
:1045900002A92748FDF740F84FF4007002900E2062
:1045A000069002A92248FDF737F8802002900E20DD
:1045B000069002A91B48FDF72FF84FF48060029087
:1045C0000E20069002A91448FDF726F84FF400705B
:1045D00002900E20069002A90F48FDF71DF84FF437
:1045E000806002900E20069002A91248FDF714F890
:1045F000102002900220059001200390049002A94F
:104600000948FDF709F88020029002A90648FDF745
:1046100003F807B000BD000000200258000802584F
:104620000010025800180258000C025800000258EE
:1046300000040258001402580548006800EB80018D
:1046400001EBC001034800EB8100806A7047000065
:104650003C000024FC0800240548006800EB8001B1
:1046600001EBC001034800EB8100C06A7047000005
:104670003C000024FC08002408B500BF8248006804
:1046800040F00800804908600846006800F0080013
:10469000009000BF00BF00BF7B481038006840F0AA
:1046A00010007949103908600846006800F01000D1
:1046B000009000BF00BFFFF737FCFFF711FD00F0CF
:1046C0004FFF7248724908607248007800EB400062
:1046D000714901EB80008078401E6D4948616D484A
:1046E000007800EB40006C4901EB8000C078401E70
:1046F000674988616748007800EB4000664901EB34
:10470000800080786349097801EB4101624A12F820
:1047100021100844401E5E49C8615E48007800EBE5
:104720004000114601EB8000C0785A49097801EB3E
:10473000410102EB810149780844401E5449086256
:104740005448007800EB4000114601EB800080786F
:104750005049097801EB410112F8211008444D49F4
:10476000097801EB410102EB810109890844401EEF
:10477000474948624748007800EB4000114601EB8A
:104780008000C0784349097801EB410102EB8101C7
:10479000497808443F49097801EB410102EB810166
:1047A00049890844401E3A4988623A48007800EB3B
:1047B0004000114601EB800080783649097801EB12
:1047C000410112F8211008443249097801EB4101F6
:1047D00002EB8101098908442E49097801EB410166
:1047E00002EB810109790844401E2949C862294821
:1047F000007800EB4000114601EB8000C0782549AD
:10480000097801EB410102EB810149780844214913
:10481000097801EB410102EB8101498908441D49F6
:10482000097801EB410102EB810149790844401EFE
:10483000174908631748007800EB4000114601EB68
:1048400080000189124801661248007800EB4000A0
:10485000114601EB800041890D484166002180F836
:10486000361080F8351080F8341000200849486070
:10487000002107488160C1600161FDF76FF80748BA
:1048800000F064F808BD0000E44402580010005035
:10489000C4080024400000241CCF03081400002496
:1048A00070B58EB004460D46164600200190FFF705
:1048B000C3FE029000200390FFF7CEFE0490059601
:1048C0000A95FF200690002007908DF83400002103
:1048D0008DF835108DF836104FF4C0600890072021
:1048E0000990FFF7A9FE0B90FFF7B6FE0C90224649
:1048F00001A91048FDF702F84FF0FF3004EB440126
:104900000D4A02EB810148600C4804EB440102EBC4
:10491000810188604FF07F4004EB440142F82100A0
:1049200004480068406A40F0010002490968486292
:104930000EB070BDC4080024CC090024140000246B
:1049400001490860704700003C00002404490968E0
:1049500001EB4101034A02EB8101886070470000CE
:104960003C000024CC09002470B504460D462246C4
:1049700029460248FDF781F870BD0000C4080024F4
:1049800000B587B000BF2648006840F08000244989
:1049900008600846006800F08000019000BF00BF7A
:1049A00000BF0846006840F08000086008460068C4
:1049B00000F08000019000BF00BF00BF0846006803
:1049C00040F0800008600846006800F08000019018
:1049D00000BF00BF4FF4806002900120039004905C
:1049E0000220059002A90F48FCF716FE4FF4006064
:1049F000029002A90B48FCF70FFE4FF48050029082
:104A000002A90848FCF708FE4FF4806005491831F8
:104A10000880400008804000088007B000BD00000A
:104A2000E0440258001C02582DE9F84304460D46A4
:104A300016461F46DDE908984FF440303649486075
:104A40003648006800EB800101EBC001344800EB00
:104A500081000069022803D102212F4881603DE0D6
:104A60002E48006800EB800101EBC0012C4800EBF0
:104A70008100006918B90021274881602EE027488D
:104A8000006800EB800101EBC001254800EB8100CC
:104A90000069012803D101211F4881601EE01F48E1
:104AA000006800EB800101EBC0011D4800EB8100B4
:104AB0000069032803D10321174881600EE01748DD
:104AC000006800EB800101EBC001154800EB81009C
:104AD0000069042802D104210F4881600E48C0F803
:104AE0000C9010480C4908600846FCF757FC80B948
:104AF00021460948FCF7BCFB58B933462A464146D3
:104B000005480097FCF74DFD18B90A210248FCF74B
:104B100094FCBDE8F88300006C0900243C000024EC
:104B2000FC08002400100052F0B5002300240025EA
:104B30008E880768FF68C7F30B473E443304066856
:104B40008436802707FB0266766806F4704706689D
:104B500084364FF0800C0CFB026677600E680768A5
:104B6000FF68C7F30B473E44761C1E430768843733
:104B70000CFB02777E608E890768FF68C7F30A071F
:104B80003E44330406688436802707FB0266B66815
:104B900006F47047066884360CFB0266B7608E68C0
:104BA0000768FF68C7F30A073E44761C1E43076880
:104BB00084370CFB0277BE6006688436802707FBCB
:104BC0000266366926F00707066884360CFB026623
:104BD00037610F69066884360CFB0266376131263F
:104BE000765C33023226765C34040E7E3506066827
:104BF0008436802707FB0266B6690027066884367C
:104C00000CFB0266B76191F830601E4326432E43C9
:104C1000076884370CFB0277BE61066884368027FC
:104C200007FB0266766926F0FF07066884360CFBF0
:104C3000026677614F69066884360CFB026677610D
:104C400006688436802707FB0266F76940F207761C
:104C5000B743066884360CFB0266F761D1E9076743
:104C60003E43076884370CFB0277FE610668843692
:104C7000802707FB0266B66A0027066884360CFBAD
:104C80000266B7624F6A066884360CFB0266B7623A
:104C90000E690EB9042313E00E69012E01D103231E
:104CA0000EE00E69042E08D00E69022E05D00E69A2
:104CB000032E02D00E69072E01D1022300E001234A
:104CC00006688436802707FB0266F66A06F0E0274E
:104CD000066884364FF0800C0CFB0266F762D1E95F
:104CE0000076F61B5E43F71D0E8D5E4347EA0647CE
:104CF000066884360CFB0266F762066884368027F5
:104D000007FB0266366BF70AFF02066884360CFB67
:104D100002663763CF6A066884360CFB0266376327
:104D200006688436D701F65946F0010706688436CE
:104D30004FEAC21C46F80C70F0BD00BFFEE770479A
:104D40007047000070B50446002500263A48006808
:104D500000F00300032801D1012070BD3648283837
:104D6000006820F08060344928390860FCF788FD2D
:104D7000054606E0FCF784FD401B022801D903200C
:104D8000EBE72D4828380068C0F3C0600028F1D157
:104D900000BF2948006820F47C30216840EA0130D7
:104DA00025490860A088401EC0F30800A168491E7C
:104DB0004FF47E4202EA41210843A189491ED201F3
:104DC00002EA01410843217C491E120202EA016104
:104DD000084319491031086000BF1748001D0068DA
:104DE00020F0C000616908431349091D08600846A6
:104DF000006820F02000A16908430F49091D0860E0
:104E00000D482838006840F080600B492839086058
:104E1000FCF736FD054606E0FCF732FD401B022894
:104E200001D9032099E7044828380068C0F3C0601E
:104E30000028F1D0304690E72844025870B5044667
:104E4000002500263A48006800F00300032801D13D
:104E5000012070BD36482838006820F08050344961
:104E600028390860FCF70CFD054606E0FCF708FD54
:104E7000401B022801D90320EBE72D4828380068A1
:104E8000C0F340700028F1D100BF2948006820F02D
:104E90007C70218840EA015025490860A088401EA6
:104EA000C0F30800A168491E4FF47E4202EA412186
:104EB0000843A189491ED20102EA01410843217C2D
:104EC000491E120202EA01610843194918310860BB
:104ED00000BF1748001D006820F440606169084366
:104EE0001349091D08600846006820F40070A16994
:104EF00008430F49091D08600D482838006840F034
:104F000080500B4928390860FCF7BAFC054606E0DA
:104F1000FCF7B6FC401B022801D9032099E704489E
:104F200028380068C0F340700028F1D0304690E780
:104F30002844025800B587B000BFFE48006840F022
:104F40002000FC4908600846006800F0200001903D
:104F500000BF00BF00BF0846006840F020000860A6
:104F60000846006800F02000019000BF00BF00BFAD
:104F70000846006840F0200008600846006800F01D
:104F80002000019000BF00BF00BF0846006840F04D
:104F9000200008600846006800F02000019000BF73
:104FA00000BF00BF0846006840F0200008600846C7
:104FB000006800F02000019000BF00BF00BF08465D
:104FC000006840F0200008600846006800F02000FB
:104FD000019000BF00BF00BF0846006840F02000FD
:104FE00008600846006800F02000019000BF00BF84
:104FF00000BF0846006840F02000086008460068CE
:1050000000F02000019000BF00BF00BF084600680C
:1050100040F0200008600846006800F02000019081
:1050200000BF00BF00BF0846006840F020000860D5
:105030000846006800F02000019000BF00BF00BFDC
:105040000846006840F0400008600846006800F02C
:105050004000019000BF00BF00BF0846006840F05C
:10506000400008600846006800F04000019000BF62
:1050700000BF00BF0846006840F0400008600846D6
:10508000006800F04000019000BF00BF00BF08466C
:10509000006840F0080008600846006800F008005A
:1050A000019000BF00BF00BF0846006840F0080044
:1050B00008600846006800F00800019000BF00BFCB
:1050C00000BF0846006840F0080008600846006815
:1050D00000F00800019000BF00BF00BF0846006854
:1050E00040F0080008600846006800F008000190E1
:1050F00000BF00BF00BF0846006840F01000086015
:105100000846006800F01000019000BF00BF00BF1B
:105110000846006840F0100008600846006800F08B
:105120001000019000BF00BF00BF0846006840F0BB
:10513000100008600846006800F01000019000BFF1
:1051400000BF00BF0846006840F010000860084635
:10515000006800F01000019000BF00BF00BF0846CB
:10516000006840F0100008600846006800F0100079
:10517000019000BF00BF00BF0846006840F010006B
:1051800008600846006800F01000019000BF00BFF2
:1051900000BF0846006840F010000860084600683C
:1051A00000F01000019000BF00BF00BF084600687B
:1051B00040F0100008600846006800F01000019000
:1051C00000BF00BF00BF0846006840F01000086044
:1051D0000846006800F01000019000BF00BF00BF4B
:1051E0000846006840F0080008600846006800F0C3
:1051F0000800019000BF00BF00BF0846006840F0F3
:10520000080008600846006800F00800019000BF30
:1052100000BF00BF0846006840F00800086008466C
:10522000006800F00800019000BF00BF00BF084602
:10523000006840F0800008600846006800F08000C8
:10524000019000BF00BF00BF0846006840F040006A
:1052500008600846006800F04000019000BF00BFF1
:1052600000BF0846006840F040000860084600683B
:1052700000F04000019000BF00BF00BF084600687A
:1052800040F0040008600846006800F00400019047
:1052900000BF00BF00BF0846006840F02000086063
:1052A0000846006800F02000019000BF00BF00BF6A
:1052B0000846006840F0400008600846006800F0BA
:1052C0004000019000BF00BF00BF0846006840F0EA
:1052D000400008600846006800F04000019000BFF0
:1052E00000BF00BF0846006840F080000860084624
:1052F000006800F08000019000BF00BF00BF0846BA
:10530000006840F0100008600846006800F01000D7
:10531000019000BF00BF00BF0846006840F01000C9
:1053200008600846006800F01000019000BF00BF50
:10533000022001E0E0440258039001200490032081
:1053400005900C2006900120029002A97E48FCF7EF
:1053500063F90220029002A97B48FCF75DF9042062
:10536000029002A97848FCF757F90820029002A998
:105370007548FCF751F91020029002A97248FCF719
:105380004BF92020029002A96F48FCF745F94FF431
:105390008050029002A96C48FCF73EF94FF400508F
:1053A000029002A96848FCF737F94FF48040029058
:1053B00002A96548FCF730F94FF40040029002A9B9
:1053C0006148FCF729F90120029002A95F48FCF727
:1053D00023F90220029002A95C48FCF71DF9042081
:1053E000029002A95948FCF717F94FF48040029047
:1053F00002A95748FCF710F94FF40040029002A9A7
:105400005348FCF709F90120029002A95048FCF723
:1054100003F90220029002A94D48FCF7FDF8802014
:10542000029002A94B48FCF7F7F84FF48070029005
:1054300002A94848FCF7F0F84FF40070029002A966
:105440004448FCF7E9F84FF48060029002A9414813
:10545000FCF7E2F84FF40060029002A93D48FCF727
:10546000DBF84FF48050029002A93A48FCF7D4F8D8
:105470004FF40050029002A93648FCF7CDF84FF4E3
:105480008040029002A93348FCF7C6F84FF4004070
:10549000029002A92F48FCF7BFF84FF480700290E9
:1054A00002A92B48FCF7B8F84FF40070029002A94B
:1054B0002748FCF7B1F84FF48060029002A9244815
:1054C000FCF7AAF84020029002A92348FCF7A4F8B0
:1054D0001020029002A91D48FCF79EF8202002909F
:1054E00002A91A48FCF798F80120029002A91B486B
:1054F000FCF792F84FF40060029002A91248FCF702
:105500008BF84FF40040029002A91048FCF784F891
:105510004FF48070029002A90C48FCF77DF88020BF
:10552000029002A90C48FCF777F80220029002A929
:105530000848FCF771F80120029002A90548FCF721
:105540006BF807B000BD00000014025800180258A4
:10555000000C025800100258001C025800080258A3
:1055600000B5B7B0FFF7E6FC4FF080700190052062
:10557000029090210391022104910591032106914B
:10558000802107910021089109910220129001A821
:10559000FCF762FD08B100BFFEE700BF1D480068D0
:1055A00040F480501B4908600846006800F48050B1
:1055B000009000BF00BF18481849086001204860EB
:1055C0000121164881600821C1601021016140213C
:1055D00041614FF4C07181610021C1614FF40061EC
:1055E0000162490041624900816202203090082036
:1055F000319005203290082033900220349035906D
:10560000369030A90548FEF75BF900F009F837B08D
:1056100000BD0000D44402584041005290080024CC
:1056200010B50024012021490860082048600120AD
:1056300088600020C8604FF6FF721D48FEF77DF9B4
:10564000012000F037F8022018490860082048605F
:10565000012088600020C8604FF6FF721448FEF7F2
:105660006CF9032011490860082048600420886014
:105670000020C8604FF6FF720D48FEF75EF94FF448
:105680000C740420094908600820486001208860E3
:105690000846C4604FF6FF720548FEF74EF940F227
:1056A00095310348FEF735F910BD0000800800244D
:1056B0009008002401B581B00020009005490198B0
:1056C0004843009002E00098401E00900098002897
:1056D000F9D10CBDA0860100704710B5FCF7DEF8CB
:1056E000012029F077FE10BD10B59CB000242C4895
:1056F000006820F004002A49086000BF00200090E4
:1057000027480C30006840F4404025490C310860BF
:105710000846006800F44040009000BF00BF00BF92
:105720001F480C30006800F40050B0F5005FF7D15E
:1057300001200190000402900020049008900220B3
:105740000A9002210B9105210C91A0210D910221BB
:105750000E9110910F91002112910821119101A831
:10576000FDF750FD04460CB100BFFEE73F2014904A
:1057700003201590002016900820179040201890C4
:10578000199000011A9040201B90042114A8FDF7E5
:10579000A7FA04460CB100BFFEE71CB010BD000024
:1057A0000C4802582048006840F470001E49086008
:1057B0001E48006840F001001C49086000201B4999
:1057C00010310860194800681949084017490860F5
:1057D0000020164918310860091D0860091D08607D
:1057E000124928310860091D0860091D0860091D5B
:1057F0000860091D0860091D0860091D0860091D71
:1058000008600A48006820F48020084908600020E9
:10581000064960310860012006490860C006024957
:10582000803908607047000088ED00E000440258AD
:105830007FEDF6EA088100510148007870470000CA
:10584000F602002490F8341001F0010139B101682A
:10585000496821F40031826B11430268516090F86D
:10586000341001F0020139B10168496821F4803136
:10587000C26B11430268516090F8341001F00401CA
:1058800039B10168496821F48021026C1143026832
:10589000516090F8341001F0080139B1016849688D
:1058A00021F40041426C11430268516090F83410B9
:1058B00001F0100139B10168896821F48051826CCE
:1058C00011430268916090F8341001F0200139B161
:1058D0000168896821F40051C26C1143026891602B
:1058E00090F8341001F0400199B10168496821F441
:1058F0008011026D114302685160016DB1F5801F86
:1059000007D10168496821F4C001426D1143026862
:10591000516090F8341001F0800139B10168496894
:1059200021F40021826D114302685160704738B53F
:10593000044600250020E067FBF7A2FF054620682B
:10594000006800F0080008280CD16FF07E402B465C
:1059500000224FF400110090204600F0F5FC08B141
:10596000032038BD2068006800F0040004280CD132
:105970006FF07E402B4600224FF4800100902046BD
:1059800000F0E2FC08B10320EBE7202084F8790066
:1059900084F87A0000BF002084F8780000BF00BFC0
:1059A000DFE700002DE9F04F89B0044600254FF0F5
:1059B0008008A946AA4600200890FA492068884233
:1059C00001D1012000E0002000B100E000BFA06A8A
:1059D000B0F1005F00D100BF2169A0680843616990
:1059E0000843E16940EA0105A06A054320680068B0
:1059F000ED4908402843216808602068406820F489
:105A00004050E168084321684860A569E54920687D
:105A1000884201D1012000E0002008B9206A054336
:105A2000A06AB0F1005F03D1D4E90B01084305433C
:105A300020688068DD490840284321688860206824
:105A4000C06A20F00F00616A08432168C86200BF85
:105A5000D7492068884224D1D648006800F0380031
:105A6000182814D005DC48B108280AD0102817D10E
:105A70000AE020280ED0282812D10EE04FF00108AD
:105A80000EE04FF004080BE04FF0400808E04FF044
:105A9000080805E04FF0100802E04FF0200800BFB2
:105AA00017E1C549206888421DD1C248006800F04E
:105AB0000700062816D2DFE800F00306090C0F12D3
:105AC0004FF000080EE04FF004080BE04FF04008E4
:105AD00008E04FF0080805E04FF0100802E04FF032
